:020000040800F2
:1000000000000220C9200008E9190008ED190008C5
:10001000F1190008F5190008F9190008000000009E
:10002000000000000000000000000000B1A1000876
:10003000FD1900080000000041A20008CD8600085C
:1000400019210008192100081921000819210008A8
:100050001921000819210008192100081921000898
:10006000192100081921000819210008011A0008A7
:10007000192100080D1A000819210008192100088B
:10008000191A0008192100081921000800000000B1
:10009000000000000000000000000000192100081E
:1000A00019210008251A0008192100081921000843
:1000B000192100081921000819210008311A000827
:1000C0003D1A0008491A0008551A000819210008AD
:1000D000192100081921000819210008000000005A
:1000E000192100081921000819210008000000004A
:1000F00000000000000000000000000019210008BE
:100100000000000019210008192100081921000829
:1001100000000000000000000000000000000000DF
:1001200019210008192100081921000819210008C7
:10013000192100080000000000000000000000007D
:10014000000000000000000000000000611A00082C
:100150001921000819210008192100081921000897
:100160006D1A0008791A0008000000000000000065
:10017000000000000000000000000000000000007F
:10018000000000001921000800000000000000002D
:080190001921000819210008E3
:1001A00010B5054C237833B9044B13B10448AFF3B1
:1001B00000800123237010BD900D0020000000007E
:1001C000D4AF000808B5034B1BB103490348AFF394
:1001D000008008BD00000000940D0020D4AF00088E
:1001E00001F0FF01102A2BDB10F0070F08D010F8E8
:1001F000013B013A8B422DD010F0070F42B3F6D1EC
:10020000F0B441EA012141EA014122F007047FF004
:1002100000070023F0E80256083C85EA010586EA5B
:10022000010685FA47F5A3FA87F586FA47F6A5FA97
:1002300087F68EB9EED1F0BC01F0FF0102F00702A3
:1002400032B110F8013B013A83EA010313B1F8D14E
:100250000020704701387047002D06BF354603382F
:10026000073815F0010F07D1013015F4807F02BF68
:10027000013015F4C03F0130F0BC0138704700BFB9
:1002800053B94AB9002908BF00281CBF4FF0FF31FD
:100290004FF0FF3000F074B9ADF1080C6DE904CEF9
:1002A00000F006F8DDF804E0DDE9022304B0704751
:1002B0002DE9F047089D04468E46002B4DD18A4219
:1002C000944669D9B2FA82F252B101FA02F3C2F14C
:1002D000200120FA01F10CFA02FC41EA030E9440DD
:1002E0004FEA1C48210CBEFBF8F61FFA8CF708FBFE
:1002F00016E341EA034306FB07F199420AD91CEBD6
:10030000030306F1FF3080F01F81994240F21C8107
:10031000023E63445B1AA4B2B3FBF8F008FB10334F
:1003200044EA034400FB07F7A7420AD91CEB040484
:1003300000F1FF3380F00A81A74240F20781644454
:10034000023840EA0640E41B00261DB1D4400023D9
:10035000C5E900433146BDE8F0878B4209D9002D3D
:1003600000F0EF800026C5E9000130463146BDE8C7
:10037000F087B3FA83F6002E4AD18B4202D3824231
:1003800000F2F980841A61EB030301209E46002DE0
:10039000E0D0C5E9004EDDE702B9FFDEB2FA82F235
:1003A000002A40F09280A1EB0C014FEA1C471FFA93
:1003B0008CFE0126200CB1FBF7F307FB131140EA7A
:1003C00001410EFB03F0884208D91CEB010103F147
:1003D000FF3802D2884200F2CB804346091AA4B209
:1003E000B1FBF7F007FB101144EA01440EFB00FEDD
:1003F000A64508D91CEB040400F1FF3102D2A64542
:1004000000F2BB800846A4EB0E0440EA03409CE7E0
:10041000C6F12007B34022FA07FC4CEA030C20FA8D
:1004200007F401FA06F31C43F9404FEA1C4900FAAD
:1004300006F3B1FBF9F8200C1FFA8CFE09FB18112A
:1004400040EA014108FB0EF0884202FA06F20BD99D
:100450001CEB010108F1FF3A80F08880884240F2ED
:100460008580A8F102086144091AA4B2B1FBF9F031
:1004700009FB101144EA014100FB0EFE8E4508D92C
:100480001CEB010100F1FF346CD28E456AD90238B1
:10049000614440EA0840A0FB0294A1EB0E01A14296
:1004A000C846A64656D353D05DB1B3EB080261EB04
:1004B0000E0101FA07F722FA06F3F1401F43C5E9DE
:1004C000007100263146BDE8F087C2F12003D84014
:1004D0000CFA02FC21FA03F3914001434FEA1C4756
:1004E0001FFA8CFEB3FBF7F007FB10360B0C43EA48
:1004F000064300FB0EF69E4204FA02F408D91CEBF8
:10050000030300F1FF382FD29E422DD902386344F5
:100510009B1B89B2B3FBF7F607FB163341EA034195
:1005200006FB0EF38B4208D91CEB010106F1FF38E4
:1005300016D28B4214D9023E6144C91A46EA0046DB
:1005400038E72E46284605E70646E3E61846F8E66D
:100550004B45A9D2B9EB020864EB0C0E0138A3E7B6
:100560004646EAE7204694E74046D1E7D0467BE797
:10057000023B614432E7304609E76444023842E70F
:10058000704700BF0F280AD810B400EB4000044C9D
:1005900021542044427083705DF8044B70477047CB
:1005A00084090020654B664966482DE9F04F03F544
:1005B000C06A4FF05A0B4A780C78825C045D12F0E6
:1005C000010F0CBF1E265A2612F0020F14BF5A2527
:1005D0001E2512F0040F14BF4FF05A094FF01E09E8
:1005E00012F0080F14BF4FF05A0E4FF01E0E12F00B
:1005F000100F14BF4FF05A0C4FF01E0C12F0200FCA
:1006000014BF5A271E2712F0400FC3E9E06514BF3C
:100610005A261E26D2090CBF4FF01E084FF05A086A
:1006200014F0010F0CBF1E255A2514F0020FC3E968
:10063000E29E14BF4FF05A0E4FF01E0E14F0040F3E
:10064000C3F890C314BF4FF05A0C4FF01E0C14F0B7
:10065000080F14BF4FF05A094FF01E098A78C3F8EB
:10066000AC9314F0100FC3E9E57614BF5A271E2788
:1006700014F0200F825CC3F8B07314BF5A261E26F4
:1006800014F0400FC3E9E78514BF5A251E25E4097D
:100690000CBF4FF01E084FF05A0812F0010F0CBFAC
:1006A0001E245A2412F0020FC3E9E9EC14BF4FF0E4
:1006B0005A0E4FF01E0E12F0040F14BF4FF05A0CDA
:1006C0004FF01E0C12F0080F14BF5A271E2712F00D
:1006D000100FC3E9ED6514BF5A261E2612F0200F35
:1006E00014BF5A251E2512F0400FC3E9EF8414BF32
:1006F0005A241E24D209C3E9F1ECC3E9F376C3E915
:10070000F55411D11E22C3F8DC236033534501F1A7
:1007100003017FF450AFBDE8F04F084A0A4840F2A9
:100720006123002105F096B9C3F8DCB3603353456B
:1007300001F103017FF43FAFEDE700BF00000020AF
:100740008409002024B00008AC11002010B502215B
:100750000446374802F04EF818B1237843F00103FD
:1007600023703348042102F045F818B1237843F090
:10077000020323702E48082102F03CF818B12378B8
:1007800043F0040323702A48102102F033F818B113
:10079000237843F0080323702548202102F02AF82B
:1007A00018B1237843F0100323702148402102F050
:1007B00021F818B1237843F0200323701C488021CE
:1007C00002F018F818B1237843F040032370194859
:1007D000012102F00FF818B1637863F07F036370B2
:1007E0001448022102F006F818B1637843F00103BF
:1007F00063701048042101F0FDFF18B1637843F0E5
:10080000020363700B484FF4805101F0F3FF18B1FD
:10081000637843F00403637006484FF4005101F01D
:10082000E9FF18B1637843F008036370012010BD3D
:1008300000000240000402402DE9F04F2A4DDFF88D
:10084000B4802A4CDFF8B0B085B005F110062F4611
:100850004FF0640A4FF0010917F8012F0094CDE919
:10086000019A01236E21584602F0D4FB10B9237877
:1008700088F80030B74208F10108EDD1DFF87C803C
:10088000DFF87CB02F464FF0640A4FF0010917F8EB
:10089000012F0094CDE9019A01236E21584602F000
:1008A000B9FB10B9237888F80030B74208F1010885
:1008B000EDD10F4FDFF84C904FF0640A4FF0010874
:1008C000CDE9018A15F8012F009401236E214846D5
:1008D00002F0A0FB08B923783B70B54207F101078D
:1008E000EED105B0BDE8F08F370A0020FF0D0020E3
:1008F000CC0D0020AC0D0020400F0020BC0D0020CE
:10090000940F0020E80F002000B587B001230DF1FF
:1009100017026421CDE901314FF0FF0C00926E21E6
:1009200086228DF817C002F081FA07B05DF804FB4B
:10093000F0B587B0012305AA64258DE82C00324E5E
:1009400000228DF81420032286F87A206E217A2264
:10095000044602F05FFB9DF81430032B4DD0802736
:10096000CDE901750096012300226E21204602F098
:100970005DFA0028F4D1254F64260225CDE9015601
:10098000009701237E226E21204602F04FFA0028B4
:10099000F4D18DF815500DF1150764260125CDE928
:1009A00001560097012386226E21204602F03EFA6E
:1009B0000028F4D1DC2007F00FFF0DF1160302220E
:1009C00000938DF81620CDE90156012388226E216F
:1009D000204602F01FFB80B19DF816307BB90DF167
:1009E0001703FF270093CDE90156012386226E21CC
:1009F00020468DF8177002F019FA07B0F0BD2046B6
:100A0000FFF796FF07B0F0BDB8090020B409002039
:100A100030B583B00023264A0093116B2548264D3C
:100A200041F480011163116B01F480010091009980
:100A30000193116B436041F400111163126B436128
:100A400002F40012019280224FF4007482604FF48D
:100A50008062C0E903420199056004210322C0E9D4
:100A60000633C0E90831C0E90A23036301F0F2FB51
:100A7000D0B9002205210B2001F0A0FB0B2001F0D2
:100A8000DBFB002205210D2001F098FB0D2001F079
:100A9000D3FB10200022052101F090FB102003B0B1
:100AA000BDE8304001F0C8BB00F030FFE1E700BF17
:100AB00000380240000E0020106402402DE9F04F83
:100AC000082085B007F088FEA948AA4FAA4EAB4D72
:100AD000AB4CDFF8B892DFF8B8A2DFF8B8B2FFF796
:100AE00027FFA848FFF724FFA748FFF721FFA048EA
:100AF000FFF70AFFA348FFF707FFA348FFF704FF2C
:100B00009F482322402109F0E9FD4FF0010805200C
:100B100007F062FEFFF790FE97E8070001AB03C302
:100B200095F800C01A706A7816F80C00217863787E
:100B3000B25C884288BF8DF805809A42AA7884BF4B
:100B400002238DF80530B25CA3789A42EA7884BF1C
:100B500004238DF80530B25CE3789A422A7984BF89
:100B600008238DF80530B25C23799A4284BF1023A4
:100B70008DF805306B796279F35C9A42AA79A37992
:100B800038BF8DF80680B25C9A42EA7984BF0223AE
:100B90008DF80630B25CE3799A422A7A84BF042346
:100BA0008DF80630B25C237A9A426A7A84BF0823B1
:100BB0008DF80630B25C637A9A42AA7A88BF102315
:100BC000B25C88BF8DF80630A37A9A42EA7AE37A5B
:100BD000B25C88BF8DF807809A422A7B84BF0223CB
:100BE0008DF80730B25C237B9A426A7B84BF042372
:100BF0008DF80730B25C637B9A42AA7B84BF0823DE
:100C00008DF80730A37BB25C9A42EA7B88BF102341
:100C1000B25C88BF8DF80730E37B9A422A7C237C44
:100C2000B25C88BF8DF808809A4205D99DF80830DB
:100C300043F002038DF808306A7C637CB25C9A4210
:100C400005D99DF8083043F004038DF80830AA7CDC
:100C5000A37CB25C9A4205D99DF8083043F00803A2
:100C60008DF80830EA7CE37CB25C9A4205D99DF8A5
:100C7000083043F010038DF808302A7D237DB25CE4
:100C80009A4205D99DF8073043F001038DF80930E9
:100C90006A7D637DB25C9A4205D99DF8073043F0C6
:100CA00002038DF80930AA7DA37DB25C9A4205D972
:100CB0009DF8073043F004038DF80930EA7DE37DA9
:100CC000B25C9A4205D99DF8073043F008038DF8CD
:100CD00009302A7E237EB25C9A4205D99DF80730FE
:100CE00043F010038DF809306A7E637EB25C9A424D
:100CF00005D99DF8063043F001038DF80A30AA7E2D
:100D0000A37EB25C9A4205D99DF8063043F00203F7
:100D10008DF80A30EA7EE37EB25C9A4205D99DF8EE
:100D2000063043F004038DF80A302A7F237FB25C3B
:100D30009A4205D99DF8063043F008038DF80A3031
:100D40006A7F637FB25C9A4205D99DF8063043F012
:100D500010038DF80A30AB7FA27FF35C9A421BD25E
:100D60009DF8053043F001038DF80B3014E000BF0F
:100D7000400F0020ECAF0008AC0D0020480A002016
:100D8000DC0D0020940F0020E80F00207D0E0020D5
:100D90007E0E0020800A0020EB7FE27FF35C9A4207
:100DA00005D29DF8053043F002038DF80B3095F81D
:100DB000203094F82020F35C9A4205D29DF805304B
:100DC00043F004038DF80B3095F8213094F821207E
:100DD000F35C9A4205D29DF8053043F008038DF884
:100DE0000B3095F8223094F82220F35C9A4205D219
:100DF0009DF8053043F010038DF80B3099F8003062
:100E0000012B0AD09AF80030012B7FF480AE092222
:100E100001A9002006F00CF979E6062259460020C7
:100E200006F006F9002389F8003070E600B583B0BB
:100E30006C460E4E2546052007F0CEFC96E80300D2
:100E400020600DF10300ADF80410FFF77FFC9DF862
:100E500004109DF803300B44033306222946022078
:100E60002C468DF8053006F0E3F8E4E7F8AF00080B
:100E70002DE9F04FB34BB44ADFF814E3B34CB44E52
:100E8000B44DDFF8108393E8030091B0EA4602F115
:100E90000C0B8AE8030007CA02AB03C31A70BEE852
:100EA0000F000DF12C09A9E80F009BE80700DEF800
:100EB0000030A9F8003008AB83E807000BF10C0301
:100EC00093E807000DF1140CACE803002CF8022B9A
:100ED000120C00278CF80020012007F07DFC3378ED
:100EE00023B19D4B1B787B2B12D037702B781BB115
:100EF0002378E02B2CD02F7098F80030002BEBD00B
:100F0000964B1B78FF2B00F0728188F80070E3E7A6
:100F1000914B5B78483B0B2BE7D801A252F823F0AA
:100F2000BB0F0008EB0E0008EB0E0008EB0E0008EC
:100F3000CB0F0008EB0E0008EB0E0008EB0E0008CC
:100F4000EB0E0008EB0E0008990F0008C10F000817
:100F500023793C2B00F22081302BCCD9313B0B2B59
:100F6000C9D801A252F823F0E5100008811000084A
:100F70003D100008F70E0008F70E0008F70E0008F5
:100F8000F70E0008F70E000811100008F70E000811
:100F9000F70E0008F10F0008714B1F70714B4FF0F6
:100FA00001021A706C4BDB78452B00F02E81722BFE
:100FB00000F038816B2B00F0B680694B1F7094E70E
:100FC000674B4FF001021A708FE7654B1F70654B3E
:100FD0004FF001021A70604AD378452B85D0722BEE
:100FE00040F09E80D2F801305F4AC2F801307CE7C1
:100FF0005E4B4FF001021A7045F23C33ADF80530FC
:1010000008225146012006F013F80028F8D172E7B3
:10101000574B584A1B68617999631268A1795963E3
:10102000E379936345F23903ADF805300822514660
:10103000012005F0FDFF0028F8D15CE74E4B4F4939
:101040004FF001021A704E4AB4F8053013804D4A31
:1010500013880B8093788B70627A40F6FF73B3FB32
:10106000F2F3494ADB00138044F63323ADF8053030
:1010700008225146012005F0DBFF0028F8D13AE7AD
:1010800094F80590A3794B4520D94FEA490000F127
:10109000010B5FFA8BFB01E04FEA4900A37A627A09
:1010A000217A00F0FE00FFF76DFAA37A627A217AC6
:1010B0005846FFF767FA09F10109A3795FFA89F940
:1010C0000BF1020B4B455FFA8BFBE5D844F632136C
:1010D000ADF8053008225146012005F0A9FF00288F
:1010E000F8D108E76079237AE279A179400000F02D
:1010F000FE00FFF747FA6079237AE279A179400090
:101100000130C0B2FFF73EFA44F63103ADF80530C6
:1011100008225146012005F08BFF0028F8D1EAE6AD
:101120006B2B7FF4E2AE0C49184A8B7813440A7992
:10113000283203F8412C0C4AD1F80130C2F80130B2
:10114000D3E600BF24B1000800B000087C100020E6
:10115000FC100020FD1000203C100020BC100020DE
:101160007E0E00207D0E0020800A00207C0E0020D4
:101170003C120020F4110020770E0020740E002095
:10118000780E0020841000207A0E0020DC0D002054
:1011900030B10008FE100020F12B0BD012D9F32B38
:1011A0007FF4A9AE0B2205A9012005F041FF00281C
:1011B000F8D1A0E60C2208A9012005F039FF00288B
:1011C000F8D198E67C2B0AD0F02B7FF494AE122253
:1011D0000BA9012005F02CFF0028F8D18BE609228D
:1011E00002A9012005F024FF0028F8D183E6114A66
:1011F0005278042A13D0112A0ED0032A7FF485AE28
:101200000D4B4FF001021A707FE60C4B0C4AD3F8DD
:101210000130C2F8013068E60A4A137075E6064BE1
:101220001F7072E6084B064AD3F80130C2F801304D
:101230005BE600BFBC100020700E0020780A002082
:10124000800A0020860A00203C1000202DE9F84F7B
:10125000464C474D23682A68DFF82CA1DFF82C8123
:10126000DFF82C91002199635963002393630421D3
:10127000204604F08DFB0021204604F089FB042168
:10128000284604F085FB05E0013C89F800400A206F
:1012900007F0A2FA9AF800309BB9364A1278002A71
:1012A00037D199F80040002CEED10023E0B21A4665
:1012B00019460134FFF766F9102CF6D1FFF772F9E1
:1012C000E5E72D4B1B880A2B28D82C4B98F80050AB
:1012D0001E785F7893F802B04FF000038AF8003070
:1012E00010E06C00E4B25B463A4631462046FFF718
:1012F00049F9601CC0B25B463A463146FFF742F9F5
:101300000135EDB298F80130AB42EAD8FFF74AF95F
:10131000C7E7184A1370FFF745F9C2E798F800507D
:101320001749184805EB45028E5C0A441349577863
:1013300092F802B00C780A4649789278A2EB0B0C2E
:10134000A0FB03200C4A0A3BC008A41BC91B138046
:1013500091FBF0F194FBF0F30F441E449CFBF0F37F
:101360009B44F6B2FFB25FFA8BFBCBE73C12002046
:10137000F41100207C0E00207A0E0020740E002054
:1013800084090020CDCCCCCC770E0020780E002034
:10139000860A002010B5104A1048002107F0D0F945
:1013A0000F4B104A044600210F481C6007F0C8F993
:1013B0000E4B0F4A044600210E481C6007F0C0F98E
:1013C0000D4B0E4A044600210D481C6007F0B8F989
:1013D0000C4B186010BD00BFD4B10008BD0A000856
:1013E0006C0E002068B100082D0E0008600E002071
:1013F0008CB10008710E0008640E0020B0B1000826
:101400004D120008680E002010B500228AB0CDE908
:101410000422CDE90622294B00920892196B284834
:1014200041F004011963196B01F004010091009966
:101430000192196B41F080011963196B01F0800171
:10144000019101990292196B41F001011963196B25
:1014500001F00101029102990392196B41F002011E
:1014600019631B6B03F0020303934FF46041039B6A
:1014700001F0C6F94FF460420123CDE9042304A929
:10148000022200230E48CDE90623022401F0C0F811
:1014900004A9FE2200230B480694CDE9042301F0A1
:1014A000B7F841F2070200230748069404A9CDE9E2
:1014B000042301F0ADF80AB010BD00BF00380240AF
:1014C00000080240000002400004024010B50B4832
:1014D0000B4C0C4900234FF48042C0E90041C0E9A5
:1014E0000233C0E90423C0E90633036201F0D6FBEE
:1014F00000B910BDBDE8104000F008BA400F002050
:1015000000540040A086010010B50B480B4C0C495C
:1015100000234FF48042C0E90041C0E90233C0E932
:101520000423C0E90633036201F0B8FB00B910BD23
:10153000BDE8104000F0EAB9940F002000580040C8
:10154000A086010010B50B480B4C0C4900234FF44A
:101550008042C0E90041C0E90233C0E90423C0E988
:101560000633036201F09AFB00B910BDBDE81040DC
:1015700000F0CCB9E80F0020005C0040A08601001C
:101580002DE9F04303688D4A8FB000249342CDE9E2
:101590000844CDE90A4405460C9409D0884A934290
:1015A00059D0884A934200F099800FB0BDE8F0838B
:1015B000854F01943B6B8548854E43F002033B63A6
:1015C0003B6B03F002030193019B4FF44072122323
:1015D000CDE908230423012208A90C930323CDE9B4
:1015E0000A2301F015F802943B6CB46043F4001335
:1015F0003B643B6C774AF46003F4001302934FF0B2
:101600000073C6E900234FF48073C6E906434FF424
:1016100080624FF440333046C6E90424C6E90834FA
:10162000029900F017FE002840F0C180AE6300224E
:1016300005211F20B56300F0C1FD1F2000F0FCFD57
:1016400000220521202000F0B9FD202000F0F4FD4B
:101650000FB0BDE8F0835C4D03942B6B5B4843F007
:1016600002032B632B6B03F0020303934FF480629E
:101670001223CDE908230126039B032708A904238D
:101680000C93CDE90A6700F0C3FF092308A90C9366
:10169000082212234D48CDE90823CDE90A6700F05E
:1016A000B7FF04942B6C43F480032B642B6C03F47E
:1016B00080032246052104932120049B00F07EFD37
:1016C000212000F0B9FD22460521222000F076FD00
:1016D000222000F0B1FD0FB0BDE8F0833A4F059431
:1016E0003B6B3D483D4E43F001033B633B6B03F0D6
:1016F00001030593059B06943B6B43F002033B6398
:101700003B6B03F0020306934FF48072069B122397
:10171000CDE9082308A904234FF001084FF003097D
:101720000C93CDE90A8900F073FF092310222748A2
:101730000C9308A91223CDE90823CDE90A8900F00A
:1017400067FF07943B6CB46043F400033B643B6C5D
:10175000234AF46003F4000307934FF0C063C6E923
:1017600000234FF48073C6E906434FF480624FF4C0
:1017700040333046C6E90424C6E90834079900F02E
:1017800069FDB8B900220521AE634820B56300F0B9
:1017900015FD482000F050FD00220521492000F0F1
:1017A0000DFD492000F048FD0FB0BDE8F08300F0CA
:1017B000ADF83BE700F0AAF8E4E700BF00540040B2
:1017C00000580040005C0040003802400004024025
:1017D000800E00201060024000000240E00E002059
:1017E000406002400000000010B5002394B0CDE935
:1017F0000A33CDE90C33CDE90233CDE90433264970
:1018000000930693086C254A40F080500864096CE8
:1018100001F08051009100990193136843F4404313
:10182000136013689FED167B03F44043022101937C
:101830004FF480001923CDE90E10C022109308A8A0
:1018400004238DED087BCDE91121019C139303F056
:101850006FFC08B172B6FEE79FED0B7B8DED027B4E
:101860009FED0B7B0346032102A88DED047B0693BD
:1018700003F076FE08B172B6FEE714B010BD00BFEB
:1018800001000000000001000F0000000200000045
:10189000000000000010000000380240007000400E
:1018A00008B500F03BFCFFF79FFF124B1A6F22F0C8
:1018B00001021A671A6F22F004021A67FFF7A4FDEB
:1018C000FFF7A6F8FFF702FEFFF73CFE00F090FBE3
:1018D00000F006F900F038FBFFF716FE00F0ACF957
:1018E00005F0E8FA06F000FFFFF754FD06F00EFFE2
:1018F000FEE700BF00380240034B02689A4200D066
:10190000704700F025BC00BF0000014072B6FEE742
:1019100082B00E4B00220092596C41F48041596410
:10192000586C00F48040009000980192186C40F0D0
:10193000805018641B6C03F080530193019B0F21AE
:101940006FF0010002B000F039BC00BF0038024067
:1019500070B588B000251F4B02955A6C1E4C42F0A2
:1019600001025A645B6C03F0010301A9029306466D
:1019700003A8029B03F0B8FE03F0A6FE174A2260FC
:1019800003461748256140F2E732E260A0FB0323DB
:101990009B0C013B2046C4E90135A56103F0C8FE5C
:1019A000054610B1284608B070BD204603F03EFF42
:1019B00005460028F6D1192000F03EFC0F2E01D973
:1019C0000125EFE72A463146192000F0F7FB054BC9
:1019D0001E60E7E7003802400011002000000140CF
:1019E00083DE1B43900A0020FEE700BFFEE700BF36
:1019F000FEE700BFFEE700BFFEE700BF704700BF85
:101A0000014800F011BD00BF800E0020014800F029
:101A10000BBD00BFE00E0020014800F005BD00BF77
:101A20004C110020014804F0A5BA00BF00110020AD
:101A3000014801F03FBE00BF400F0020014802F006
:101A4000EFBA00BF400F0020014801F033BE00BFD5
:101A5000940F0020014802F0E3BA00BF940F002069
:101A6000014802F053BC00BF88120020014801F079
:101A700021BE00BFE80F0020014802F0D1BA00BF2C
:101A8000E80F002010B50C4C0C4B0D492268591A78
:101A90002AB11044884207D82060104610BD094A78
:101AA000226010448842F7D908F0E0FD0C234FF083
:101AB000FF320360104610BD4811002000000220D4
:101AC00000040000007C0020034AD2F8883043F470
:101AD0007003C2F88830704700ED00E0000000009D
:101AE00010B54F4C94B04FF0804200232260204646
:101AF0007722CDE90433CDE90C33CDE90E33CDE9BE
:101B00001033C4E901331293E2602361A36103F04F
:101B1000C1FE30BB00220023414804A9CDE90423C3
:101B200004F016FB18BB9FED367B00223C480E925A
:101B30000CA98DED0C7B109204F09CF8A0B92268E2
:101B40000023B2F1804FCDE90633CDE908330A9383
:101B500010D034498A4225D033498A4239D014B052
:101B600010BDFFF7D3FED5E7FFF7D0FEE7E7FFF79D
:101B7000CDFED8E702F50E320193136B2B4843F0EC
:101B800001031363136B9FED207B03F001030193AB
:101B900006A901238DED067B019A0A9300F038FD1A
:101BA00014B010BD224A0293136B224843F0020383
:101BB0001363136B9FED167B03F00203029306A9D8
:101BC00002238DED067B029A0A9300F021FD14B0EA
:101BD00010BD174A0393136B164843F002031363B7
:101BE000136B9FED0D7B03F00203039306A9022301
:101BF0008DED067B039A0A9300F00AFD14B010BD28
:101C00006000000000000000010000000200000071
:101C10002000000002000000C000000002000000E0
:101C2000AC11002000040040000800400000024009
:101C3000003802400004024010B54F4C4F4A226069
:101C400094B00023FF222046CDE90433CDE90C33C4
:101C5000CDE90E33CDE91033C4E901331293E260CC
:101C60002361A36103F016FE38BB00220023424823
:101C700004A9CDE9042304F06BFA20BB9FED367B69
:101C800000233D480E9304220CA98DED0C7B10938C
:101C900003F0F0FFA0B922680023B2F1804FCDE934
:101CA0000633CDE908330A9310D034498A4225D04F
:101CB00033498A4239D014B010BDFFF727FED4E76C
:101CC000FFF724FEE7E7FFF721FED7E702F50E3224
:101CD0000193136B2B4843F001031363136B9FEDC8
:101CE000207B03F00103019306A901238DED067B00
:101CF000019A0A9300F08CFC14B010BD224A0293A2
:101D0000136B224843F002031363136B9FED167BA2
:101D100003F00203029306A902238DED067B029ACB
:101D20000A9300F075FC14B010BD174A0393136BAF
:101D3000164843F002031363136B9FED0D7B03F012
:101D40000203039306A902238DED067B039A0A93EF
:101D500000F05EFC14B010BD600000000000000048
:101D6000010000000200000020000000020000004E
:101D7000C000000002000000F41100200004004038
:101D80000008004000000240003802400004024009
:101D900030B50368B3F1804F85B023D0284A934211
:101DA00004D0284A93420FD005B030BD264B002204
:101DB00002921A6C42F002021A641B6C03F00203D6
:101DC0000293029B05B030BD1F4B002203921A6C98
:101DD00042F004021A641B6C03F004030393039B98
:101DE00005B030BD0023184A0193116C174D41F026
:101DF00001011164126C1649EB6002F001020192BC
:101E00004FF0C062C5E9001240214FF480620446E1
:101E1000A96001982A614FF480514FF4804228460E
:101E2000C5E90512C5E907336B6200F013FA18B96A
:101E30006562AC6305B030BDFFF768FDF8E700BF31
:101E40000004004000080040003802404C1100200F
:101E5000886002400000000000B502688BB00023DB
:101E6000B2F1804FCDE90433CDE90633089308D0B1
:101E70002F498A421ED02F498A4233D00BB05DF8D9
:101E800004FB02F50E320193136B2B4843F0010360
:101E90001363136B9FED207B03F00103019304A9EF
:101EA00001238DED047B019A089300F0B1FB0BB088
:101EB0005DF804FB214A0293136B214843F00203AF
:101EC0001363136B9FED167B03F00203029304A9C7
:101ED00002238DED047B029A089300F099FB0BB06E
:101EE0005DF804FB154A0393136B154843F0020396
:101EF0001363136B9FED0C7B03F00203039304A9A0
:101F000002238DED047B039A089300F081FB0BB054
:101F10005DF804FBAFF30080010000000200000048
:101F20002000000002000000C000000002000000CD
:101F30000004004000080040000002400038024059
:101F4000000402400000000000B52748274A026054
:101F50008BB00023FF22CDE90033CDE90233CDE978
:101F60000433CDE90633C0E90133C0E90323089304
:101F7000836103F08FFC00BB002200231A486946EE
:101F8000CDE9002304F0E4F828BB9FED157B002287
:101F90001548049202A98DED027B069203F06AFEB9
:101FA000B0B91148042202A903F064FE40B90E48FA
:101FB000FFF752FF0BB05DF804FBFFF7A7FCDBE770
:101FC000FFF7A4FC0848FFF747FF0BB05DF804FBE0
:101FD000FFF79CFCE5E7FFF799FCD6E7AFF300803D
:101FE00060000000000000003C12002000080040DB
:101FF0009FED0F7B124810B580ED067B9FED0E7BA9
:1020000000234FF0A0440421022280ED087BC0E9A8
:102010000041C0E90323C0E90B3302F0C9F800B95D
:1020200010BDBDE81040FFF771BC00BFAFF30080EA
:10203000020000000000000000000000000000009E
:102040008812002030B5036889B00024B3F1A04F96
:10205000CDE90244CDE90444069401D009B030BD75
:10206000174D00942B6B174843F001032B632B6B28
:1020700003F0010300934FF4C0520223CDE9022381
:10208000032302A905930A23009A069300F0C0FADD
:102090006B6B43F080036B6301946B6C43F4804380
:1020A0006B646B6C03F4804322460521019343204B
:1020B000019B00F083F8432000F0BEF809B030BD6A
:1020C0000038024000000240DFF834D00D480E49CD
:1020D0000E4A002302E0D458C4500433C4188C4282
:1020E000F9D30B4A0B4C002301E013600432A242E7
:1020F000FBD3FFF7E9FC08F0BFFAFFF7D1FB70470D
:102100000000022000000020900D0020D0B2000846
:10211000900D0020007C0020FEE7000008B50B4B6E
:102120001A6842F400721A601A6842F480621A60F7
:102130001A6842F480721A60032000F02DF80F2014
:10214000FFF706FCFFF7E4FB002008BD003C02405F
:10215000034A044B11681B780B441360704700BF9F
:10216000941700208C0A0020014B1868704700BFAC
:102170009417002038B50446FFF7F6FF631C0546A8
:1021800002D0044B1B781C44FFF7EEFF431BA34215
:10219000FAD338BD8C0A00200749CA6803024FF6FB
:1021A000FF0003F4E0630240134343F0BF6343F4D2
:1021B0000033CB60704700BF00ED00E01C4BDB68D4
:1021C000C3F3022300B5C3F1070EBEF1040F03F100
:1021D000040C28BF4FF0040EBCF1060F1BD9033BC3
:1021E0004FF0FF3C0CFA03FC22EA0C024FF0FF3CDC
:1021F0000CFA0EFC21EA0C019940002841EA020188
:102200000CDB00F16040090100F56140C9B280F8C3
:1022100000135DF804FB00221346E7E7054B00F0CE
:102220000F0009010344C9B219765DF804FB00BF31
:1022300000ED00E0FCEC00E0002808DB4109044A66
:1022400000F01F00012303FA00F042F8210070475C
:1022500000E100E038B50446FFF786FF002C52D0BD
:1022600023680022022184F8351084F834201A688B
:1022700022F0010205461A6005E0FFF775FF431BD7
:10228000052B39D823681A68D107F6D4D4E9012080
:10229000E16802430A43D4E90451A0692A430A438E
:1022A000E1691D6802430A4333492940256A2A43EC
:1022B0000A43616A042928D01A605A6922F0070289
:1022C0001143D8B22D4A59611038A2FB00521209AD
:1022D0002B4923F47F73895CE16523F003035F28B6
:1022E00088BF04333F228A40A36500209A600123FF
:1022F000606584F8353038BD03232022626584F898
:102300003530184638BD012038BDD4E90B5129437A
:102310000A431A605969A26A21F00701114341F08A
:102320000401002DCDD078B1B0F5005F16D0022A9F
:1023300003D9032AC5D1EA01C3D50123402262652E
:1023400084F83530184638BD012A03D032F0020235
:10235000B7D1F0E7B5F1C07FB3D1EEE7032AB0D82B
:1023600001A050F822F000BF3B23000837230008EB
:102370003B230008552300083F8010F0ABAAAAAA0F
:1023800010B2000870B490F83440856D012C35D03F
:1023900090F835404FF0010C644580F834C005D00A
:1023A000002380F8343070BC02207047022680F889
:1023B0003560046800264665266826F48026266077
:1023C00063608368402B0EBFA260A160E260C26DB3
:1023D00008BFE1603F239340AB602368026C43F089
:1023E000160323601AB1236843F0080323602368AF
:1023F00043F001030020236070BC7047022070BCD2
:10240000704700BF90F83530022B03D0802343651E
:10241000012070470268052380F83530136823F0E7
:1024200001030020136070472DE9F04182B0744A27
:10243000866D156800230193C36D346808229A40A5
:102440002242804604D001680F68780700F18A8034
:1024500001229A40224204D0D8F8001049690906A6
:1024600078D404229A40224204D0D8F80010096897
:102470008F0767D410229A40224204D0D8F8001067
:102480000F68380749D420229A40224217D0D8F842
:1024900000100C68E00612D5B26098F83520052AC5
:1024A00073D00B6813F4802F0B6800F09080190331
:1024B00040F19B80D8F83C300BB140469847D8F8A3
:1024C00054303BB3D8F85430DA071BD5D8F8002085
:1024D0004C49052388F835301368A1FB051523F016
:1024E0000103AD0A136002E01368DB0704D5019B0A
:1024F0000133AB420193F7D90122002388F835203C
:1025000088F83430D8F84C3023B1404602B0BDE8EA
:10251000F041184702B0BDE8F081B2600A6812F4D9
:10252000802F0A682AD1D70503D40A6822F008024E
:102530000A60D8F84020002AA5D040469047D8F835
:102540005C30A0E7B260D8F8542042F00402C8F82A
:1025500054208FE7B260D8F8542042F00202C8F845
:1025600054207EE70F6827F004070F60B260D8F8A8
:10257000542042F00102C8F8542069E71203D8D56C
:10258000D8F84820002AD8D17DE70A6822F0160240
:102590000A604A6922F080024A61D8F8402052B3AA
:1025A0000A6822F008020A603F2202FA03F3D8F810
:1025B0005010B3600122002388F8352088F83430A9
:1025C0000029A7D0404602B0BDE8F041084713F407
:1025D00080737FF46FAF0A6822F010020A60012254
:1025E00088F8352088F8343064E7D8F84430002B78
:1025F0007FF463AF63E7D8F84820002AD0D1D3E74F
:10260000880A0020B5814E1B90F83500704700BF46
:102610002DE9F04F00220C68704E85B013464FF044
:10262000010A894604E00133102B02F1020278D03E
:102630000AFA03F101EA040BA143F4D1D9F804C06A
:102640000CF003014D1E012D6ED9032940F0AE8020
:102650009140CD4307683D4029431CF4403F016051
:10266000E1D05F4D00210391696C41F480416964C0
:10267000696C01F480410391039923F0030101F196
:10268000804101F59C3103F00307D1F808E0BF0059
:102690000F25BD402EEA0508524DA84217D005F57A
:1026A0008065A84200F086804F4DA84200F08780E8
:1026B0004E4DA84200F08A804D4DA8420CBF4FF00D
:1026C000040E4FF0070E0EFA07F748EA0708C1F8A4
:1026D0000880B1686FEA0B071CF4801F0CBF3940FB
:1026E0004BEA0101B160F5681CF4001F0CBF3D40CE
:1026F0004BEA0505F56075681CF4003F0CBF3D40D2
:102700004BEA0505756031681CF4803F03F1010355
:102710000CBF39404BEA0101102B316002F102027B
:1027200086D105B0BDE8F08FD9F80C50876805FA5E
:1027300002F8032505FA02FE27EA0E0748EA070712
:10274000876047686FEA0E0527EA0B0ECCF3001787
:102750009F4047EA0E074760C76807EA050ED9F8A9
:102760000870974047EA0E070229C76001FA02F194
:102770007FF470AF4FEAD30E00EB8E0E03F0070824
:10278000DEF820700097D9F810704FEA880807FA31
:1027900008F701970F2707FA08F8009F27EA0808AB
:1027A000019F47EA0807CEF8207053E703259540BC
:1027B000ED43D1E70AFA07F748EA070887E74FF041
:1027C000020E0EFA07F748EA070880E74FF0030EFB
:1027D0000EFA07F748EA070879E700BF003C014016
:1027E000003802400000024000080240000C024095
:1027F000001002400369194214BF012000207047F5
:1028000002B90904816170472DE9F04F046883B073
:1028100098462368DDF83090DDF834B043F48073D7
:1028200006468A4617462360B9F1FF3F35D16569F0
:10283000E807FCD50AF0FE012161B9F1FF3F03D0A2
:102840004EE061694D055CD461698B07F9D50023C1
:10285000019363690193A3690193019BB9F1FF3F60
:1028600040F0878063691A0663D463695B05F9D514
:10287000002220236FF480616161326386F83D306D
:1028800086F83E20336C86F83C2043F00403336422
:10289000336C042B66D001201FE06369D907C9D4CB
:1028A000FFF762FCA0EB0B00814504D3B9F1000FE8
:1028B00001D03468B8E700232022336386F83D2036
:1028C00086F83E30326C316886F83C3042F02002A7
:1028D00032640B68DC0535D4032003B0BDE8F08F0B
:1028E00063699807B3D463695A050AD4FFF73CFCBF
:1028F000A0EB0B0081454ED3B9F1000F4BD03468EB
:102900009BE7236843F40073236000226FF4806127
:1029100020236161326386F83D3086F83E20336CB7
:1029200086F83C2043F004030120336403B0BDE883
:10293000F08FB8F1010F09D1FFB20020276103B079
:10294000BDE8F08F4FF400733364C5E73B0A2361A1
:10295000B9F1FF3F2ED163691906EDD463695A05B9
:10296000F9D585E73268136843F4007301201360DA
:10297000B3E763691D06DCD4636959053FF578AF99
:10298000FFF7F2FBA0EB0B00814525D3B9F1000F57
:1029900022D0346862E700222023326386F83D307B
:1029A00086F83E20336C86F83C2043F020033364E5
:1029B000012092E763691B06BED4636958053FF5A1
:1029C00057AFFFF7D1FBA0EB0B00814504D3B9F162
:1029D000000F01D03468BBE700222023326386F861
:1029E0003D3086F83E20336C86F83C2043F02003CF
:1029F00033644DE72DE9F04F04689846236843F4AB
:102A000080632360236883B043F48073DDF830A0D3
:102A1000DDF83490236006468B461746BAF1FF3F37
:102A200039D16569EB07FCD50BF0FE0323615FFA32
:102A30008BFBBAF1FF3F03D068E061694A0550D4CF
:102A400061698907F9D50023019363690193A3693B
:102A50000193019BBAF1FF3F40F0B880636918060B
:102A600067D463695905F9D5002220236FF480618A
:102A70006161326386F83D3086F83E20336C86F81B
:102A80003C2043F004033364336C042B6CD00120EE
:102A900003B0BDE8F08F6369DD07C5D4FFF764FBC1
:102AA000A0EB0900824504D3BAF1000F01D03468CD
:102AB000B4E700232022336386F83D2086F83E30B9
:102AC000326C316886F83C3042F0200232640B6888
:102AD000DC0502D54FF400733364032003B0BDE876
:102AE000F08F236843F400732360002220236FF4E7
:102AF00080616161326386F83D3086F83E20336C38
:102B000086F83C2043F004033364C0E763699B0705
:102B100099D463695805E4D4FFF726FBA0EB0900BC
:102B20008245C0F08B80BAF1000F00F087803468D6
:102B30007FE7B8F1010F0BD1FFB22761BAF1FF3F78
:102B40006AD163691B0616D463695F05F9D58BE703
:102B50003B0A2361BAF1FF3F7FD163691D06EBD4C5
:102B600063695805F9D57FE73268136843F4007349
:102B7000012013608CE7236843F480732360BAF16B
:102B8000FF3F13D16369D807FCD54BF001032361E4
:102B9000BAF1FF3F03D02BE063695B05A1D4636901
:102BA000DB4313F00203F7D1184671E76369D907D5
:102BB000EBD4FFF7D9FAA0EB09008245FFF479AF17
:102BC000BAF1000F3FF475AF3468D8E763691A06AD
:102BD000AFD463695D053FF547AFFFF7C5FAA0EBDA
:102BE000090082454CD3BAF1000F49D0346831E76F
:102BF0006369DB4313F00203D6D063695A053FF5DE
:102C000070AFFFF7B1FAA0EB0900824516D3BAF115
:102C1000000F13D03468BBE763691D06ABD463694A
:102C20005A053FF521AFFFF79FFAA0EB0900824557
:102C300026D3BAF1000F23D034687FE70022202387
:102C4000326386F83D3086F83E20336C86F83C20AF
:102C500043F02003336401201AE7636919063FF546
:102C60006BAF63695B053FF5FFAEFFF77DFAA0EB45
:102C70000900824504D3BAF1000F01D0346869E736
:102C800000222023326386F83D3086F83E20336CE4
:102C900086F83C2043F020033364F5E6002800F07A
:102CA000B98070B590F83D30044603F0FF02002B68
:102CB00000F098802368242284F83D201A6822F0CE
:102CC00001021A601A6842F400421A601A6822F47B
:102CD00000421A6002F0E8FC63684F498B424FD80B
:102CE0004E4A90427CD94E4D5A00A5FB0035431EFA
:102CF000B3FBF2F32268506820F03F0040EA9540B1
:102D00005060A90C01F1010C116A21F03F0141EA68
:102D10000C011162D16940F6FC7E013321F44F4170
:102D200013EA0E0F21F0FF0161D104230B43D3619D
:102D3000D4E907301168034321F0C0010B4313604D
:102D40009168D4E9030321F40341034321F0FF0117
:102D50000B439360D4E90530D168034321F0FF01B0
:102D60000B43D3601168002341F001012020116062
:102D7000236484F83D00236384F83E30184670BD18
:102D8000284A90422CD9264D274EA5FB002C2268BC
:102D9000556825F03F0545EA9C4555604FEA9C4142
:102DA0004FF4967505FB01F1A6FB0151156A8909DF
:102DB00025F03F05013129431162D169A56821F44D
:102DC0004F4121F0FF01ADB9013803EB4303B0FBE4
:102DD000F3F30133C3F30B03D3B143F40043A5E78B
:102DE000012070BD80F83C20FEF7CAFB62E7C3F308
:102DF0000B039BE703EB8303013803EB8303B0FB77
:102E0000F3F30133C3F30B0313B143F440438DE7F2
:102E100001238BE701207047A08601007F841E00FC
:102E200083DE1B43FF083D00D34D62102DE9F04FB8
:102E3000044683B09946BDF834A00E9E0F469046D6
:102E4000FFF792F994F83D30202B04D00227384642
:102E500003B0BDE8F08F054605E0FFF785F9401B9C
:102E6000192800F2AA80206883696FEA030C1CF01D
:102E7000020BF2D094F83C30012BE7D0012384F808
:102E80003C300368DB0771D53946076827F40067D3
:102E900007600C9860622120CDE9006584F83D0050
:102EA000402084F83E0000202064A4F82AA0608D11
:102EB00020855748E0624B4642462046FFF7A4FC77
:102EC0000746F8B9238D002B00F0A0802368721C00
:102ED00058D15A6910061AD45A695105F9D50022F9
:102EE0006FF4806020215861226384F83D1084F8DB
:102EF0003E20236C84F83C2043F004032364236CBD
:102F0000042B38D00127384603B0BDE8F08FD4F841
:102F100024C0B4F828E061460EF1FF3011F8012B0F
:102F20001A61628D6162013A92B2628582B2586919
:102F30002285400717D542B9721C59D15A695007EA
:102F400049D45A695105F9D5C9E79CF801101961AE
:102F50000CF102016162618DAEF10202013992B29F
:102F600089B222856185002AB1D1E5E7036843F083
:102F70000103036088E72268136843F400730127A4
:102F8000136064E75A691206C1D45A695105A6D480
:102F9000FFF7EAF8401B864201D3002E96D10022AB
:102FA0002023226384F83D3084F83E20236C84F88B
:102FB0003C2043F020032364A1E72023C4F830B071
:102FC00084F83D3084F83EB0236C84F83CB043F084
:102FD000200323643AE71A68002142F4007220209B
:102FE0001A6084F83D0084F83C1084F83E102EE707
:102FF0005A695207EFD45A6951053FF570AFFFF790
:10300000B3F8401B8642CAD3002EC8D0236893E78A
:103010000000FFFF2DE9F04F044687B09946BDF848
:1030200044A0129D0F469046FFF79EF894F83D305D
:10303000202B04D00227384607B0BDE8F08F0646A3
:1030400005E0FFF791F8801B192800F2D280D4F830
:1030500000C0DCF81800C04310F0020BF1D094F867
:103060003C30012BE6D0012384F83C30DCF8003002
:10307000D90737D5DCF8000020F40060CCF8000058
:10308000109860622220CDE9005684F83D0040206F
:1030900084F83E0000202064A4F82AA0608D2085DA
:1030A0009348E06239464B4642462046FFF7A2FC71
:1030B0000746002840F0AB80228DD2B923680290E9
:1030C0005A6902929A690292029A1A6842F400724C
:1030D0001A600023202284F83D2084F83C3084F8D4
:1030E0003E30A8E7DCF8003043F00103CCF80030B4
:1030F000C0E7012A00F02C81022A00F0BD8023687D
:10310000059059690591996905910599032A49D84E
:10311000012A00F0EB80022A00F08980691C40F04F
:10312000BB805A695207FCD51A68616A22F4806232
:103130001A601B690B70638D616A228D013B01313E
:10314000013A9BB2616222856385691C226840F066
:10315000AF8053695B07FCD51368616A43F4007361
:10316000136013690B70638D228D606A2168013BC7
:103170009BB263850969531E00F1010C2385C4F8D5
:1031800024C04170228D638D616A013A013B013197
:1031900092B29BB2616222856385002A99D0032A8C
:1031A0002368B5D95DB9C5E05A69D00600F1B2808F
:1031B000FEF7DAFF801B8542C0F0868023685A69DB
:1031C0005206F1D5626A1B691370638D2068228DE7
:1031D000616A013B9BB263854369013A92B201F196
:1031E000010C5B072285C4F824C0D6D503694B7057
:1031F00036E02023C4F830B084F83D3084F83EB087
:10320000236C84F83CB043F02003236412E70127C9
:10321000384607B0BDE8F08F5A6950070CD4FEF766
:10322000A3FF801B85424FD3002D4DD02368691C1E
:10323000F2D15A695207FCD51A6842F400721A603A
:103240001A69636A1A70638D626A013B9BB2638577
:10325000238D013B23852368511C1B6961625370D8
:10326000636A228D01336362638D013A013B92B23E
:103270009BB22285638590E72368196821F48061F9
:103280001960196841F4006119600490596904914A
:1032900099690491049939E75A6950073FF544AF99
:1032A000FEF762FF801B85420ED36DB1236835E7C0
:1032B000536958073FF550AFFEF756FF801B854214
:1032C00002D3002D7FF441AF00222023226384F833
:1032D0003D3084F83E20236C84F83C20012743F0E5
:1032E00020033846236407B0BDE8F08F5DB92BE0BA
:1032F0000000FFFF5A69D2060CD4FEF735FF801B91
:103300008542E1D323685A695106F3D51A69636A85
:103310001A70A5E700226FF0100020215861226387
:1033200084F83D1084F83E20236C236484F83C200C
:10333000012780E65A6952063FF544AF5A69D10623
:10334000E8D4FEF711FFBFE75A695006F6D5DDE76E
:103350002368196821F48061196003905969039109
:10336000996903910399196841F400711960CDE6D8
:10337000704700BF704700BF704700BF704700BF75
:10338000704700BF704700BF704700BF90F83D20F6
:10339000016D034659B9C26C0168012A826C0DD0D7
:1033A000C2F307220A61026D013202657047016DA6
:1033B000012909D0016D02290ED07047D2B20A61ED
:1033C000026D023202657047826C0168D2B20A61F6
:1033D000026D013202657047D2B2222A1FD0418DA0
:1033E00089B2C1B9418D89B20029E6D1212AE4D13F
:1033F000026810B5546824F4E0645460146844F41E
:10340000007414602022016380F83D2080F83E1093
:10341000FFF7BAFF10BD212A0AD05B8D7047016803
:103420000A6842F480720A60026D013202657047D8
:10343000416A026811F8010B10615A8D5962013A14
:1034400092B25A85704700BF704700BF704700BFF7
:10345000704700BF70B53A4B3A491B68806B82B029
:10346000DB080022A1FB031301921B0A90F83D1018
:10347000026803EB8303C3EBC303C9B2019305E006
:10348000019B013B019313689B0506D5019B002B13
:10349000F6D1036C43F020030364446B4CB3836B9D
:1034A0000025E563F3B11668DD6326F480661660D7
:1034B0004585256500241C65136823F0010313600E
:1034C00090F83D30602B2AD001F02801282919D02E
:1034D0002022002380F83D2080F83E30FFF7B6FF21
:1034E00002B070BD156825F48065156043852365BD
:1034F000E2E7836BF3B11568DC6325F48065156042
:103500004485D7E7136843F0010313601368002470
:1035100043F480631360046380F83D10DEE700230A
:10352000202280F83D2080F83E300364FFF790FFB2
:1035300002B070BD146824F4806414604385BBE756
:10354000880A002089B5F81410B590F83D2090F84D
:103550003E30102B0446D2B239D0D9B2402936D0F1
:1035600002F0280128293DD023685968080507D4AE
:10357000602A05D02021002284F83D1084F83E20E6
:10358000002222635A6812F4006234D194F83D108C
:10359000602975D05A69500605D5626A1B69137097
:1035A000636A013363622046FFF750FF236C1907FB
:1035B00004D02268536823F4E063536094F83D30EC
:1035C000226C5207DBB201D5282B2FD010BD222A46
:1035D000C6D123681A6822F400621A605A6812057C
:1035E000C8D5CDE700232363236884F83D105A68CB
:1035F00012F40062CAD05A68606B22F400625A600A
:1036000090F83530012B1ED0284B0365FEF7FAFEEB
:103610000028CBD02268606B1368202123F00103BF
:10362000136084F83D10036D9847BFE700232049DD
:10363000E16220222363204684F83D2084F83E3056
:10364000FFF7A0FE10BDA06B184B0365FEF7DAFE76
:103650000028ABD023685A69510606D5626A1B69F7
:103660001370626A2368013262621A68A06B22F0EA
:10367000010220211A6084F83D10036D984795E7F8
:10368000202184F83D1022645A69520606D5626AE8
:103690001B691370626A2368013262621A6822F041
:1036A000010220461A60FFF7D3FE7FE75534000879
:1036B0000000FFFF70B5036804465868E56A94F897
:1036C0003E1094F83D2010298EB0D2B25FFA81FCF2
:1036D00024D0BCF1400F21D0216C002900F096804D
:1036E0005969002511F0020FC1F3400659D0860533
:1036F00059D5226C02B19D6994F83D2002F0280250
:10370000282A00F01F8200220C9259690C919B69B3
:103710000C930C9B84F83C200EB070BD9E695969D7
:1037200011F0010F1AD1B5F52A0FF5D0B5F12A4FD6
:10373000F2D00D076DD5850540F18380626C616B19
:10374000D2B21A61002900F0E481CA6B002A00F0AD
:10375000E0815A6842F400625A60DDE785056ED563
:10376000E26AB2F52A0F00F0EA81E26AB2F12A4F6A
:1037700004BF0822E26294F83E20402A00F0D8817B
:103780002269B2F5804F00F0B381226D002A40F02B
:10379000EF81626CD21102F0060242F0F0021A616F
:1037A000BAE7CD067CD402F0F702212A00F0F580BA
:1037B0004E0640F13281450540F12F81490700F165
:1037C0002F8194F83D10628D92B2C9B2002AA3D025
:1037D000626A1B691370638D626A013B9BB26385E9
:1037E000638D01329BB26262002B95D12A2993D15D
:1037F000226853682225282123F4806353602046E1
:10380000256384F83D10FFF7B9FD85E79D69596987
:1038100068E78D0715D5850513D594F83E20E06A35
:10382000256B94F83D102229D2B200F0B38100221A
:103830000A925A690A929B690A930A9B6CE70D07E0
:10384000E7D5750740F1F5805D682E053FF564AF5B
:103850000D0640F11581460540F112814D0700F13A
:10386000128194F83D20208D94F83E10E56AD2B282
:10387000C9B2002840F03B82212A00F04183402950
:103880007FF44AAF222A7FF447AF628D92B2002ABA
:1038900000F0708294F83E20402A40F0B480FCE0B2
:1038A000850580D594F83D505A6822F4E0625A604C
:1038B0000D965A690D921A6842F001021A600D9A2B
:1038C0001A6822F480621A605A681105EDB221D597
:1038D00005F0F702222A00F07A81606B02685268D4
:1038E00092B26285628D92B21AB1226C42F00402E9
:1038F00022645A6822F400625A60FEF785FE0128AD
:1039000008D0606B994B0365FEF77CFD10B1606BCE
:10391000036D9847638D9BB213B323685A695207AE
:103920000AD5626A1B691370628D636A013A591C79
:1039300092B22368616262855A69560609D5626A45
:103940001B691370638D626A013B01329BB2626234
:103950006385638D9BB21BB1236C43F00403236426
:10396000236C002B40F0DE802A2D00F0518194F86A
:103970003D30282B00F05481236B222B02D0222DC6
:103980007FF4CAAE002320222363204684F83D2022
:1039900084F83E30FFF7F2FCBEE60D0628D546055A
:1039A00026D54D0727D494F83D00618D89B2C0B269
:1039B00000293FF4B1AE616A11F8015B1D616162DB
:1039C000618D013989B26185618D89B200297FF4E9
:1039D000A3AE29287FF4A0AE5968282521F4806180
:1039E00059602046226384F83D50FFF7C5FC93E6FA
:1039F00049077FF591AE82057FF58EAE628D92B25A
:103A0000002A3FF489AE626A12F8011B1961638DC6
:103A10006262013B9BB263857EE64A077FF57CAE1E
:103A200086057FF579AE628D92B2002A3FF474AEBE
:103A30001BE05A6815053FF56FAE4A0633D44907B7
:103A40007FF56AAE82057FF567AEE16A628D92B25C
:103A5000042A00F01981628D92B2032A00F0598184
:103A6000628D92B2022A00F08A81626A1B69137029
:103A7000638D626A013B01329BB2626263854BE6F1
:103A800049077FF549AE86057FF546AE212A00F04D
:103A90000381BCF1400F7FF43FAE20460EB0BDE87D
:103AA0007040FFF773BC4605C9D54D07C1F38002CE
:103AB000C8D494F83D1022297FF42EAE618D89B2CE
:103AC000032940F2CC81626A1B691370638D626ABC
:103AD000013B9BB26385638D9BB20132032B626213
:103AE0007FF41AAE2268536823F48063536013E6B0
:103AF00094F83D20212A626C16BF42F0010202F0C8
:103B0000FE02D2B21A61626B1AB1D26B002A7FF444
:103B100020AEA26B002A3FF4FFADD26B002A7FF4E7
:103B200018AEF9E520460EB0BDE87040FFF70CBDB9
:103B3000226D4ABB626C02F0FE021A61ECE50122C2
:103B4000E26218E65A6822F480625A602E066FEA32
:103B500095014FF0000354BFA289228B84F83C30BA
:103B600001F001012046FFF70BFCD5E555340008B4
:103B7000226D012A7FF4D0AD626CD21102F00602F0
:103B800042F0F1021A61C7E5626C42F00102D2B262
:103B90001A61C1E5216D11B9402A00F0A180226DA2
:103BA00022B92169B1F5404F00F0A580628D92B233
:103BB000002A42D103925A6903929A690392039AA6
:103BC0001A6842F400721A6000232365A4E5A06B12
:103BD0000268526892B26285628D92B21AB1226C0A
:103BE00042F0040222645A6822F400625A60FEF72E
:103BF0000BFD01283FF48EAEA06BA14B0365FEF7D1
:103C000001FC00283FF486AEA06B036D984781E667
:103C100028222363204684F83D20FFF7AFFBA6E669
:103C200000239849E16220222363204684F83D2046
:103C300084F83E30FFF7A6FB6EE5628D92B2012A52
:103C400076D0628D92B2022A00F0EB801A6842F4BC
:103C500080621A605A6812050ED510F5803F07D0B1
:103C600001381F2808D8884A22FA00F0C60703D571
:103C70005A6842F480525A60002209925A690992A5
:103C80009B690993099B9FE75A68616A22F48062E5
:103C90005A601B690B70EBE6E16A94F83D20212A1B
:103CA0007FF43AAD628D92B2002A7FF4ACAE08295F
:103CB00000F09F80202900F09C8011F5803F00F0EB
:103CC0009880596821F4E061596011202023206315
:103CD00084F83E20204684F83D30FFF749FB1BE581
:103CE00001915A6901929B690193019B14E5212A74
:103CF0003FF4CBADC3E502925A6902929A690292EF
:103D0000029A1A6842F480721A60236D01332365A7
:103D100002E55A68042922F480625A603FF4A5AE95
:103D200002293FF4A2AE1A6822F480621A609CE66F
:103D300010F5803F00F00381082800F0D180202892
:103D400000F0CE80122D00F03D81102800F23C8161
:103D50004E4A22FA00F0C10740F136811A6842F457
:103D600080621A60002206925A6906929B69069345
:103D7000069B29E75A6822F480625A60CCE4012944
:103D80001A6800F0D880102900F0D580042900F0CE
:103D90000A81022900F0078142F400721A60626A07
:103DA0001B691370638D626A2168013B9BB2638556
:103DB0000B69511C61625370638D2168626A013B1B
:103DC0009BB263854B68013223F44073202062620A
:103DD0004B6084F83D0094F83E30402B00F0C380E7
:103DE0000022122384F83E2020462363FFF7C2FA04
:103DF00092E4596821F4E06159601968002220209A
:103E000041F400711960226384F83D0094F83E305B
:103E100084F83E20402B20467FF45FAFFFF7B4FAD2
:103E20007AE4102840F2A8801A6822F480621A60AE
:103E30001A6842F400621A605A68160507D510F530
:103E4000803F40F0A6805A6842F480525A600022B7
:103E500008925A6908929B690893089BB4E6E06A45
:103E6000022887D0012985D809490B92096846F2B2
:103E7000A810B1FBF0F101EB81010B910FE000BF45
:103E8000553400080000FFFF81800080140001000D
:103E9000880A00201A6812F4007200F09A800B9AC7
:103EA000013A0B920B990029F4D1226C606A42F01E
:103EB000200222645A6822F4E0625A601B6903708F
:103EC000638D626A013B01329BB22020638562628E
:103ED00084F83D00204684F83E10FFF7B7FA1BE453
:103EE0001A68002122F480621A6007915A690792C9
:103EF0009A690792079A1A6842F400721A6063E698
:103F0000082D3FF476AF202D3FF473AF15F5803FB9
:103F10003FF46FAF5A6822F4E0625A60112000212A
:103F20002023206384F83E10204684F83D30FFF7BC
:103F30001FFAFFF7F1BB22F480621A602FE71A68BC
:103F400022F480621A605A6812F400622FD01A6854
:103F5000002122F480621A6004915A6904929B69DC
:103F60000493049B30E6002384F83E30204623630C
:103F7000FFF76AFAFFF7D0BB274AC240D2077FF5A6
:103F800053AF1A6842F480621A605A6815057FF5CB
:103F90005EAF01381F283FF65AAF204AC240D10712
:103FA0007FF555AF4FE742F480621A60F7E605925D
:103FB0005A6905929A690592059A1A6842F4007244
:103FC0001A6001E601288BD11A6822F480621A6017
:103FD000C8E61968606A21F480611960596821F4A3
:103FE000E06159601B690370638D013B20219BB226
:103FF000638584F83D10636A94F83E1001334029CC
:1040000063627FF4EEAE84F83E2020462263FFF721
:104010001BFAFFF781BB00BF140001008180008004
:1040200030B503685C695A6890F83E10E50583B0C6
:104030005FFA81FC33D5D1054FEA122E2FD56FF4EC
:1040400080725A61A2053CD4620572D50121428D6D
:1040500090F83DE0056BBCF1200F92B25FFA8EFE46
:104060003DD06FF48062BCF1100F41F004015A6141
:1040700002D0BCF1400F03D11A6842F400721A60FA
:10408000220504D56FF4006241F008015A61036C07
:104090001943016403B0BDE83040FFF755BAA505E8
:1040A00003D5D1054FEA122E17D46505C4F380213C
:1040B00003D4240534D403B030BDD105FBD5002191
:1040C000C5E703216FF400725A616205BFD424056D
:1040D000DDD51EF0010FD5D1D9E70221F2E7CAB92B
:1040E0000EF0F702212A04D0BEF1280F12D1212DA3
:1040F00010D190F83D20C56A082DD2B21ED0202DD7
:104100001CD0212A37D06FF480625A6125050CD566
:104110000368B7E76FF480625A6141F00401AFE7CA
:104120004FEA122E1EF0010FACD10029AFD103B01F
:1041300030BD25054FF00101F4D4A8E7282AE0D1CD
:104140001A4AC2625A68019122F4E0625A606FF41E
:1041500080625A611A68009022F480621A6000231B
:104160002022036380F83D2080F83E30FFF70AF9F3
:10417000DDE90001CAE70D4DC5620263202280F827
:104180003D20002280F83E205A68019122F4E0622E
:104190005A606FF480625A611A68009022F480625B
:1041A0001A60FFF7E9F8DDE90001AFE70000FFFF63
:1041B000F0B58BB0002800F0858090F8BD3404681D
:1041C000054603F0FF02002B76D02046032385F836
:1041D000BD34E36B2E4613F4807308BF2B6102F0ED
:1041E000F7F856F810EBB446BCE80F006C460FC465
:1041F000BCE80F000FC49CE8030084E803002F1DF7
:1042000097E80E00704601F0DFFF044630B101244C
:104210000223204685F8BD340BB0F0BD0146286866
:1042200002F0DEF8686858B322464FF0010E2146CE
:1042300002EBC20305EB830302F1010C83F83C207F
:10424000A3F844205FFA8CF28242C3E9121183F88A
:104250003DE083F840105965EAD3002204EBC40323
:1042600005EB8303611C83F87C42CCB28442C3E932
:10427000A22283F87D2283F88022C3F89422EDD312
:104280000FCE6C460FC40FCE0FC496E8030084E82F
:10429000030097E80E00286802F0DAF804460028C8
:1042A000B5D1012385F83800286885F8BD3402F0BF
:1042B00081FD20460BB0F0BD80F8BC24FDF7C2FEA6
:1042C000286883E7012420460BB0F0BD10B590F8B4
:1042D000BC34012B0446006816D0A36A0122934225
:1042E00084F8BC2408D002F06BF8206802F052FD7C
:1042F000002084F8BC0410BDA3699342F3D0836B03
:1043000043F480338363EEE7022010BD2DE9F04FC4
:10431000056889B00446284602F08AFD10B109B04C
:10432000BDE8F08F8346206802F054FD0028F6D0E7
:10433000D5F808382068C3F30D23C4F8FC3402F024
:1043400049FD10F0020F206805F5006303931EBFBE
:10435000436903F00203436102F03CFD10F0100FCB
:10436000206812D0836923F0100383612E6AC6F39C
:104370004343022B06F00F0700F0CB83062B00F01F
:104380000783836943F01003836102F023FD070371
:1043900000F16982206802F01DFD460300F11182E0
:1043A000206802F017FD0028C0F28281206802F028
:1043B00011FD070500F13D81206802F00BFDC004EE
:1043C00000F1A081206802F005FD10F4005F206874
:1043D00040F0818102F0FEFC010700F1E9812068D4
:1043E00002F0F8FC020671D5AA69636822F0800227
:1043F000012BAA616AD994F8A322012A00F0EA836A
:10440000022B63D994F8C722012A00F0FE83032B04
:104410005CD994F8EB22012A00F0B382042B55D921
:1044200094F80F23012A00F0C682052B4ED994F888
:104430003323012A00F02684062B47D994F857230A
:10444000012A00F03384072B40D994F87B23012AFA
:1044500000F04A84082B39D994F89F23012A00F0F0
:104460005784092B32D994F8C323012A00F06484BD
:104470000A2B2BD994F8E723012A00F071840B2B27
:1044800024D994F80B24012A00F07E840C2B1DD92A
:1044900094F82F24012A00F07F840D2B16D994F86C
:1044A0005324012A00F09F840E2B0FD994F877240F
:1044B000012A00F0A6840F2B08D994F89B34012B15
:1044C00004D1206804F5936102F078FB206802F0C3
:1044D00081FCC30240F1AB806368012B40F289800C
:1044E00094F86420D5F82019012A00F01382022BD9
:1044F0007FD994F88820D5F84019012A00F01D8250
:10450000032B76D994F8AC20D5F86019012A00F075
:104510002082042B6DD994F8D020D5F88019012A77
:1045200000F02382052B64D994F8F420D5F8A01963
:10453000012A00F04383062B5BD994F81821D5F8A3
:10454000C019012A00F05583072B52D994F83C2159
:10455000D5F8E019012A00F06083082B49D994F8B6
:104560006021D5F8001A012A00F06383092B40D995
:1045700094F88421D5F8201A012A00F06E830A2BC2
:1045800037D994F8A821D5F8401A012A00F082837F
:104590000B2B2ED994F8CC21D5F8601A012A00F003
:1045A00097830C2B25D994F8F021D5F8801A012A8D
:1045B00000F0A2830D2B1CD994F81422D5F8A01A70
:1045C000012A00F0AD830E2B13D994F83822D5F8C8
:1045D000C01A012A00F0B8830F2B0AD994F85C2284
:1045E000D5F8E01A012A00F0C383102B01D9D5F8C1
:1045F000003B2068436903F48013436102F0EAFB47
:10460000870221D4206802F0E5FB400000F1C7805A
:10461000206802F0DFFB41077FF581AE23685D680B
:104620006A0700F197825A682A435A6077E6206841
:10463000E4E7039B9B68DE0700F1888220684369FA
:1046400003F400634361B8E6D4F804C0BCF1010F81
:1046500028D905F532622346012106E00131614582
:1046600002F1200203F124031CD093F8A40216687F
:104670000128F3D1002EF1DAD4F8FC7406F4803668
:1046800007F00107BE42E9D183F8A302A86940F010
:104690008000A86168690606E0D4039A536843F471
:1046A000007353602068436903F400134361AAE771
:1046B000039A536823F00103536094F8F434012BF8
:1046C00000F03481204603F02FFF2068436903F097
:1046D000004343616BE602F0AFFB206801F0FCFF92
:1046E000E060266800F0DAFF227B0146304601F0E8
:1046F000EDFD204603F0EAFE2068436903F4005311
:10470000436167E6039A2068536823F0010353600E
:10471000102101F0B7FF6068E0B105F510634FF6B6
:104720007F3199601A6822F400121A60C3F80812E7
:10473000D3F8002222F40012C3F80022D3F800229A
:104740000BF1010B42F000628345C3F8002203F134
:104750002003E6D10399226BCB6943F00113CB61AF
:10476000002A40F0CC804B6943F4005343F02B0304
:104770004B610B6943F00B030B61D5F80038217CCA
:10478000206823F4FE63C5F8003804F2C44202F046
:1047900065FB2068436903F48053436113E62046B8
:1047A00003F0CEFE2068436903F08043436130E7A5
:1047B000204603F087FE2068436903F00803436145
:1047C0000EE6206802F012FB804600283FF4E8ADB8
:1047D0004FF0000A20680495274605F510695646F3
:1047E000CDF814B009E05FEA580806F1010607F1B8
:1047F000240709F1200900F0E58018F0010FF2D03C
:104800005FFA86FA514602F003FBC207054613D54C
:10481000039901204B6B06F00F0200FA02F223EA23
:1048200002034B632169C9F80800814200F09781B7
:104830005146204603F03CFE2B0744BF0823C9F82D
:104840000830E80644BF1023C9F80830690644BFA1
:104850004023C9F80830AA0700F14E812B0600F169
:10486000F5802068BFE7206802F0B8FA0646002805
:104870003FF490AD05F53067A2464FF00009CDF842
:1048800010B008E0760809F1010907F120070AF1E4
:10489000240A00F09A80F007F4D55FFA89FB2068BB
:1048A000594602F0ABFA10F0010F804640F0AF809D
:1048B00018F0080F40F08C8018F0100F1CBF102269
:1048C000BA6018F0020F0ED06A69110604D5039B76
:1048D0005A6842F480625A609AF87F22012A00F0F6
:1048E00080810223BB6018F0200F1CBF2023BB6017
:1048F00018F4005F1CBF4FF40053BB60C2E7D1F84F
:10490000843043F00B03C1F884304B6C43F00B034D
:104910004B6432E70029BFF6EAAD214684F86320F4
:1049200051F8600B02F04AF96368E0E5002184F871
:10493000F414204600F0FAFBC7E60029BFF6E0AD0C
:10494000214684F8872051F8840B02F037F9636818
:10495000D6E50029BFF6DDAD214684F8AB2051F83D
:10496000A80B02F02BF96368D3E50029BFF6DAAD96
:10497000214684F8CF2051F8CC0B02F01FF9636870
:10498000D0E5206804F53A7102F018F9636845E54E
:10499000082204F2C441284607EBC70702F068F971
:1049A00004EB8702C6F30A13D2F89C1220680B446A
:1049B000C2F89C32E5E4206804F5437102F0FEF889
:1049C000636832E5DDE9045BEBE4DDF810B0E1E4B7
:1049D0002168BD4B0822BA6001F53062096C02EB18
:1049E00049129942906840F2CB80000402D54FF4FE
:1049F00000419160204603F04BFD216901297FF4BD
:104A00005BAF206804F2C44202F028FA54E7206841
:104A100021690122BA6000F5306202EB49120129D6
:104A2000D0F840C0936800F0AF80A8498C4500F0F2
:104A30000C81B9F1000F04D1D4F89422002A00F0BF
:104A4000DA815946204603F029FD31E7FB6D7D6D83
:104A5000D4F800B0AB4258463FF6C5AE0BF5106235
:104A600002EB461211469646BA6C8969CDF81CB025
:104A7000A5EB030C624528BF624689B20332B1EB55
:104A8000920FC0F0978052460696CA462646C14607
:104A90007446904619E0ED1ABB6CF96C9D4228BF34
:104AA0001D46337C00934246ABB2584602F0CAF82A
:104AB000FB6CA1692B44FB64FB6D89B22B4403356D
:104AC000B1EB950FFB656DD37D6D9D42E3D8344608
:104AD000069ED4F800B0C846D146079B06F00F02E8
:104AE00003F500610125D3F8343805FA02F223EA10
:104AF000020358464B6376E60498314601F0C2FD46
:104B000097F83F30012B00F0B4800223C9F8083039
:104B1000A4E647F6F0731E423FF433AC07EBC70739
:104B200004EB8707C6F30A12D7F88C1228461646FC
:104B300002F09EF8D7F88C3220683344C7F88C32E4
:104B4000D7F89C323344C7F89C321AE4204603F06D
:104B5000D3FC73E5204603F0F7FC236863E5D7E94F
:104B600012231344FB64002E7FF462AE636D002BAE
:104B70007FF45EAE206804F2C44202F06FF957E69B
:104B8000204603F085FC97E6190740F197804E49CF
:104B90008C457FF68DAE18047FF58AAE4FF4004148
:104BA000916085E634467D6DD4F800B0069EC84617
:104BB0005846D146AB42FFF416AE8EE70029BFF649
:104BC000BAAC214684F8F32051F8F00B01F0F6FF5F
:104BD0006368B0E4206804F5287101F0EFFF6368B2
:104BE0000EE4002359468AF87F32204603F0A0FCE9
:104BF00077E60029BFF6A8AC206884F8172104F5F1
:104C00008A7101F0DBFF63689EE4206804F531716E
:104C100001F0D4FF6368FFF7FABB0029BFF69DAC33
:104C2000206884F83B2104F59C7101F0C7FF63689C
:104C300093E40029BFF69AAC206884F85F2104F55C
:104C4000AE7101F0BBFF636890E41904A6D49B0623
:104C50007FF5F7AE20219160F3E60029BFF68FAC17
:104C6000206884F8832104F5C07101F0A7FF636810
:104C700085E44FF0000387F83F305146204603F0AB
:104C80005BFC42E7206804F54C7101F097FF636814
:104C9000FFF7D2BB0029BFF67BAC206884F8A721C0
:104CA00004F5D27101F08AFF636871E4206804F5AD
:104CB000557101F083FF6368FFF7C5BB990673D593
:104CC00020219160F4E500BF0A30544F0A31544F5F
:104CD0000029BFF666AC206884F8CB2104F5E471A6
:104CE00001F06CFF63685CE4206804F55E7101F01C
:104CF00065FF6368FFF7AEBB0029BFF65BAC2068B9
:104D000084F8EF2104F5F67101F058FF636851E46F
:104D1000206804F5677101F051FF6368FFF7A1BBDC
:104D20000029BFF650AC206884F8132204F5047102
:104D300001F044FF636846E4206804F5707101F0F7
:104D40003DFF6368FFF794BB0029BFF645AC2068C0
:104D500084F8372204F50D7101F030FF63683BE4FD
:104D6000206804F5797101F029FF6368FFF787BBBC
:104D70000029BFF63AAC206884F85B2204F516716E
:104D800001F01CFF636830E4206804F5816101F0E4
:104D900015FF6368FFF77ABB206804F22C4101F02D
:104DA0000DFF6368FFF779BB13F0280F7FF480AD28
:104DB0001B498C4502D91B043FF5F0AE1169DAF8A6
:104DC0009822C1F31201521ACAF89C22B9F1000FBD
:104DD0007FF437AED4F89412D9B1D4F88C120A44C7
:104DE000C4F88C222DE6206804F58A6101F0E6FE05
:104DF0006368FFF759BB04F2C442494602F02EF83B
:104E00001FE6206804F2744101F0D8FE6368FFF7E2
:104E100052BB04F2C442012102F020F811E600BFA7
:104E20000A30544F90F8BC24012A0DD010B5044626
:104E30000122006884F8BC2484F8381001F09AFF3D
:104E4000002084F8BC0410BD0220704710B501F0AA
:104E50000F0E0906044627D44FF0240C0CFB0E0C51
:104E60000CF51F710EEBCE0C00EB8C0C00208CF8B7
:104E70007D02CA604A7881F800E00B710AB1A1F89E
:104E800008E0022B04BF00234B7194F8BC34012BC3
:104E900018D0012384F8BC34206801F029FC0023D9
:104EA00084F8BC34184610BD242000FB0E4000F1ED
:104EB0003C010EEBCE0004EB80004FF0010C80F8BB
:104EC0003DC0D6E7022010BD01F00F0303EBC30283
:104ED00011F0800F4FF0240110B500EB8202044660
:104EE00001FB030113D101F51F71002082F87D023F
:104EF0000B7094F8BC34012B12D00123206884F885
:104F0000BC3401F041FC002084F8BC0410BD3C31ED
:104F1000012082F83D000B7094F8BC34012BECD1D9
:104F2000022010BD10B501F00F0404EBC40C00EB1F
:104F30008C0C2421CCF894320023CCF88C228CF8F1
:104F40007C42CCF89C328CF87D32036901FB040171
:104F5000012B08BFCCF89022006801F51F71DAB26E
:104F60001CB901F07FFD002010BD01F06FFC002096
:104F700010BD00BF01F00F0101EBC10100EB810189
:104F8000D1F89C02704700BF10B501F00F0404EB8C
:104F9000C40C00EB8C0C2421CCF854300023CCF84A
:104FA0005C300123CCF84C208CF83C408CF83D3030
:104FB000036901FB0401012B08BFCCF850200068F5
:104FC0003C31DAB21CB901F04DFD002010BD01F0FA
:104FD0003DFC002010BD00BF38B5436801F00F054F
:104FE0009D4233D80B0604461CD401EBC103242296
:104FF00002FB010100EB830301F51F71002283F81E
:105000007D2201238B700D7094F8BC249A421BD032
:10501000206884F8BC3401F053FECDB1002084F840
:10502000BC0438BD05EBC503242101FB050100EBE1
:10503000830301223C3183F83D2001238B700D70E6
:1050400094F8BC249A42E3D1022038BD012038BD37
:10505000217C206804F2C44201F000FFDEE700BFBB
:10506000426838B501F00F0393422ED803EBC30218
:1050700011F0800F4FF02401044600EB820201FB87
:10508000030115D101F51F710020002582F87D0272
:105090008D700B7094F8BC34012B14D00123206860
:1050A00084F8BC3401F03AFE84F8BC54284638BD7C
:1050B0003C310120002582F83D008D700B7094F882
:1050C000BC34012BEAD1022038BD012038BD00BF1D
:1050D00010B40468606A31B940EA0240A06200205E
:1050E0005DF8044B7047A36AB1F1010C00EB13406B
:1050F0000BD0002303F1400104EB81010133496827
:10510000DBB2634500EB1140F4D30CF1400C04EB2F
:105110008C0C40EA0240CCF804005DF8044B0020FF
:10512000704700BF0368002059627047704700BF96
:10513000002800F0A2812DE9F0410368DD0782B06C
:1051400004462FD59E498A6802F00C02042A00F01A
:10515000ED808A6802F00C02082A00F0E3806368A0
:10516000B3F5803F00F0EC80B3F5A02F00F075811F
:10517000934D2A6822F480322A602A6822F4802221
:105180002A60002B40F0E180FCF7EEFF064605E0C8
:10519000FCF7EAFF801B642800F201812B689B0367
:1051A000F6D423689F0728D5854A916811F00C0F23
:1051B00000F09080916801F00C01082900F08680D1
:1051C000E368002B00F00E817E4B7D4E01221A60B9
:1051D000FCF7CAFF054605E0FCF7C6FF401B0228A6
:1051E00000F2DD8033689807F6D53368226923F032
:1051F000F80343EAC203336023681A0751D45807FF
:105200002FD56F4A136C13F080537FD000256E4E5C
:105210003368D90540F1B380A368012B00F0C38047
:10522000052B00F02C81664E326F22F001023267AE
:10523000326F22F004023267002B40F0B980FCF795
:1052400093FF41F28838074605E0FCF78DFFC01B4D
:10525000404500F2A480336F9807F6D4002D40F04B
:105260000681A069C8B1564DAB6803F00C03082B4A
:1052700000F0C980534B002202281A6600F0098111
:10528000FCF772FF044605E0FCF76EFF001B0228E6
:1052900000F285802B689B01F6D4002002B0BDE8A7
:1052A000F08163690BB3474B454E0122C3F8802E52
:1052B000FCF75AFF054604E0FCF756FF401B0228A6
:1052C0006DD8736F9B07F7D5236898E7526856022D
:1052D0003FF576AF3A4A1268950744D5E268012A4D
:1052E00041D0012002B0BDE8F081364A344EC2F808
:1052F000803EFCF739FF054604E0FCF735FF401B14
:1053000002284CD8736F9F07F7D4DDE70193136C25
:1053100043F080531364136C03F080530193019B9B
:10532000012574E74A6850027FF519AF244A1268D4
:1053300091037FF537AF6268002A7FF433AFD0E77F
:105340001F4A136843F480331360FCF70DFF1C4EB3
:10535000054604E0FCF708FF401B64281FD83368AB
:105360009A03F7D51DE7164920690A6822F0F8026A
:1053700042EAC0020A601A077FF541AF91E733683D
:1053800043F480733360FCF7EFFE07463368DA05B9
:105390003FF542AFFCF7E8FEC01B0228F6D9032018
:1053A00002B0BDE8F081064A136F43F001031367B2
:1053B000FCF7DAFE024F064641F288380BE000BFE8
:1053C000003802400000474200700040FCF7CCFE6D
:1053D000801B4045E3D83B6F9B07F7D5002D3FF47A
:1053E00040AF44E0424A434E1360FCF7BDFE054621
:1053F00004E0FCF7B9FE401B0228D0D833689907B7
:10540000F7D42368F9E601283FF448AF6B68E269F6
:1054100003F4800191427FF464AF226A03F03F01FC
:1054200091427FF45EAF616A47F6C0721A40B2EBF8
:10543000811F7FF456AFA26A520803F44031013A4B
:10544000B1EB024F7FF44DAFE26A03F07063B3EB50
:10545000026F14BF0120002020E7264B1A6842F497
:1054600080221A601A6842F480321A606DE7214A7D
:10547000136C23F080531364F3E6012070471D4B37
:105480001A6F42F004021A671A6F42F001021A679B
:105490008EE7FCF769FE064605E0FCF765FE801B1B
:1054A00002283FF67CAF2B689901F6D4D4E9073186
:1054B000626A0B4343EA8213D4E90A21520843EAA1
:1054C0000163013A0A4943EA024301226B600A661A
:1054D000FCF74AFE074D044605E0FCF745FE001BBD
:1054E00002283FF65CAF2B689A01F6D5D5E600BFDF
:1054F0000000474200380240164908B58B6803F0A7
:105500000C03042B1BD0082B17D14A684B68496841
:1055100013F4800302F03F0213D10F48C1F3881146
:10552000A1FB0001FAF7ACFE0A4B5B68C3F3014331
:1055300001335B00B0FBF3F008BD074808BD074826
:1055400008BD0648C1F388110023A1FB0001FAF74A
:1055500097FEE9E7003802400024F40040787D011E
:10556000002800F08780484A136803F007038B4245
:105570002DE9F0410D46044609D2CBB213701368F1
:1055800003F007038B4202D00120BDE8F0812368BD
:10559000980714D5590704D53C498A6842F4E0526B
:1055A0008A601A0704D539498A6842F460428A60E1
:1055B0003649A0688A6822F0F00202438A60DF0759
:1055C00021D56268012A57D0931E012B2F4B1B68EF
:1055D0004DD99907D8D52D4EB36823F00303134353
:1055E000B360FCF7C1FD41F28838074604E0FCF7E0
:1055F000BBFDC01B404544D8B368626803F00C0390
:10560000B3EB820FF3D1204A136803F00703AB42D8
:1056100006D9EBB21370136803F00703AB42B3D1A2
:1056200023685A0706D51949E0688A6822F4E052CF
:1056300002438A601B0707D5144A2169936823F443
:10564000604343EAC1039360FFF756FF0F4A104CD3
:1056500092681049C2F303120346A25C0E48D3407D
:1056600000680B60FCF774F90020BDE8F081980138
:10567000B1D489E701207047044B1B689E03AAD46C
:1056800082E7032081E700BF003C0240003802406F
:10569000F8B10008880A0020900A0020014B186821
:1056A000704700BF880A0020044B05499B68054AE3
:1056B0000868C3F38223D35CD840704700380240A7
:1056C000880A002008B20008044B05499B68054A77
:1056D0000868C3F34233D35CD840704700380240B7
:1056E000880A002008B200080E4B0F2202609A6858
:1056F00002F0030242609A6802F0F00282609A6847
:1057000002F4E052C2609B68DB0810B403F4E0537B
:10571000054C036123685DF8044B03F007030B603D
:10572000704700BF00380240003C0240704700BF95
:10573000002876D010B590F83D30044603F0FF0203
:10574000002B55D022683849022384F83D308A4224
:10575000136852D0B2F1804F21D0A1F57C418A422A
:105760001DD001F580618A4219D001F580618A421D
:1057700015D001F59A318A4215D001F580618A422F
:1057800011D001F580618A420DD0A069E16823F053
:105790008003034313606368D162936210E0A168E1
:1057A00023F070030B432069A16923F44073034382
:1057B00023F08003E0680B4361681360D06291625C
:1057C0000123536184F8463084F83E3084F83F303A
:1057D00084F8403084F8413084F8423084F8433013
:1057E00084F8443084F8453084F83D30002010BD02
:1057F00080F83C20FFF79AFFA4E7A068216923F016
:105800007003034323F440730B43A16923F0800327
:105810000B431360E368D362636893626369136345
:10582000CEE70120704700BF0000014090F83D30F6
:10583000012B27D103681549022280F83D20DA6840
:105840008B4242F00102DA6011D0B3F1804F0ED0EA
:105850000F4A93420BD002F58062934207D002F5C3
:105860008062934203D002F59A32934204D19A683F
:1058700002F00702062A07D01A6842F0010200204F
:105880001A607047012070470020704700000140F7
:1058900000040040002876D010B590F83D30044652
:1058A00003F0FF02002B55D022683849022384F808
:1058B0003D308A42136852D0B2F1804F21D0A1F519
:1058C0007C418A421DD001F580618A4219D001F5E0
:1058D00080618A4215D001F59A318A4215D001F5CE
:1058E00080618A4211D001F580618A420DD0A069A1
:1058F000E16823F08003034313606368D16293621D
:1059000010E0A16823F070030B432069A16923F420
:105910004073034323F08003E0680B436168136026
:10592000D06291620123536184F8463084F83E309E
:1059300084F83F3084F8403084F8413084F84230B5
:1059400084F8433084F8443084F8453084F83D309E
:10595000002010BD80F83C20FCF71AFAA4E7A068EC
:10596000216923F07003034323F440730B43A169BF
:1059700023F080030B431360E368D3626368936290
:1059800063691363CEE70120704700BF0000014048
:1059900099BB90F83E30012B43D1022380F83E3072
:1059A00003680122186A01F01F0102FA01F120EADE
:1059B00001001862186A254A01439342196240D0D7
:1059C000B3F1804F0ED0224A93420BD002F5806291
:1059D000934207D002F58062934203D002F59A32D7
:1059E000934204D19A6802F00702062A27D01A6867
:1059F00042F0010200201A607047042913D00829E0
:105A00000BD090F84130012B0BD104290FD008297D
:105A100011D0022380F84130C2E790F84030012BCA
:105A200009D00120704790F83F30012BF9D10223B3
:105A300080F83F30B4E7022380F84030B0E7002020
:105A400070475A6C42F400425A64CBE700000140B0
:105A50000004004070B505460C46002940F08280E5
:105A600090F83E100229C8B24FD095F83E10A1F12F
:105A70000101B1FA81F14909002949D0002A45D034
:105A8000002C47D1022185F83E10686A744E1146F9
:105A90002A68C663734E0664734EC6643432FCF7DC
:105AA00071FC002834D12B68DA6842F40072DA60A5
:105AB000186A012204F01F0402FA04F420EA040028
:105AC0001862196A694A0C4393421C6200F0C18053
:105AD000B3F1804F0ED0664A93420BD002F580623C
