:020000040800F2
:1000000000000220792000087518000879180008FF
:100010007D180008811800088518000800000000FD
:100020000000000000000000000000003193000804
:100030008918000800000000C19300080D7800082E
:10004000C9200008C9200008C9200008C9200008EC
:10005000C9200008C9200008C9200008C9200008DC
:10006000C9200008C9200008C9200008C9200008CC
:10007000C9200008C9200008C9200008C9200008BC
:100080008D180008C9200008C920000800000000E1
:10009000000000000000000000000000C92000086F
:1000A000C920000899180008C9200008C9200008C4
:1000B000C9200008C9200008C9200008C92000087C
:1000C000C9200008C9200008C9200008C92000086C
:1000D000C9200008A5180008C92000080000000079
:1000E000C9200008C9200008C9200008000000003D
:1000F000000000000000000000000000C92000080F
:1001000000000000C9200008C9200008C92000081C
:1001100000000000000000000000000000000000DF
:10012000C9200008C9200008B1180008C92000082B
:10013000C9200008000000000000000000000000CE
:10014000000000000000000000000000BD180008D2
:10015000C9200008C9200008C9180008C9200008E3
:10016000C9200008C92000080000000000000000AD
:10017000000000000000000000000000000000007F
:1001800000000000C920000800000000000000007E
:08019000C9200008C920000885
:1001A00010B5054C237833B9044B13B10448AFF3B1
:1001B00000800123237010BDE00C0020000000002F
:1001C00058A1000808B5034B1BB103490348AFF31E
:1001D000008008BD00000000E40C002058A10008C9
:1001E000034613F8012B002AFBD1181A0138704777
:1001F00001F0FF01102A2BDB10F0070F08D010F8D8
:10020000013B013A8B422DD010F0070F42B3F6D1DB
:10021000F0B441EA012141EA014122F007047FF0F4
:1002200000070023F0E80256083C85EA010586EA4B
:10023000010685FA47F5A3FA87F586FA47F6A5FA87
:1002400087F68EB9EED1F0BC01F0FF0102F0070293
:1002500032B110F8013B013A83EA010313B1F8D13E
:100260000020704701387047002D06BF354603381F
:10027000073815F0010F07D1013015F4807F02BF58
:10028000013015F4C03F0130F0BC0138704700BFA9
:1002900053B94AB9002908BF00281CBF4FF0FF31ED
:1002A0004FF0FF3000F06AB9ADF1080C6DE904CEF3
:1002B00000F006F8DDF804E0DDE9022304B0704741
:1002C0002DE9F047089D0C46002B4ED194468C45F5
:1002D0008646B2FA82F262D94AB1C2F12003914055
:1002E00020FA03F30CFA02FC194300FA02FE4FEA6B
:1002F0001C471FFA8CF6B1FBF7F44FEA1E4307FBCD
:10030000141143EA014304FB06F199420AD91CEB9C
:10031000030304F1FF3080F01281994240F20F8113
:10032000023C6344591A1FFA8EF3B1FBF7F007FB46
:10033000101143EA014300FB06F69E420AD91CEB6A
:10034000030300F1FF3180F0FC809E4240F2F9800F
:10035000634402389B1B40EA044000211DB1D34096
:100360000022C5E90032BDE8F0878B4205D90DB106
:10037000C5E9000100210846F5E7B3FA83F1002939
:1003800046D1A34202D39042C0F0F080861A64EBBB
:1003900003030120002DE6D0C5E90063E3E7002A4E
:1003A00040F09080A1EB0C044FEA1C481FFA8CF738
:1003B0000121B4FBF8F64FEA1E4308FB164443EA5A
:1003C000044307FB06F0984208D91CEB030306F12F
:1003D000FF3402D2984200F2CD8026461C1A1FFA42
:1003E0008EF3B4FBF8F008FB104443EA044300FB2F
:1003F00007F79F4208D91CEB030300F1FF3402D238
:100400009F4200F2B0802046DB1B40EA0640A5E791
:10041000C1F120068B4022FA06F71F4320FA06FCA2
:1004200004FA01F343EA0C03F44000FA01F8380C33
:100430004FEA1349B4FBF0FE1FFA87FC00FB1E4491
:1004400049EA04440EFB0CF9A14502FA01F20AD96B
:100450003C190EF1FF3A80F08480A14540F2818082
:10046000AEF1020E3C44A4EB09041FFA83F9B4FB7D
:10047000F0F300FB134449EA044403FB0CFCA445DD
:1004800007D93C1903F1FF3067D2A44565D9023B77
:100490003C4443EA0E40A0FB0293A4EB0C049C42B4
:1004A000CE469C4651D34ED055B1B8EB0E0364EB0B
:1004B0000C0404FA06F6CB401E43CC40C5E90064A8
:1004C000002150E7C2F1200320FA03F10CFA02FCEC
:1004D00024FA03F394400C434FEA1C4800FA02FE4E
:1004E0001FFA8CF7B3FBF8F008FB1031230C43EA3A
:1004F000014300FB07F1994208D91CEB030300F10B
:10050000FF362CD299422AD9023863445B1AA4B22E
:10051000B3FBF8F108FB113344EA034401FB07F392
:10052000A34208D91CEB040401F1FF3613D2A34205
:1005300011D902396444E41A41EA004139E704461A
:10054000F0E6084606E7C845AED2B9EB020E63EB0B
:10055000070C0138A8E73146EDE7034699E7304636
:10056000D4E7D6467FE7634402384DE70646234684
:1005700008460FE7023E634430E700BF704700BF04
:100580000F280AD810B400EB4000044C2154211865
:100590004A708B705DF8044B7047704784090020E7
:1005A000654B664966482DE9F04F03F5C06A4FF088
:1005B0005A0B4A780C78825C045D12F0010F0CBF74
:1005C0001E265A2612F0020F14BF5A251E2512F0BD
:1005D000040F14BF4FF05A094FF01E0912F0080F14
:1005E00014BF4FF05A0E4FF01E0E12F0100F14BF32
:1005F0004FF05A0C4FF01E0C12F0200F14BF5A2768
:100600001E2712F0400FC3E9E06514BF5A261E26CC
:10061000D20914BF4FF05A084FF01E0814F0010F12
:100620000CBF1E255A2514F0020FC3E9E29E14BF29
:100630004FF05A0E4FF01E0E14F0040FC3F890C383
:1006400014BF4FF05A0C4FF01E0C14F0080F14BFDB
:100650004FF05A094FF01E098A78C3F8AC9314F092
:10066000100FC3E9E57614BF5A271E2714F0200F98
:10067000825CC3F8B07314BF5A261E2614F0400FD4
:10068000C3E9E78514BF5A251E25E40914BF4FF0BE
:100690005A084FF01E0812F0010F0CBF1E245A24F6
:1006A00012F0020FC3E9E9EC14BF4FF05A0E4FF0FD
:1006B0001E0E12F0040F14BF4FF05A0C4FF01E0C18
:1006C00012F0080F14BF5A271E2712F0100FC3E9AB
:1006D000ED6514BF5A261E2612F0200F14BF5A25AE
:1006E0001E2512F0400FC3E9EF8414BF5A241E24C4
:1006F000D209C3E9F1ECC3E9F376C3E9F55411D1AA
:100700001E22C3F8DC236033534501F103017FF45B
:1007100050AFBDE8F04F084A0A4840F2612300217B
:1007200003F058BEC3F8DCB36033534501F1030155
:100730007FF43FAFEDE700BF0000002084090020F8
:10074000D0A100086813002000B51F481F499FED85
:100750001A7B4FF48032002385B0C0E900120122D9
:10076000CDE90033CDE9023380ED0A7B836003617C
:10077000037680F82030C360C26180F83030426177
:1007800001F0E2FC68B99FED0E7B00230E48029356
:1007900069468DED007B01F083FD28B905B05DF859
:1007A00004FB00F0F9FFEEE700F0F6FF05B05DF89E
:1007B00004FB00BFAFF300800100000F0000000049
:1007C0000100000001000000000D00200020014099
:1007D00010B5204B02688AB000249A42CDE9044447
:1007E000CDE90644089401D00AB010BD03F58C335E
:1007F00001945A6C184842F480725A645A6C02F49C
:1008000080720192019A02941A6B42F001021A63FB
:100810001A6B02F001020292029A03941A6B42F0E0
:1008200002021A631B6B03F00203039304A9FE2266
:100830000323CDE90423039B02F048F8012203239C
:100840000648069404A9CDE9042302F03FF80AB053
:1008500010BD00BF00200140000002400004024023
:1008600010B502210446374802F026F918B923785A
:1008700043F0010323703348042102F01DF918B935
:10088000237843F0020323702E48082102F014F964
:1008900018B9237843F0040323702A48102102F08A
:1008A0000BF918B9237843F0080323702548202159
:1008B00002F002F918B9237843F01003237021489D
:1008C000402102F0F9F818B9237843F0200323708F
:1008D0001C48802102F0F0F818B9237843F0400357
:1008E00023701948012102F0E7F818B9637863F022
:1008F0007F0363701448022102F0DEF818B96378B0
:1009000043F0010363701048042102F0D5F818B9D0
:10091000637843F0020363700B484FF4805102F098
:10092000CBF818B9637843F00403637006484FF4BA
:10093000005102F0C1F818B9637843F008036370FE
:10094000012010BD000002400004024008B502680A
:10095000114B9A4203D0114B01221A7008BD104866
:1009600004F03CF90F490B784A7813430ED0462225
:100970000C490B4804F0C6FC0B4B1A68136823F0B3
:1009800008031360054B01221A7008BD4622074870
:1009900008F096FFEBE700BF001001406A0D002051
:1009A00070140020B414002010140020A0100020A7
:1009B00010B50A490A48462204F0A4FC094B0A492A
:1009C0001C680A48236823F008034422236008F0C7
:1009D00077FF074B00221A7010BD00BFB41400202F
:1009E0007014002010140020A2100020B00D002070
:1009F0006A0D00202DE9F04F904E914B34789149CB
:100A0000914D04EB041003EB800083B044220134C9
:100A100008F056FF5FFA84F8B8F1090F8B489FED94
:100A20008C4A874A8B4C8ABF002343469846CDE9BF
:100A30000050337000F1440E01462E46404608E057
:100A4000BCF5FA7F0DDD0B80714502F1020200F06A
:100A5000D08031F8027F36F8023F9F42A7EB030CAB
:100A6000EED80028F0D1B2F844901388B2F888C0CC
:100A7000B2F81081A4FB03A707EE903AA4FB09A3E8
:100A8000FD08DB08B2F8CC70B2F898A1F8EEE75A8E
:100A900004EE905A07EE909A07EE103AA4FB0C93DE
:100AA000DB0806EE90CAB8EEC77A05EE103AF8EE0B
:100AB000E44AA4FB07C3DB0874EE874AB8EEE66A93
:100AC00007EE103A06EE907AB2F85451B2F8DC9183
:100AD000B2F820C2A4FB0873B8EEC55ADB0835EEA5
:100AE000245AB8EEC77A04EE903AA4FB0573DB08EB
:100AF00037EE057AF8EEE44A05EE103AA4FB0A73E5
:100B0000DB0874EE874AB8EEC55A07EE103AA4FB2C
:100B10000973DB0835EE245AB2F8647204EE903A99
:100B2000B8EEC77AA4FB0CB3DB0837EE057AF8EE13
:100B3000E44A05EE103AA4FB07B3DB0874EE874ADB
:100B4000B8EEC55A07EE103A35EE245AB8EEC77A19
:100B5000F8EEE77A37EE057AF8EEE66A77EEC77ACE
:100B600075EEC75A67EEA77A36EE476AE5EEA57AC4
:100B700076EEC76AE6EE067A04EE908AE6EEA67A8C
:100B8000F8EEE43A05EE105A73EEC73AF8EEC54AAD
:100B9000E3EEA37A74EEC74A06EE10AAE4EEA47A56
:100BA000B8EEC65A06EE109A35EE475AF8EEC65A17
:100BB000E5EE057A75EEC75A06EE90CAE5EEA57A1F
:100BC000B8EEE66A06EE907A36EE476AF8EEE66A26
:100BD000E6EE067A76EEC76ABCEEC77AE6EEA67A4D
:100BE000F4EEC47AF1EE10FA7FF52EAF17EE103A5C
:100BF00029E7DDE90050184E184C002730F8023F75
:100C000035F8022F9A42A2EB03010FD934F8023BC8
:100C10009942D4BF00210121704506F8011FEDD192
:100C20000F4B00221A7003B0BDE8F08F704506F834
:100C3000017F04F10204E1D1F2E700BFF40D0020CE
:100C4000F80D0020A2100020A0100020AE0D002002
:100C500000601F45CDCCCCCC470D00206C0D002092
:100C60006A0D002030B583B00023264A0093116B33
:100C70002548264D41F480011163116B01F4800178
:100C8000009100990193116B436041F400111163CD
:100C9000126B436102F40012019280224FF400743F
:100CA00082604FF48062C0E903420199056004212B
:100CB0000322C0E90633C0E90831C0E90A2303630F
:100CC00001F000FCD0B900220521102001F0B0FB9A
:100CD000102001F0E9FB002205213A2001F0A8FBD9
:100CE0003A2001F0E1FB46200022052101F0A0FBA3
:100CF000462003B0BDE8304001F0D6BB00F04CFD0B
:100D0000E1E700BF00380240E81000201064024014
:100D10002DE9F0474FF4FA7084B006F0F7FDA34BCD
:100D2000A34EA44DA44CA54FDFF89482DFF8949213
:100D30004FF003221A605A609A60DA601A615A61B1
:100D40009A61DA611A625A629A62DA621A635A63C3
:100D50009A63DA631A64FFF72BFE4FF0010A05204D
:100D600006F0D4FDFFF746FE96E8070094F800C0B1
:100D700001AB03C315F80CC01A70BCF1000F01D110
:100D80008DF805A06378EB5C2BB99DF8053043F036
:100D900002038DF80530A378EB5C2BB99DF8053084
:100DA00043F004038DF80530E378EB5C2BB99DF834
:100DB000053043F008038DF805302379EB5C2BB93F
:100DC0009DF8053043F010038DF805306379EB5C36
:100DD0000BB98DF806A0A379EB5C2BB99DF8063012
:100DE00043F002038DF80630E379EB5C2BB99DF8F4
:100DF000063043F004038DF80630237AEB5C2BB900
:100E00009DF8063043F008038DF80630637AEB5CFA
:100E10002BB99DF8063043F010038DF80630A37A05
:100E2000EB5C0BB98DF807A0E37AEB5C2BB99DF86E
:100E3000073043F002038DF80730237BEB5C2BB9BE
:100E40009DF8073043F004038DF80730637BEB5CBB
:100E50002BB99DF8073043F008038DF80730A37BCA
:100E6000EB5C2BB99DF8073043F010038DF8073089
:100E7000E37BEB5C0BB98DF808A0237CEB5C2BB912
:100E80009DF8083043F002038DF80830637CEB5C7A
:100E90002BB99DF8083043F004038DF80830A37C8B
:100EA000EB5C2BB99DF8083043F008038DF808304F
:100EB000E37CEB5C2BB99DF8083043F010038DF810
:100EC0000830237DEB5C0BB98DF809A0637DEB5CEA
:100ED0002BB99DF8093043F002038DF80930A37D4A
:100EE000EB5C2BB99DF8093043F004038DF8093011
:100EF000E37DEB5C2BB99DF8093043F008038DF8D6
:100F00000930237EEB5C2BB99DF8093043F01003C8
:100F10008DF80930637EEB5C0BB98DF80AA0A37ED7
:100F2000EB5C2BB99DF80A3043F002038DF80A30D0
:100F3000E37EEB5C2BB99DF80A3043F004038DF897
:100F40000A30237FEB5C2BB99DF80A3043F008038D
:100F50008DF80A30637FEB5C2BB99DF80A3043F0C3
:100F600010038DF80A30A37FEB5C0BB98DF80BA052
:100F7000E37FEB5C2BB99DF80B3043F002038DF857
:100F80000B3094F82030EB5C2BB99DF80B3043F01C
:100F900004038DF80B3094F82130EB5CA3B99DF875
:100FA0000B3043F008038DF80B300DE06C0D002082
:100FB00070A10008480D0020B4090020661100202F
:100FC00067110020E00900203B78012B0AD098F837
:100FD0000030012B7FF4C3AE092201A9002005F0E7
:100FE000DBF8BCE606224946002005F0D5F80023D0
:100FF0003B70B4E6F0B51D4F1D4E8BB06D4605201D
:1010000006F084FC3B78E3B196E8030028600DF11C
:101010000300ADF80410FFF723FC9DF804209DF8B1
:1010200003306D46134403330622294602208DF80F
:10103000053005F0B1F8052006F068FC3B78002B80
:10104000E2D10C4C0FCCAC46ACE80F000FCCACE8B6
:101050000F0094E803004CF8040B2622ACF80010B3
:101060000220294605F098F8C9E700BFE7090020EB
:101070007CA1000884A100082DE9F04FB34BB44ACD
:10108000DFF80CE3B34CB44EDFF808A3B34DDFF840
:10109000088393E8030091B002F10C0B8DE8030084
:1010A00007CA02AB03C31A70BEE80F000DF12C098A
:1010B000A9E80F009BE80700DEF80030A9F800302F
:1010C00008AB83E807000BF10C0393E807000DF170
:1010D000140CACE803002CF8022B120C00278CF83F
:1010E0000020052006F012FC337823B19AF8003076
:1010F0007B2B12D037702B781BB12378E02B2DD0AF
:101100002F7098F80030002BEBD0954B1B78FF2BFD
:1011100000F0598188F80070E3E79AF80130483B05
:101120000B2BE7D801A252F823F000BFC111000831
:10113000F5100008F5100008F5100008CF110008A0
:10114000F5100008F5100008F5100008F51000086B
:10115000F5100008A5110008C711000823793C2BE1
:1011600000F2DE80302BCBD9313B0B2BC8D801A24B
:1011700052F823F0B912000837120008F5110008E0
:1011800001110008011100080111000801110008F7
:1011900001110008F51200080111000801110008F2
:1011A0009B1200086F4B70491F709AF803300122A0
:1011B000452B0A7000F01381722B15D06B2B13D0C6
:1011C000684B1F7096E7674A0123137092E7654BDF
:1011D00065491F709AF803300122452B0A7089D0A7
:1011E000722B01D06B2B85D1604ADAF80130C2F83E
:1011F00001307FE75E4AB4F8053013805D4A5E49EE
:1012000013880B8093788B705C49627A01230B7092
:1012100040F6FF73B3FBF2F3594ADB00138044F648
:101220003323ADF8053008226946012004F0B4FFED
:101230000028F8D164E794F80590A3794B4520D9AC
:101240004FEA490000F1010B5FFA8BFB01E04FEA26
:101250004900A37A627A217A00F0FE00FFF790F944
:10126000A37A627A217A5846FFF78AF909F10109CF
:10127000A3795FFA89F90BF1020B4B455FFA8BFBFF
:10128000E5D844F63213ADF805300822694601204E
:1012900004F082FF0028F8D132E73A4A01231370A4
:1012A00045F23C33ADF8053008226946012004F0D0
:1012B00073FF0028F8D123E76079237AE279A179D6
:1012C000400000F0FE00FFF75BF96079237AE279D5
:1012D000A17940000130C0B2FFF752F944F6310362
:1012E000ADF8053008226946012004F055FF0028BA
:1012F000F8D105E7244B254A1B6861799963126888
:10130000A1795963E379936345F23903ADF8053068
:1013100008226946012004F03FFF0028F8D1EFE6DB
:10132000F12B0BD03AD9F32B7FF4EAAE0B2205A9AF
:10133000012004F031FF0028F8D1E1E60C2208A9D1
:10134000012004F029FF0028F8D1D9E6D0A2000836
:10135000ACA10008AC1100206A1100206911002026
:101360006C1100206711002066110020E0090020A8
:1013700064110020B4110020601100205C110020D5
:101380005A11002058110020D812002020130020EC
:10139000DCA20008EC110020681100207C2B0AD090
:1013A000F02B7FF4ADAE12220BA9012004F0F4FE65
:1013B0000028F8D1A4E6092202A9012004F0ECFEDD
:1013C0000028F8D19CE60D4A5278042A11D0112A3F
:1013D0000CD0032A7FF49EAE094B1F709AE6094B8E
:1013E000094AD3F80130C2F8013083E6074A137086
:1013F00090E6034A012313708CE600BF6C110020B5
:10140000E7090020D8090020E0090020E6090020B3
:101410002DE9F84F444C454D23682A68444F454E0A
:10142000002199635963002393630421204602F04D
:1014300075FF0021204602F071FF2846042102F0CA
:101440006DFF3D4D04E0013C34700A2006F05EFA69
:101450003B7893B9394A1278002A39D13478002C74
:10146000F1D10023E0B21A4619460134FFF788F89B
:10147000102CF6D1FFF794F8E7E7314B314A1B887F
:1014800095F8008092F8009092F801A092F802B0CE
:101490000A2B22D84FF000033B7013E04FEA4804B8
:1014A000E4B25B46524649462046FFF769F8601CA5
:1014B000C0B25B4652464946FFF762F808F10108A0
:1014C0005FFA88F86B784345E8D8FFF769F8C5E715
:1014D0001A4A1370FFF764F8C0E71B4808EB48018D
:1014E0004218445C92F802E05078184A1449A2FB72
:1014F00003C20A3BD208A9EB0409AAEB000AABEB32
:101500000E0B0B8099FBF2F99AFBF2FA9BFBF2F3BC
:101510004C4450440EEB03015FFA84F95FFA80FA01
:101520005FFA81FBCEE700BFD81200202013002015
:101530005C110020E60900206411002058110020F1
:101540005A1100206011002084090020CDCCCCCCA1
:1015500010B5104A1048002106F092F90F4B104ABE
:10156000044600210F481C6006F08AF90E4B0F4A12
:10157000044600210E481C6006F082F90D4B0E4A0D
:10158000044600210D481C6006F07AF90C4B1860E7
:1015900010BD00BF80A30008110D000854110020E9
:1015A0005CA30008F50F00085011002038A30008C4
:1015B000791000084C11002014A300081114000831
:1015C00048110020F0B500248BB0CDE90444CDE9EA
:1015D00006442C4B009408941A6B2B4E2B4D42F072
:1015E00004021A631A6B02F004020092009A01943A
:1015F0001A6B42F080021A631A6B02F080020192A9
:10160000019A02941A6B42F001021A631A6B02F0FB
:1016100001020292029A03941A6B42F002021A63C8
:101620001B6B03F002030393224630464FF46041E4
:10163000039B01F047FA22462846102101F042FAA6
:10164000022730464FF46043012604A9CDE9043651
:101650000794069701F03AF941F2060204A92846D8
:101660000023CDE90423069701F030F910230DEB98
:1016700003012846CDE90436CDE9064401F026F9F8
:101680000BB0F0BD003802400008024000040240E8
:1016900010B5002394B0CDE90A33CDE90C33CDE980
:1016A0000333CDE90533204901930793086C1F4AA2
:1016B00040F080500864096C01F08051019101995B
:1016C0000293136843F440431360136801204FF4FE
:1016D000803103F44043CDE9080102934FF48001C7
:1016E0000224CDE90E41029804210220CDE9120125
:1016F0001922C02308A81092119302F0FBF908B137
:1017000072B6FEE70F210346CDE903144FF4805271
:1017100003A80321CDE90532079302F001FC08B1CB
:1017200072B6FEE714B010BD0038024000700040F1
:1017300008B500F0CBFCFFF7ABFF114B1A6F22F09E
:1017400001021A671A6F22F004021A67FFF73AFFC4
:10175000FFF788FA00F032FC00F0EAF800F01CFB1A
:1017600000F092F900F06CFBFEF7EEFF04F054FC81
:1017700006F05AF8FFF7ECFE06F068F8FEE700BF47
:1017800000380240034B02689A4200D0704700F0D4
:10179000B7BC00BF0000014072B6FEE782B00E4B3E
:1017A00000220092596C41F480415964586C00F455
:1017B0008040009000980192186C40F080501864AE
:1017C0001B6C03F080530193019B0F216FF001000C
:1017D00002B000F02DBE00BF0038024070B588B0E6
:1017E00000251F4B02955A6C1E4C42F001025A64B0
:1017F0005B6C03F0010301A90293064603A8029B58
:1018000002F052FC02F040FC174A226040F2E7323C
:10181000E260164A2561A2FB00239B0C013B204697
:10182000C4E90135A56102F063FC054610B1284604
:1018300008B070BD204602F0CDFC05460028F6D168
:10184000192000F031FE0F2E01D90125EFE72A46BD
:101850003146192000F0ECFD054B1E60E7E700BFA4
:10186000003802402C1200200000014083DE1B43A0
:10187000F0090020FEE700BFFEE700BFFEE700BF63
:10188000FEE700BFFEE700BF704700BF014800F061
:1018900047BF00BF78120020014802F0E3BF00BF3D
:1018A0002C120020014803F035BB00BF701400204B
:1018B000014800F035BF00BF10140020014801F0BE
:1018C000ADB900BF38150020014800F029BF00BFA6
:1018D000B01300200C490D4A0B6810B50C4C121BBC
:1018E0002BB11844904207D80860184610BD094B28
:1018F0000B6018449042F7D907F0B6FF0C23036041
:101900004FF0FF33184610BD741200200000022073
:1019100000040000E07F0020034AD2F8883043F43E
:101920007003C2F88830704700ED00E0000000004E
:1019300010B54F4C94B04FF08042002322602046F7
:101940007722CDE90433CDE90C33CDE90E33CDE96F
:101950001033C4E901331293E2602361A36102F002
:101960006BFC30BB00220023414804A9CDE90423CD
:1019700003F066F818BB9FED367B00223C480E92C0
:101980000CA98DED0C7B109202F0FEFDA0B922682F
:101990000023B2F1804FCDE90633CDE908330A9335
:1019A00010D034498A4225D033498A4239D014B004
:1019B00010BDFFF7F1FED5E7FFF7EEFEE7E7FFF713
:1019C000EBFED8E702F50E320193136B2B4843F080
:1019D00001031363136B9FED207B03F0010301935D
:1019E00006A901238DED067B019A0A9300F06EFF94
:1019F00014B010BD224A0293136B224843F0020335
:101A00001363136B9FED167B03F00203029306A989
:101A100002238DED067B029A0A9300F057FF14B063
:101A200010BD174A0393136B164843F00203136368
:101A3000136B9FED0D7B03F00203039306A90223B2
:101A40008DED067B039A0A9300F040FF14B010BDA1
:101A50006000000000000000010000000200000023
:101A60002000000002000000C00000000200000092
:101A700068130020000400400008004000000240FD
:101A8000003802400004024010B54F4C4F4A22601B
:101A900094B00023FF222046CDE90433CDE90C3376
:101AA000CDE90E33CDE91033C4E901331293E2607E
:101AB0002361A36102F0C0FB38BB0022002342482F
:101AC00004A9CDE9042302F0BBFF20BB9FED367BC8
:101AD00000233D480E9304220CA98DED0C7B10933E
:101AE00002F052FDA0B922680023B2F1804FCDE987
:101AF0000633CDE908330A9310D034498A4225D001
:101B000033498A4239D014B010BDFFF745FED4E7FF
:101B1000FFF742FEE7E7FFF73FFED7E702F50E3299
:101B20000193136B2B4843F001031363136B9FED79
:101B3000207B03F00103019306A901238DED067BB1
:101B4000019A0A9300F0C2FE14B010BD224A02931B
:101B5000136B224843F002031363136B9FED167B54
:101B600003F00203029306A902238DED067B029A7D
:101B70000A9300F0ABFE14B010BD174A0393136B29
:101B8000164843F002031363136B9FED0D7B03F0C4
:101B90000203039306A902238DED067B039A0A93A1
:101BA00000F094FE14B010BD6000000000000000C2
:101BB0000100000002000000200000000200000000
:101BC000C0000000020000002013002000040040BC
:101BD00000080040000002400038024000040240BB
:101BE00030B50368B3F1804F85B023D0284A9342C3
:101BF00004D0284A93420FD005B030BD264B0022B6
:101C000002921A6C42F002021A641B6C03F0020387
:101C10000293029B05B030BD1F4B002203921A6C49
:101C200042F004021A641B6C03F004030393039B49
:101C300005B030BD0023184A0193116C174D41F0D7
:101C400001011164126C1649EB6002F0010201926D
:101C50004FF0C062C5E9001240214FF48062044693
:101C6000A96001982A614FF480514FF480422846C0
:101C7000C5E90512C5E907336B6200F023FC18B90A
:101C80006562AC6305B030BDFFF786FDF8E700BFC5
:101C90000004004000080040003802407812002094
:101CA000886002400000000000B502688BB000238D
:101CB000B2F1804FCDE90433CDE90633089308D063
:101CC0002F498A421ED02F498A4233D00BB05DF88B
:101CD00004FB02F50E320193136B2B4843F0010312
:101CE0001363136B9FED207B03F00103019304A9A1
:101CF00001238DED047B019A089300F0E7FD0BB002
:101D00005DF804FB214A0293136B214843F0020360
:101D10001363136B9FED167B03F00203029304A978
:101D200002238DED047B029A089300F0CFFD0BB0E7
:101D30005DF804FB154A0393136B154843F0020347
:101D40001363136B9FED0C7B03F00203039304A951
:101D500002238DED047B039A089300F0B7FD0BB0CE
:101D60005DF804FBAFF300800100000002000000FA
:101D70002000000002000000C0000000020000007F
:101D8000000400400008004000000240003802400B
:101D9000000402400000000000B52748274A026006
:101DA0008BB00023FF22CDE90033CDE90233CDE92A
:101DB0000433CDE90633C0E90133C0E903230893B6
:101DC000836102F039FA00BB002200231A486946F9
:101DD000CDE9002302F034FE28BB9FED157B0022E5
:101DE0001548049202A98DED027B069202F0CCFB0D
:101DF000B0B91148042202A902F0C6FB40B90E484E
:101E0000FFF752FF0BB05DF804FBFFF7C5FCDBE703
:101E1000FFF7C2FC0848FFF747FF0BB05DF804FB73
:101E2000FFF7BAFCE5E7FFF7B7FCD6E7AFF30080B2
:101E30006000000000000000D812002000080040F0
:101E400010B50D480D4C00234FF4E1310C22C0E9D0
:101E50000041C0E90233C0E90432C0E9063302F0B0
:101E60002BFE30B9BDE8104005490348802203F03D
:101E700049BAFFF791FCF5E770140020001001400B
:101E8000B41400202DE9F041454B02688AB00024CB
:101E90009A42CDE90444CDE90644089402D00AB040
:101EA000BDE8F08103F5943301945A6C3D4E42F045
:101EB00010025A645A6C02F010020192019A0294C4
:101EC0001A6B42F001021A631A6B02F001020292CD
:101ED000029A03941A6B42F002021A631B6B03F01E
:101EE000020303934FF4004202234FF00308072735
:101EF00004A905462C48CDE90423CDE90787039BB7
:101F000000F0E4FC082202232848CDF81C8004A934
:101F1000CDE904230694089700F0D8FC244A7462A3
:101F20004FF00063C6E9002330464FF480624FF45F
:101F30000033C6E90244C6E90424C6E90644336214
:101F400000F0C0FA30BB1B4C1B49AE634FF000627F
:101F5000C4E900124FF48062002340212261204630
:101F60004FF40032C4E90213C4E90533C4E907326F
:101F7000B563636200F0A6FA78B96C6300220521AC
:101F80002520A56300F054FA252000F08DFA0AB050
:101F9000BDE8F081FFF700FCD5E7FFF7FDFBECE7BC
:101FA0000010014010140020000002400004024014
:101FB00040640240B0130020B86402400C4810B5E1
:101FC000002302224FF0A0440421C0E90041C0E9EF
:101FD0000323C0E90623C0E90833C0E90B3300F04E
:101FE00075FD00B910BDBDE81040FFF7D5BB00BFBF
:101FF0003815002030B5036889B00024B3F1A04F34
:10200000CDE90244CDE90444069401D009B030BDC5
:10201000174D00942B6B174843F001032B632B6B78
:1020200003F0010300934FF4C0520223CDE90223D1
:10203000032302A905930A23009A069300F046FCA5
:102040006B6B43F080036B6301946B6C43F48043D0
:102050006B646B6C03F4804322460521019343209B
:10206000019B00F0E5F9432000F01EFA09B030BDF5
:102070000038024000000240DFF834D00D480E491D
:102080000E4A002302E0D458C4500433C4188C42D2
:10209000F9D30B4A0B4C002301E013600432A24237
:1020A000FBD3FFF739FC07F0E5FBFFF741FB704777
:1020B0000000022000000020DC0C002078A40008B2
:1020C000E00C0020E07F0020FEE7000008B50B4B8D
:1020D0001A6842F400721A601A6842F480621A6048
:1020E0001A6842F480721A60032000F08FF90F2002
:1020F000FFF774FBFFF752FB002008BD003C0240D5
:10210000034A044B11681B780B441360704700BFEF
:10211000441A0020EC090020014B1868704700BFEA
:10212000441A002038B50446FFF7F6FF631C054645
:1021300002D0044B1B781C44FFF7EEFF401BA0426B
:10214000FAD338BDEC090020002800F09E8038B595
:10215000056C04463DB1236CDB060CD5002384F8E6
:102160003C30012038BDFEF733FB6564236C84F8F6
:102170003C50DB06F2D4236C474A23F4885323F007
:10218000020343F0020323645168236821F44031C1
:10219000516051686068014351605A682069A168C4
:1021A00022F480725A605A6842EA00225A605A68E1
:1021B000E06822F040725A605A680A435A609A688E
:1021C000A16A22F400629A609A6802439A60334AD4
:1021D00091429A6851D022F07062E06A9A609A68DF
:1021E000114399609A6822F040529A609A680243BB
:1021F0009A609A6822F002029A609A68217E42EA06
:1022000041029A6094F82020002A40D05A68616AFE
:1022100042F400625A605A6822F460425A605A6876
:10222000013942EA41325A60DA6AE16922F4700205
:10223000DA62DA6A013942EA0152DA629A6861695D
:1022400022F400729A609A6894F8300042EA4022C0
:102250009A609A6822F480629A609A68002042EA42
:1022600081229A606064236C23F0030343F001032E
:102270002364002384F83C3038BD22F070629A60F9
:102280009A6822F040529A60B3E7012070475A687A
:1022900022F400625A60C7E7002301400100000FEA
:1022A00070B590F83C3082B00246012B4FF0000030
:1022B000019000F09E80012382F83C300D68136885
:1022C0008C68092DA8B228D81E6905EB450E4FF081
:1022D000070C0CFA0EFC26EA0C061E611E6904FAB5
:1022E0000EF434431C614C68062C04EB84012AD89C
:1022F0005C6B05394FF01F0C88400CFA01F124EAA1
:1023000001015963596B084358633B498B422BD0F9
:10231000002082F83C0002B070BD00EB400CDE688B
:10232000ACF11E0C4FF0070E04FA0CF40EFA0CFC84
:1023300026EA0C06DE60DE683443DC604C68062C5E
:1023400004EB8401D4D90C2C1FD81C6B23391F2615
:10235000884006FA01F124EA01011963196B084368
:10236000254918638B42D3D1122D1BD0234B9D429C
:1023700022D0112DCCD1224B596821F48001596013
:10238000596841F400015960C2E7DC6A41391F26EF
:10239000884006FA01F124EA0101D962D96A0843AA
:1023A000D862B2E7164B596821F4000159605968A8
:1023B00041F480015960ABE7114B124C5968124847
:1023C00021F480015960596841F400015960236883
:1023D000A0FB03039B0C03EB83035B000193019BB6
:1023E000002B95D0019B013B0193019B002BF9D160
:1023F0008EE7022002B070BD0020014012000010E4
:1024000000230140E809002083DE1B430749CA6816
:1024100003024FF6FF0003F4E0630240134343F06E
:10242000BF6343F40033CB60704700BF00ED00E0B2
:102430001B4BDB68C3F3022300B5C3F1070EBEF1EB
:10244000040F03F1040C28BF4FF0040EBCF1060F7B
:102450001CD9A3F1030C4FF0FF3303FA0CF322EA6B
:1024600003024FF0FF3303FA0EF321EA030303FAEA
:102470000CF313431B010028DBB20ADB00F16040C0
:1024800000F5614080F800335DF804FB00229446BB
:10249000E7E7044A00F00F00024413765DF804FBFE
:1024A00000ED00E0FCEC00E0002807DB4109044AF5
:1024B00000F01F000123834042F82130704700BF25
:1024C00000E100E038B50446FFF726FE002C6FD08F
:1024D00023680022022184F8351084F834201A6819
:1024E00022F0010205461A6005E0FFF715FE431BC6
:1024F000052B39D823681A68D107F6D4D4E901200E
:10250000E16802430A43D4E90451A0692A430A431B
:10251000E1691D6802430A4332492940256A2A437A
:102520000A43616A042926D01A605A6922F0070218
:102530001143D8B22C4A59611038A2FB005212093B
:102540002A4923F47F73895CE16523F003035F2844
:1025500088BF04333F228A40A36500209A6001238C
:10256000606584F8353038BD03232022626584F825
:102570003530184638BDD4E90B5129431143196051
:102580005969A26A21F00701114341F00401002DAD
:10259000CFD078B1B0F5005F16D0022A03D9032A54
:1025A000C7D1EA01C5D540220123626584F83530E0
:1025B000012038BD012A03D032F00202B9D1F0E780
:1025C000B5F1C07FB5D1EEE7032AB2D801A050F82B
:1025D00022F000BFA7250008A3250008A7250008B2
:1025E000C12500083F8010F0ABAAAAAABCA300082E
:1025F00070B490F83440856D012C0AD090F83540C5
:102600004FF0010C644580F834C005D0002380F8F9
:102610003430022070BC7047022680F835600468B0
:1026200000264665266826F4802626606360836857
:10263000402B0EBFA260A160E260C26D08BFE160E6
:102640003F239340AB602368026C43F01603236082
:102650001AB1236843F008032360236843F00103A1
:102660000020236070BC704770B50446866DFFF78C
:1026700053FD94F83530022B06D080236365002388
:1026800084F83430012070BD23681A6822F01602E5
:102690001A605A6922F080025A61226C054642B3E0
:1026A0001A6822F008021A601A6822F001021A6001
:1026B00005E0FFF731FD431B052B10D823681B688D
:1026C00013F00103F5D1E16D3F228A401846012144
:1026D0000023B26084F8351084F8343070BD0323D1
:1026E00020226265184684F83530002384F834309F
:1026F00070BDA26C002AD3D1D6E700BF90F8353068
:10270000022B03D080234365012070470268052314
:1027100080F83530136823F0010300201360704700
:10272000F0B583B0674A876D166800230193C36DC7
:102730003D6808229A402A42044603D0016808688E
:10274000400778D401229A402A4203D0216849697F
:1027500008066AD404229A402A4203D021680968F4
:1027600089075CD410229A402A4203D02168086865
:10277000000741D420229A402A4214D021680868D8
:10278000C00610D5BA6094F83520052A63D00B68CE
:1027900013F4802F0B687ED0190340F18980E36B1E
:1027A0000BB120469847636D23B3636DDA071AD5E2
:1027B00022684549052384F835301368A1FB0616C5
:1027C00023F00103B60A136002E01368DB0704D5A7
:1027D000019B0133B3420193F7D90122002384F80E
:1027E000352084F83430E36C23B1204603B0BDE8D3
:1027F000F040184703B0F0BDBA600A6812F4802FA9
:102800000A6822D1D20503D40A6822F008020A60BD
:10281000226C002AAED020469047E36DAAE7BA604A
:10282000626D42F0040262659CE7BA60626D42F03C
:10283000020262658EE7086820F004000860BA6052
:10284000626D42F0010262657CE71103E0D5A26C83
:10285000002AE0D18EE70A6822F016020A604A696F
:1028600022F080024A61226C3AB30A6822F0080220
:102870000A603F2202FA03F3216DBB6001220023AC
:1028800084F8352084F834300029B3D0204603B0D2
:10289000BDE8F040084713F4807380D10A6822F045
:1028A00010020A60012284F8352084F8343076E77B
:1028B000636C002B7FF475AF75E7A26C002AD4D14E
:1028C000D7E700BFE8090020B5814E1B2DE9F04F86
:1028D00000230C68DFF8D4A185B04FF0010B8946C6
:1028E00003E00133102B00F082800BFA03F202EABE
:1028F0000408A243F5D1D9F8041001F003024FEA0D
:10290000430C0325571E05FA0CF5012F6FEA050548
:1029100070D9032A40F0A780076802FA0CF23D4004
:102920002A4311F4403F0260DBD000220392DAF820
:10293000442042F48042CAF84420DAF8442002F4E9
:1029400080420392039A23F0030202F1804203F0D3
:1029500003070F2602F59C32BF0006FA07FC504E13
:102960009568B04225EA0C0518D006F58066B0429D
:1029700000F084804B4EB04200F08680DFF830C11A
:10298000604500F08780DFF82CC160450CBF4FF038
:10299000040C4FF0070C0CFA07F73D439560424AD0
:1029A0009268CE026FEA08053F4E54BF2A4048EABB
:1029B0000202B260F2683C4E8F0254BF2A4048EADD
:1029C0000202F26072688E03374E54BF2A4048EA12
:1029D000020272603268C90303F10103324954BF35
:1029E0002A4048EA0202102B0A607FF47EAF05B04D
:1029F000BDE8F08F876807EA050ED9F80C7007FA72
:102A00000CF747EA0E078760476827EA080EC1F30C
:102A100000179F4047EA0E074760C76807EA050EA0
:102A2000D9F8087007FA0CF747EA0E07022AC760C0
:102A30007FF472AFDF0800EB870701973E6AD9F891
:102A40001070009603F0070E4FEA8E0E0F2607FA5D
:102A50000EF706FA0EFE009E26EA0E0E019E47EACB
:102A60000E07376258E7C76807EA050ED9F80870FD
:102A700007FA0CF747EA0E07C7604DE74FF0010C65
:102A80000CFA07F73D4389E74FF0020C0CFA07F701
:102A90003D4383E74FF0030C0CFA07F73D437DE716
:102AA0000000024000080240003C014000380240A3
:102AB000000C0240001002400369194214BF0120BB
:102AC0000020704702B9090481617047F0B58BB0EE
:102AD00060B390F8BD340468054603F0FF02002B94
:102AE00076D02046032385F8BD34E36B2E4613F4DD
:102AF000807308BF2B6102F03FFD56F810EBB4461F
:102B0000BCE80F006C460FC4BCE80F000FC49CE883
:102B1000030084E803002F1D97E80E00704602F0C2
:102B200027FC044630B1022385F8BD340124204639
:102B30000BB0F0BD0146286802F026FD686858B366
:102B400022464FF0010E214602EBC20305EB830340
:102B500002F1010C83F83C20A3F844205FFA8CF2C8
:102B60008242C3E9121183F83DE083F840105965B1
:102B7000EAD3002204EBC40305EB8303611C83F852
:102B80007C42CCB28442C3E9A22283F87D2283F83E
:102B90008022C3F89422EDD30FCE6C460FC40FCE23
:102BA0000FC496E8030084E8030097E80E00286845
:102BB00002F022FD04460028B5D1012385F8380033
:102BC000286885F8BD3403F0ABF920460BB0F0BDA2
:102BD00080F8BC24FFF70EFA286883E710B590F858
:102BE000BC34012B0446006816D0A36A012293422C
:102BF00084F8BC2408D002F0B7FC206803F080F908
:102C0000002084F8BC0410BDA3699342F3D0836B09
:102C100043F480338363EEE7022010BD2DE9F04FCB
:102C2000066889B00446304603F0B8F910B109B01F
:102C3000BDE8F08F0546206803F082F90028F6D041
:102C4000D6F808382068C3F30D23C4F8FC3403F029
:102C500077F910F0020F206806F5006303931EBF9A
:102C6000436903F00203436103F06AF910F0100FA7
:102C7000206812D0836923F010038361376AC7F399
:102C80004343022B07F00F0800F0BB83062B00F034
:102C90005B83836943F01003836103F051F910F4FF
:102CA000002F206840F0B68203F04AF9470300F194
:102CB0001082206803F044F90028C0F28281206865
:102CC00003F03EF9030500F13D81206803F038F977
:102CD000C00400F1A081206803F032F910F4005F15
:102CE000206840F0818103F02BF9010700F1E881B1
:102CF000206803F025F9020671D5B269636822F0F5
:102D00008002012BB2616AD994F8A322012A00F053
:102D1000E683022B63D994F8C722012A00F0FA83D4
:102D2000032B5CD994F8EB22012A00F00683042BD4
:102D300055D994F80F23012A00F01983052B4ED999
:102D400094F83323012A00F02184062B47D994F804
:102D50005723012A00F02E84072B40D994F87B23B7
:102D6000012A00F04084082B39D994F89F23012AC6
:102D700000F04D84092B32D994F8C323012A00F0C6
:102D80005A840A2B2BD994F8E723012A00F0678490
:102D90000B2B24D994F80B24012A00F074840C2BFB
:102DA0001DD994F82F24012A00F07A840D2B16D90E
:102DB00094F85324012A00F09A840E2B0FD994F82A
:102DC0007724012A00F0A1840F2B08D994F89B34B2
:102DD000012B04D1206804F5936102F0A1FF206863
:102DE00003F0AEF8C30240F1AB806368012B40F200
:102DF000898094F86420D6F82019012A00F06682B0
:102E0000022B7FD994F88820D6F84019012A00F0C7
:102E10007082032B76D994F8AC20D6F86019012A79
:102E200000F07382042B6DD994F8D020D6F8801965
:102E3000012A00F07682052B64D994F8F420D6F8A4
:102E4000A019012A00F03F83062B5BD994F81821C2
:102E5000D6F8C019012A00F05183072B52D994F8F3
:102E60003C21D6F8E019012A00F05C83082B49D9EF
:102E700094F86021D6F8001A012A00F05F83092B2C
:102E800040D994F88421D6F8201A012A00F07283E0
:102E90000A2B37D994F8A821D6F8401A012A00F055
:102EA0007D830B2B2ED994F8CC21D6F8601A012AF9
:102EB00000F08D830C2B25D994F8F021D6F8801AD8
:102EC000012A00F098830D2B1CD994F81422D6F80F
:102ED000A01A012A00F0A3830E2B13D994F83822EC
:102EE000D6F8C01A012A00F0AE830F2B0AD994F845
:102EF0005C22D6F8E01A012A00F0B983102B01D920
:102F0000D6F8003B2068436903F48013436103F063
:102F100017F8870221D4206803F012F8400000F16E
:102F2000C680206803F00CF841077FF580AE236867
:102F30005D686A0700F186825A682A435A6076E61D
:102F40002068E4E7039B9B68DF0700F17782206835
:102F5000436903F400634361B8E6D4F804C0BCF1EC
:102F6000010F28D906F532622346012106E001311E
:102F7000614502F1200203F124031CD093F8A4025E
:102F800015680128F3D1002DF1DAD4F8FC7405F4AA
:102F9000803507F00107BD42E9D183F8A302B0698B
:102FA00040F08000B06170690506E0D4039A536870
:102FB00043F4007353602068436903F400134361D2
:102FC000AAE7039A536823F00103536094F8F4349A
:102FD000012B00F08781204604F056FB20684369EE
:102FE00003F0004343616BE602F0DCFF206802F06F
:102FF0004DFCE060256801F031F8227B014628464F
:1030000002F038FA204604F013FB2068436903F409
:103010000053436167E6039A2068536823F0010375
:103020005360102102F008FC6068D8B106F5106307
:103030004FF67F3199601A6822F400121A60C3F8C3
:103040000812D3F8002222F40012C3F80022D3F8A9
:103050000022013542F000628542C3F8002203F1EC
:103060002003E7D10399226BCB6943F00113CB61B5
:10307000002A40F020814B6943F4005343F02B03B6
:103080004B610B6943F00B030B61D6F80038217CD0
:10309000206823F4FE63C6F8003804F2C44202F04C
:1030A00093FF2068436903F48053436114E620468C
:1030B00004F0F6FA2068436903F08043436131E786
:1030C000204604F0B1FA2068436903F00803436125
:1030D0000FE6206802F040FF81462068B9F1000F3A
:1030E0003FF4E8ADCDE9046506F51067A0464FF062
:1030F000000A064609E05FEA59090AF1010A08F1E7
:10310000240807F1200700F03C8119F0010FF2D0EC
:103110005FFA8AFB3046594602F030FFC207054687
:1031200012D503980121436B0AF00F0201FA02F253
:1031300023EA02034363B9602169012900F0878112
:103140005946204604F066FA2B0744BF0823BB60AB
:10315000EE0644BF1023BB60680644BF4023BB603B
:10316000A90700F142812A062668C4D5D8F85C3048
:10317000D8F85450AB42BED806F51061D8F84800D4
:10318000079601EB4A11A5EB030C84458A6928BF19
:1031900084461FFA82FE0CF1030CBEEB9C0FC0F0BC
:1031A0008E81CDF818A08A4622E0ED1AD8F8483072
:1031B000D8F84C109D4228BF1D46237C00935A46E8
:1031C000ABB2304602F0F6FDD8F84C30DAF81820F1
:1031D0002B44C8F84C30D8F85C3092B22B440335FD
:1031E000B2EB950FC8F85C30C0F06481D8F8545049
:1031F0009D42DAD8DDF818A02668079B0AF00F0573
:1032000003F500610122D3F83438AA4023EA02030F
:103210004B6370E702F098FE07462068002F3FF4EA
:1032200043AD049506F53068A3464FF0000A2546E5
:1032300008E07F080AF1010A08F120080BF1240BCD
:1032400000F09C80FC07F4D55FFA8AF4214602F076
:103250008BFE10F0010F814640F0A88019F0080F96
:1032600040F0938019F0100F1CBF1022C8F80820FE
:1032700019F0020F0FD07269110604D5039B5A682A
:1032800042F480625A609BF87F22012A00F02E816E
:103290000223C8F8083019F0200F1CBF2023C8F8FB
:1032A000083019F4005F18BF4FF40053286818BFA6
:1032B000C8F80830BDE7D1F8843043F00B03C1F8FB
:1032C00084304B6C43F00B034B64DEE60029BFF601
:1032D00097AD206884F8632004F1600102F020FDBE
:1032E00063688DE5002184F8F414204600F000FCAA
:1032F00074E60029BFF68DAD206884F8872004F1BC
:10330000840102F00DFD636883E50029BFF68AADF4
:10331000206884F8AB2004F1A80102F001FD636885
:1033200080E50029BFF687AD206884F8CF2004F13E
:10333000CC0102F0F5FC63687DE5206804F53A7184
:1033400002F0EEFC6368F2E4082204F2C441304665
:1033500008EBC80802F044FD04EB8802C7F30A1327
:10336000D2F89C1220680B44C2F89C3291E4206889
:1033700004F5437102F0D4FC6368DFE42C46049D3D
:1033800092E43046059D049E94E429680822C8F81A
:103390000820086C01F53062BF4902EB4A128842EE
:1033A000936867D8284604F025F95BE728682969FF
:1033B0000122C8F8082000F5306202EB4A12012908
:1033C000D0F840E0936867D0B4498E4500F0C280E1
:1033D000BAF1000F04D1D5F89422002A00F08F81B1
:1033E0002146284604F00CF938E70498514602F0CB
:1033F00023FA98F83F30012B00F0B4800223BB6021
:10340000B1E647F6F0731F423FF443AC08EBC8083F
:1034100004EB8808C7F30A12D8F88C123046174616
:1034200002F0DEFCD8F88C3220683B44C8F88C32BD
:10343000D8F89C323B44C8F89C322AE4204604F079
:103440000BF984E5204604F02FF9236874E5D8E9E8
:1034500012231344C8F84C30BAF1000F7FF470AE59
:10346000636D002B7FF46CAE206804F2C44202F05E
:10347000ABFD65E6180444BF4FF400419160284657
:1034800004F0B8F8296901297FF4ECAE286805F248
:10349000C44202F099FDE5E6190740F193807E49A8
:1034A0008E457FF6DBAE18047FF5D8AE4FF40041B1
:1034B0009160D3E6DDF818A0D8F854502668AB42E6
:1034C000FFF419AE99E60029BFF6BEAC206884F877
:1034D000F32004F1F00102F023FC6368B4E42068F7
:1034E00004F5287102F01CFC636812E400222146F6
:1034F0008BF87F22284604F0CBF8C9E60029BFF6F6
:10350000ACAC206884F8172104F58A7102F008FC3D
:103510006368A2E4206804F5317102F001FC63687D
:10352000FFF7FEBB0029BFF6A1AC206884F83B2161
:1035300004F59C7102F0F4FB636897E40029BFF680
:103540009EAC206884F85F2104F5AE7102F0E8FBC0
:10355000636894E41904A9D49B067FF541AF202148
:1035600091603DE7002388F83F305946204604F03B
:1035700093F843E70029BFF68BAC206884F88321D9
:1035800004F5C07102F0CCFB636881E4206804F5A7
:103590004C7102F0C5FB6368FFF7D7BB0029BFF68B
:1035A00080AC206884F8A72104F5D27102F0B8FB42
:1035B000636876E4206804F5557102F0B1FB636836
:1035C000FFF7CABB990673D52021916046E6002912
:1035D000BFF670AC206884F8CB2104F5E47102F0EA
:1035E0009FFB636866E4206804F55E7102F098FB57
:1035F0006368FFF7B8BB0029BFF665AC206884F8A4
:10360000EF2104F5F67102F08BFB63685BE4206840
:1036100004F5677102F084FB6368FFF7ABBB002918
:10362000BFF65AAC206884F8132204F5047102F046
:1036300077FB636850E4206804F5707102F070FB5A
:103640006368FFF79EBB0029BFF64FAC206884F883
:10365000372204F50D7102F063FB636845E42068CE
:1036600004F5797102F05CFB6368FFF791BB0029F8
:10367000BFF644AC206884F85B2204F5167102F0B2
:103680004FFB63683AE4206804F5816102F048FB6F
:103690006368FFF784BB00BF0A30544F0A31544FB0
:1036A000206804F22C4102F03BFB6368FFF77EBB0D
:1036B00013F0280F7FF4D2AD1B498E4502D91B04AD
:1036C0003FF5F4AE1169DBF89822C1F31201521AEA
:1036D000CBF89C22BAF1000F7FF482AED5F8941299
:1036E000D9B1D5F88C121144C5F88C1278E620684F
:1036F00004F58A6102F014FB6368FFF75EBB05F214
:10370000C442514602F060FC6AE6206804F274414B
:1037100002F006FB6368FFF757BB05F2C4420121C4
:1037200002F052FC5CE600BF0A30544F90F8BC2413
:10373000012A0DD010B504460122006884F8BC248B
:1037400084F8381002F0CCFB002084F8BC0410BDD3
:103750000220704710B501F00F0E0EEBCE0C0906DB
:1037600004464FEA8C0C24D40CF51F7101440EEB77
:10377000CE0004EB80004FF0000C80F87DC2CA60E0
:103780004A7881F800E00B710AB1A1F808E0022B39
:1037900004BF00234B7194F8BC34012B15D00123D6
:1037A000206884F8BC3402F07DF8002084F8BC0462
:1037B00010BD0CF13C0101440EEBCE0004EB800087
:1037C0004FF0010C80F83DC0D9E7022010BD00BFCA
:1037D00001F00F0301F00F0210B503EBC303044621
:1037E000090602EBC2004FEA830304EB800015D404
:1037F00003F51F73E1184FF0000C80F87DC20A70CA
:1038000094F8BC34012B14D00123206884F8BC3414
:1038100002F090F8002084F8BC0410BD3C33E1189D
:103820004FF0010C80F83DC00A7094F8BC34012BB5
:10383000EAD1022010BD00BF10B501F00F0404EB67
:10384000C40C00EB8C0C2421CCF894320023CCF86F
:103850008C228CF87C42CCF89C328CF87D32036947
:1038600001FB0401012B08BFCCF89022006801F590
:103870001F71DAB21CB902F0D1F9002010BD02F0BC
:10388000BBF8002010BD00BF01F00F0101EBC1012A
:1038900000EB8100D0F89C02704700BF10B501F02A
:1038A0000F0404EBC40C00EB8C0C2421CCF8543036
:1038B0000023CCF85C300123CCF84C208CF83C4041
:1038C0008CF83D30036901FB0401012B08BFCCF8E3
:1038D000502000683C31DAB21CB902F09FF9002098
:1038E00010BD02F089F8002010BD00BF38B5436854
:1038F00001F00F059D4233D80B0604461CD401EBA2
:10390000C103242202FB010100EB830301F51F71B7
:10391000002283F87D2201238B700D7094F8BC2463
:103920009A421BD0206884F8BC3402F07FFACDB1F3
:10393000002084F8BC0438BD05EBC503242101FB3D
:10394000050100EB830301223C3183F83D20012374
:103950008B700D7094F8BC249A42E3D1022038BDDC
:10396000012038BD217C206804F2C44202F02CFB07
:10397000DEE700BF38B5436801F00F029A422FD846
:10398000044602EBC20302EBC20009064FEA8303BE
:1039900004EB800016D403F51F73E118002580F8AE
:1039A0007D5200258D700A7094F8BC34012B15D01F
:1039B0000123206884F8BC3402F066FA84F8BC5411
:1039C000284638BD3C33E118012580F83D500025DC
:1039D0008D700A7094F8BC34012BE9D1022038BDF7
:1039E000012038BD00681204436A19B91343836289
:1039F0000020704730B4846A013903EB14436BD064
:103A0000D0F80441012903EB144365D0D0F80841F4
:103A1000022903EB14435FD0D0F80C41032903EBD8
:103A2000144359D0D0F81041042903EB144353D068
:103A3000D0F81441052903EB14434DD0D0F81841B8
:103A4000062903EB144347D0D0F81C41072903EBA8
:103A5000144341D0D0F82041082903EB14433BD054
:103A6000D0F82441092903EB144335D0D0F828417C
:103A70000A2903EB14432FD0D0F82C410B2903EB78
:103A8000144329D0D0F830410C2903EB144323D040
:103A9000D0F834410D2903EB14431DD0D0F8384140
:103AA0000E2903EB144317D0D0F83C410F2903EB48
:103AB000144311D0D0F84041102903EB14430BD02C
:103AC000102404F1400C00EB8C0C0134DCF80450A1
:103AD0008C4203EB1543F4D3403100EB81011A43D0
:103AE000002030BC4A60704703680020596270476C
:103AF000704700BF002800F0D8812DE9F04103682D
:103B0000DD0782B004462FD59D498A6802F00C0279
:103B1000042A00F0EC808A6802F00C02082A00F007
:103B2000E2806368B3F5803F00F0EB80B3F5A02F2F
:103B300000F07381924D2A6822F480322A602A684C
:103B400022F480222A60002B40F0E080FEF7E4FAA5
:103B5000064605E0FEF7E0FA801B642800F20081CB
:103B60002B689F03F6D423689D0728D5844A916863
:103B700011F00C0F00F09B80916801F00C010829F6
:103B800000F09180E368002B00F00C817D4B7C4EAF
:103B900001221A60FEF7C0FA054605E0FEF7BCFAFE
:103BA000401B022800F2DC8033689F07F6D533689B
:103BB000226923F0F80343EAC203336023681A073B
:103BC0005CD45D073AD56E4A136C13F0805340F015
:103BD00088800193136C43F080531364136C03F0DB
:103BE00080530193019B0125674E3368D80540F14E
:103BF000A780A368012B00F0B780052B00F01D8182
:103C00005F4E326F22F001023267326F22F00402FF
:103C10003267002B40F0AD80FEF77EFA41F2883823
:103C2000074605E0FEF778FAC01B404500F2988091
:103C3000336F9B07F6D4002D40F0F980A369CBB118
:103C40004F4DAA6802F00C02082A00F0BC80022B3B
:103C50004C4B4FF000021A6600F0F980FEF75CFA58
:103C6000044604E0FEF758FA001B022878D82B68B7
:103C70009B01F7D4002002B0BDE8F0816369FBB17D
:103C8000404B3F4E0122C3F8802EFEF745FA054611
:103C900004E0FEF741FA401B022861D8736F9B07CE
:103CA000F7D523688DE7526851023FF56BAF344A70
:103CB0001268920738D5E268012A35D00120DAE788
:103CC000304A2F4EC2F8803EFEF726FA054604E041
:103CD000FEF722FA401B022842D8736F9F07F7D4E1
:103CE000DFE7002580E74A6851027FF51AAF244AD2
:103CF000126892037FF538AF6268002A7FF434AF10
:103D0000DCE71F4A136843F480331360FEF704FABC
:103D10001B4E054604E0FEF7FFF9401B64281FD840
:103D200033689B03F7D51EE7154920690A6822F01E
:103D3000F80242EAC0020A601A077FF542AF9DE727
:103D4000336843F480733360FEF7E6F9074633685F
:103D5000D9053FF54EAFFEF7DFF9C01B0228F6D9B3
:103D6000032002B0BDE8F081054A136F43F0010360
:103D70001367FEF7D1F9024F064641F288380AE090
:103D8000003802400000474200700040FEF7C4F9CE
:103D9000801B4045E4D83B6F9A07F7D5002D3FF4D0
:103DA0004DAF44E0424A434E1360FEF7B5F9054675
:103DB00004E0FEF7B1F9401B0228D1D83368990717
:103DC000F7D42368FBE6012B3FF478AF6B68E26918
:103DD00003F4800191427FF471AF226A03F03F0146
:103DE00091427FF46BAF616A47F6C0721A40B2EB42
:103DF000811F7FF463AFA26A520803F44031013A95
:103E0000B1EB024F7FF45AAFE26A03F07063B3EB99
:103E1000026F14BF012000202DE7264B1A6842F4E0
:103E200080221A601A6842F480321A606EE7214AD2
:103E3000136C23F08053136400E71E4B1A6F42F09B
:103E400004021A671A6F42F001021A6791E7FEF73F
:103E500063F9064605E0FEF75FF9801B02283FF68E
:103E60007FAF2B689901F6D4D4E90731626A0B431E
:103E700043EA8213D4E90A21520843EA0163013A72
:103E80000B4943EA024301226B600A66FEF744F9DC
:103E9000084D044605E0FEF73FF9001B02283FF6F7
:103EA0005FAF2B689A01F6D5E4E60120704700BFAA
:103EB0000000474200380240164908B58B6803F0FD
:103EC0000C03042B1BD0082B17D14A684B68496898
:103ED00013F4800302F03F0213D10F48C1F388119D
:103EE000A1FB0001FCF7D4F90A4B5B68C3F3014363
:103EF00001335B00B0FBF3F008BD074808BD07487D
:103F000008BD0648C1F388110023A1FB0001FCF79E
:103F1000BFF9E9E7003802400024F40040787D0151
:103F2000002800F08780484A136803F007038B429B
:103F30002DE9F0410D46044609D2CBB21370136847
:103F400003F007038B4202D00120BDE8F081236813
:103F5000980714D5590704D53C498A6842F4E052C1
:103F60008A601A0704D539498A6842F460428A6037
:103F70003649A0688A6822F0F00202438A60DF07AF
:103F800021D56268012A57D0931E012B2F4B1B6845
:103F90004DD99907D8D52D4EB36823F003031343A9
:103FA000B360FEF7B9F841F28838074604E0FEF73F
:103FB000B3F8C01B404544D8B368626803F00C03F3
:103FC000B3EB820FF3D1204A136803F00703AB422F
:103FD00006D9EBB21370136803F00703AB42B3D1F9
:103FE00023685A0706D51949E0688A6822F4E05226
:103FF00002438A601B0707D5144A2169936823F49A
:10400000604343EAC1039360FFF756FF0F4A104C29
:1040100092681049C2F303120346A25C0E48D340D3
:1040200000680B60FDF7DAFB0020BDE8F081980125
:10403000B1D489E701207047044B1B689E03AAD4C2
:1040400082E7032081E700BF003C024000380240C5
:10405000ACA30008E8090020F0090020014B186813
:10406000704700BFE8090020044B05499B68054ADA
:104070000868C3F38223D35CD840704700380240FD
:10408000E8090020A4A30008044B05499B68054AE1
:104090000868C3F34233D35CD8407047003802400D
:1040A000E8090020A4A300080E4B0F2202609A68C2
:1040B00002F0030242609A6802F0F00282609A689D
:1040C00002F4E052C2609B68DB0810B403F4E053D2
:1040D000054C036123685DF8044B03F007030B6094
:1040E000704700BF00380240003C0240704700BFEC
:1040F000002869D070B590F83D30044603F0FF0207
:10410000002B4BD02268314E6168E068A56902231C
:1041100084F83D30B242136845D0B2F1804F17D0D9
:10412000A6F57C46B24213D006F58066B2420FD0A7
:1041300006F58066B2420BD0254EB2420CD006F591
:104140008066B24208D006F58066B24208D103E02C
:10415000A66823F070033343266923F44073334386
:1041600023F080032B431360D062916201235361DB
:1041700084F8463084F83E3084F83F3084F840308C
:1041800084F8413084F8423084F8433084F8443075
:1041900084F8453084F83D30002070BD80F83C2024
:1041A000FFF7A4FFAEE7A66823F070033343266948
:1041B00023F44073334323F080032B431360D06216
:1041C000916263691363D1E70120704700000140E9
:1041D0000040014090F83D30012B27D1036814497D
:1041E000022280F83D20DA688B4242F00102DA6058
:1041F00011D0B3F1804F0ED00E4A93420BD002F58E
:104200008062934207D002F58062934203D002F5A8
:104210009A32934204D19A6802F00702062A03D028
:104220001A6842F001021A600020704701207047AE
:104230000000014000040040002869D070B590F8EB
:104240003D30044603F0FF02002B4BD02268314E74
:104250006168E068A569022384F83D30B2421368C2
:1042600045D0B2F1804F17D0A6F57C46B24213D0AC
:1042700006F58066B2420FD006F58066B2420BD0DA
:10428000254EB2420CD006F58066B24208D006F543
:104290008066B24208D103E0A66823F0700333437E
:1042A000266923F44073334323F080032B431360C8
:1042B000D06291620123536184F8463084F83E3025
:1042C00084F83F3084F8403084F8413084F842303C
:1042D00084F8433084F8443084F8453084F83D3025
:1042E000002070BD80F83C20FDF77AFCAEE7A668A0
:1042F00023F070033343266923F44073334323F0E0
:1043000080032B431360D062916263691363D1E72A
:1043100001207047000001400040014091BB90F82F
:104320003E30012B3AD1022380F83E30036801F081
:104330001F01186A01228A4020EA02001862186AE6
:10434000224902438B421A6232D0B3F1804F0ED021
:104350001F4A93420BD002F58062934207D002F5C8
:104360008062934203D002F59A32934204D19A6854
:1043700002F00702062A03D01A6842F001021A600E
:104380000020704704290BD0082916D090F841303E
:10439000012B03D1022380F84130C7E70120704789
:1043A00090F83F30012BF9D1022380F83F30BDE770
:1043B0005A6C42F400425A64D9E790F84030012B1D
:1043C000ECD1022380F84030B0E700BF000001408C
:1043D0000004004070B504460D4600294BD190F80A
:1043E0003E100229C8B245D094F83E10012956D19A
:1043F000002A78D0606A5F4E022184F83E10114690
:104400002268C6635C4E06645C4EC6643432FEF7B6
:10441000EFF8002843D12368DA6842F40072DA60CA
:10442000196A05F01F050122AA4021EA020119625A
:10443000186A534902438B421A6279D0B3F1804F14
:104440000ED0504A93420BD002F58062934207D0BF
:1044500002F58062934203D002F59A32934204D16E
:104460009A6802F00702062A03D01A6842F0010295
:104470001A60002070BD042913D0082936D090F8A6
:1044800041100229C8B2F5D094F84110012906D193
:10449000002A69D002210C2D84F841104DD0012052
:1044A00070BD90F83F100229C8B2E3D094F83F10D5
:1044B0000129F4D1002A5AD0A06A2E4E022184F894
:1044C0003F1011462268C6632B4E06642B4EC6640D
:1044D0003832FEF78DF80028E1D12368DA6842F41B
:1044E0008062DA609CE7002B84D0D8E790F8401017
:1044F0000229C8B2BED094F840100129CFD1002AB9
:104500002FD0E06A1B4E022184F840101146226829
:10451000C663194E0664194EC6643C32FEF768F84D
:104520000028BCD12368DA6842F40062DA6077E7D9
:104530005A6C42F400425A6492E7206B0D4E1146C9
:104540002268C6630C4E06640C4EC6644032FEF709
:104550004FF80028A3D12368DA6842F48052DA6069
:104560005EE7002BCDD09AE7002B93D097E7002B86
:10457000A2D094E77947000801480008BD49000827
:104580000000014000040040034690F83C00012870
:1045900000F0B6800120F0B483F83C000C2A08D863
:1045A000DFE802F03B0707076007070788070707F0
:1045B0000D00002283F83C200120F0BC70471A68EF
:1045C0000E68106A20F480501062106A5568D46931
:1045D00024F4E64444EA06248E6820F4005040EABD
:1045E0000630614EB24200F0A9805560D4614C683B
:1045F00014641062D0690C6940F40060D061D16924
:1046000021F48061D161D16941EA0421D1610022A4
:1046100083F83C200020F0BC70471A680E68106ACE
:1046200020F001001062106A5568946924F0730448
:1046300034438E6820F0020030434B4EB24261D0CA
:10464000556094614C685463106290690C6940F045
:1046500008009061916921F0040191619169214301
:104660009161D4E71A680E68106A20F01000106299
:10467000106A5568946924F4E64444EA06248E6876
:1046800020F0200040EA0610374EB24247D0556075
:1046900094614C689463106290690C6940F4006006
:1046A0009061916921F480619161916941EA0421ED
:1046B0009161ACE71A680E68106A20F4807010628D
:1046C000106A5568D46924F0730434438E6820F46A
:1046D000007040EA0620244EB24235D05560D461C5
:1046E0004C68D4631062D0690C6940F00800D06156
:1046F000D16921F00401D161D1692143D16186E7FB
:1047000002207047CE6820F008003043D1E90567E9
:1047100025F440753E4320F00400354390E7CE6811
:1047200020F0800040EA0610D1E9056725F44065D5
:104730003E4320F0400045EA8605A8E74E6925F48F
:10474000804545EA861550E7CE6820F4006040EACF
:104750000620D1E9056725F440553E4320F48060EA
:1047600045EA0615BAE700BF00000140704700BFE8
:10477000704700BF704700BF10B5846B636A834207
:104780001CD0A36A83420BD0E36A834223D0236BFD
:10479000834229D02046FFF7EDFF0023237710BD89
:1047A00002222277DB69002BF4D1012384F83F3009
:1047B0002046FFF7DFFF0023237710BD0122227779
:1047C000DB69002BE6D184F83E202046FFF7D2FFBC
:1047D0000023237710BD04222277DB69002BD9D177
:1047E000012384F84030D5E708222277DB69002BCB
:1047F000D0D1012384F84130CCE700BF704700BF1F
:1048000010B5846B626A824219D0A26A8242034662
:104810000DD0E26A82421AD0226B824204BF082382
:1048200023772046FFF7EAFF0023237710BD0223FA
:1048300023772046FFF7E2FF0023237710BD0123F3
:1048400023772046FFF7DAFF0023237710BD0423E8
:1048500023772046FFF7D2FF0023237710BD00BF48
:10486000704700BF03681A69910710B5044602D566
:10487000DA6892075FD41A69500702D5DA685107DF
:1048800046D41A69120702D5DA6810072ED41A69BD
:10489000D20602D5DA68D00618D41A69D10702D533
:1048A000DA68D2075DD41A69100602D5DA681106F3
:1048B0005FD41A69520602D5DA68500661D41A69C3
:1048C000910602D5DA68920643D410BD6FF010014C
:1048D000082219612277DB6913F4407F204664D0F7
:1048E000FFF746FF002223682277D6E76FF0080122
:1048F000042219612277DB699907204652D1FFF71C
:1049000035FF2046FFF736FF002223682277BEE7F7
:104910006FF004010222196122779B6913F4407F32
:1049200020463CD1FFF722FF2046FFF723FF00225D
:1049300023682277A5E76FF002010122196102774F
:104940009B699B0725D0FFF713FF0022236822777E
:1049500091E76FF0200220461A61BDE8104000F098
:10496000A7B86FF001021A612046FCF70BFF23681D
:1049700099E76FF080021A61204600F09BF82368E7
:1049800097E76FF040021A612046FFF769FF23683E
:1049900095E7FFF7EBFE2046FFF7ECFED5E7FFF7C4
:1049A000E7FEC4E7FFF7E4FEAEE7FFF7DFFE2046D1
:1049B000FFF7E0FE96E700BF704700BF10B5846BBD
:1049C000636A83421CD0A36A83420ED0E36A8342A7
:1049D00020D0236B834228D0012384F83D30204629
:1049E000FFF7EAFF0023237710BD0123022284F89A
:1049F0003F3022772046FFF7DFFF0023237710BDEB
:104A00000123237784F83E302046FFF7D5FF0023AB
:104A1000237710BD0123042284F8403022772046FA
:104A2000FFF7CAFF0023237710BD0123082284F873
:104A3000413022772046FFF7BFFF0023237710BDC8
:104A400090F83C20012A2FD003460268022030B49F
:104A500083F83D0050680D68946820F0700028438A
:104A600050601248824212D0B2F1804F0FD0A0F5B0
:104A70007C4082420BD000F58060824207D000F576
:104A80008060824203D000F59A30824204D14968A6
:104A900024F080040C4394600020012283F83D2020
:104AA00083F83C0030BC7047022070470000014092
:104AB000704700BF704700BF002800F0868038B5FF
:104AC00090F83D30044603F0FF02002B78D02368B5
:104AD000E068242284F83D20DA6822F40052DA608B
:104AE0001969A26821F44051014320691961024308
:104AF0006069D9680243E06921F4164121F00C0194
:104B000002430A43DA605A69A069314922F44072CB
:104B100002438B425A6135D02E4A934232D0FFF77E
:104B2000A3FAE2691921B2F5004FD4E90053A0FBC2
:104B300001012AD09A009B0FFBF7AAFB264AA2FB91
:104B400000135B09642101FB130000013230A2FB5A
:104B500000201B0103EB5013AB602B6923F490433F
:104B60002B616B6923F02A036B61EB680021202223
:104B700043F40053EB60216484F83D2084F83E2028
:104B8000084638BDFFF780FACBE7DA184FF000038C
:104B90005B41FBF77DFB104AA2FB0031490964230E
:104BA00003FB1103DB003233A2FB0323C3F34212E6
:104BB0001B0902EB011203F4F8731344AB60CCE75A
:104BC00080F83C20FDF75EF981E70120704700BFC7
:104BD00000100140001401401F85EB5110B503681F
:104BE000596990F83D20212A044606D0596994F865
:104BF0003E20222A28D0002010BD0906F6D503F158
:104C0000140252E8002F22F0800203F1140040E861
:104C100000210029F3D1606B10B1FDF725FD236859
:104C200003F10C0252E8002F22F0C00203F10C0045
:104C300040E800210029F3D1202284F83D20596961
:104C400094F83E20222AD6D14A06D4D503F1140284
:104C500052E8002F22F0400203F1140040E8002146
:104C60000029F3D1A06B10B1FDF7FEFC236803F11E
:104C70000C0252E8002F22F4907203F10C0040E87D
:104C800000210029F3D103F1140252E8002F22F091
:104C9000010203F1140040E800210029F3D1226B46
:104CA000012A06D02022002384F83E20002023631E
:104CB00010BD03F10C0252E8002F22F0100203F1A4
:104CC0000C0040E800210029F3D1EBE7704700BF5A
:104CD000704700BF704700BF704700BF08B5806BCA
:104CE0000368596990F83D20212A0BD0596990F842
:104CF0003E20222A1ED0036C43F010030364FFF70A
:104D0000EBFF08BD0906F1D50022C28403F10C02B5
:104D100052E8002F22F0C00203F10C0C4CE80021F5
:104D20000029F3D1202280F83D20596990F83E20D7
:104D3000222AE0D14A06DED50022C28503F10C0208
:104D400052E8002F22F4907203F10C0C4CE8002181
:104D50000029F3D103F1140252E8002F22F00102DE
:104D600003F1140C4CE800210029F3D1026B012A55
:104D700005D02022002380F83E200363BBE703F127
:104D80000C0252E8002F22F0100203F10C0C4CE848
:104D900000210029F3D1ECE708B5806B0023C3851F
:104DA000C384FFF799FF08BD806B08B5036B012B27
:104DB00002D0FFF78FFF08BD818D4908FBF7C6FDC4
:104DC00008BD00BF08B50368806B1A6812F48072D2
:104DD0002BD10368C28503F10C0252E8002F22F4A4
:104DE000807203F10C0C4CE800210029F3D103F18F
:104DF000140252E8002F22F0010203F1140C4CE8D7
:104E000000210029F3D103F1140252E8002F22F00F
:104E1000400203F1140C4CE800210029F3D12022B8
:104E200080F83E20026B012A05D0036B012B0FD0C6
:104E3000FFF74EFF08BD03F10C0252E8002F22F0ED
:104E4000100203F10C0C4CE800210029F3D1ECE72F
:104E5000818DFBF77BFD08BD83680168826AB3F52D
:104E6000805F41D0002B38D04B6803F07F03137074
:104E7000826A0132C38D8262013B9BB2C385002BE3
:104E800031D10268D16821F0200100B5D160D1682C
:104E900021F48071D16051694FF0200C21F00101A3
:104EA000516180F83EC0016B012983B025D10363B5
:104EB00002F10C0353E8003F23F0100302F10C0C45
:104EC0004CE800310029F3D11368DB061AD4818D38
:104ED000FBF73CFD03B05DF804FB0369002BC3D175
:104EE0004B68DBB2C3E770470369002BF8D14B680E
:104EF000C3F3080322F8023BBCE7FFF7E9FE03B067
:104F00005DF804FB00230193136801935368019338
:104F1000019BDCE730B503681A68DD68596912F057
:104F20000F0F83B004466ED1910602D5A90600F199
:104F30009F80216B01290BD0100602D5290600F1B4
:104F4000A180520602D5680600F1BB8003B030BDD7
:104F5000D006F1D5E906EFD5002201921A68019238
:104F60005A680192019A5A69550640F13481A06B42
:104F70000268526892B2002AE8D0A18D9142E5D928
:104F8000E285C269B2F5807F36D003F10C0252E8A7
:104F9000002F22F4807203F10C0545E8002100295E
:104FA000F3D103F1140252E8002F22F0010203F1C1
:104FB000140545E800210029F3D103F1140252E859
:104FC000002F22F0400203F1140545E800210029DA
:104FD000F3D1202284F83E20216303F10C0252E831
:104FE000002F22F0100203F10C0545E800210029F2
:104FF000F3D1FDF739FBA18DE38DC91A204689B2A3
:10500000FBF7A4FCA2E711F0010178D115F4907F21
:105010008FD0D0070AD5E80540F1D980206C40F048
:105020000100206450075BD500296CD1900770D532
:10503000100700F1C980216C002987D0910609D59D
:10504000AA0607D594F83E20222A03D12046FFF76E
:1050500003FF23685A69216C02F0400201F0080145
:1050600052EA01055CD12046FFF736FE25646DE764
:1050700090F83E30222B7FF469AF03B0BDE830409A
:10508000FFF7EABE94F83D20212A7FF45FAFA168C4
:10509000226AB1F5805F00F0D780511C216212783E
:1050A0005A60E28C013A92B2E284002A7FF44EAF59
:1050B000DA6822F08002DA60DA6842F04002DA60F0
:1050C00044E7DA68202122F04002DA60204684F8C2
:1050D0003D10FFF7FBFD39E7E8059FD4500712D4D8
:1050E000900716D50029A3D0216C41F0040121645A
:1050F0001107A0D5216C41F0080121649BE7D0077E
:10510000EAD450075BD5206C40F002002064900781
:10511000EAD410078FD505F0200008438BD0E9E7CB
:1051200003F10C0252E8002F22F4907203F10C00FC
:1051300040E800210029F3D103F1140252E8002FC6
:1051400022F0010203F1140040E800210029F3D10C
:10515000226B012A22D00022202184F83E102263F3
:105160005A69550627D503F1140252E8002F22F0A0
:10517000400203F1140040E800210029F3D1A06BA4
:10518000C8B1374B0365FDF7B9FA00283FF4DEAE2E
:10519000A06B036D03B0BDE83040184703F10C026B
:1051A00052E8002F22F0100203F10C0040E8002129
:1051B0000029F3D1CFE72046FFF78EFDC6E6910721
:1051C00092D4110796D436E7A90693D433E7500753
:1051D0003FF52CAF84E7E18DE28DA08D92B289B2CC
:1051E000002A3FF4B3AE411A89B200293FF4AEAEB3
:1051F00003F10C0252E8002F22F4907203F10C0527
:1052000045E800200028F3D103F1140252E8002FF2
:1052100022F0010203F1140545E800200028F3D133
:10522000202284F83E20206303F10C0252E8002F74
:1052300022F0100203F10C0545E800200028F3D10C
:105240002046FBF783FB81E6216900297FF425AF27
:1052500032F8021BC1F308015960226221E700BF46
:10526000994D000870B513460025222204460564B6
:10527000816280F83E208385806B1F4E05650A465B
:105280002168C6631D4E06641D4EC66482B004319B
:10529000FDF7AEF9236801951A68019259682269F1
:1052A0000191019984F83C505AB103F10C0252E883
:1052B000002F42F4807203F10C0040E80021002925
:1052C000F3D103F1140252E8002F42F0010203F17E
:1052D000140040E800210029F3D103F1140252E840
:1052E000002F42F0400203F1140141E800200028A1
:1052F000F3D102B070BD00BFC54D0008A94D000834
:10530000DD4C000890F83EC0BCF1200F15D1C9B1AA
:1053100030B583B072B190F83C30012B04460ED00A
:10532000012380F83C300363FFF79CFF18B9236B1F
:10533000012B09D0012003B030BD022070470220AC
:1053400003B030BD012070472268019013680193BB
:1053500053680193019B02F10C0353E8003F43F0B3
:10536000100302F10C0444E800310029F3D1E2E714
:1053700084B082B00DF10C0C8CE80E00089A012A62
:1053800003462CD1826B0F9922F480328263C2686B
:1053900022F4840222F04002C260C268012922F491
:1053A0004012C2605FD000223149009202E01A69C7
:1053B000002A2DDB009A01320092009A8A42F6D927
:1053C0000320069A012A07D19A6842F006029A60E1
:1053D0009A6842F020029A6002B004B07047C26836
:1053E0002349002042F04002DA60019002E01A698D
:1053F000002A25DB019A01320192019A8A42F6D9EC
:1054000003200C9ABAB99A6B42F480329A63D8E7B7
:10541000002200921A69164942F001021A6103E063
:10542000186910F00100CCD0009A01320092009A65
:105430008A42F5D9C4E79A6B22F480329A63C0E7B6
:10544000002201921A690A4942F001021A6103E03E
:10545000186910F00100D4D0019A01320192019A2A
:105460008A42F5D9CCE7C26842F48012C2609AE75A
:10547000400D0300022A03460AD04FF41051DA68A7
:1054800022F47052DA60DA680A430020DA6070476A
:10549000264A27480A44824232D9264A26480A44E4
:1054A000824230D92548A1F57402A2F510528242F9
:1054B0002CD92348A1F18372A2F5E742824228D376
:1054C000204A21480A44824226D9204A20480A44D8
:1054D000824224D31F4A20480A448242CDD31F4827
:1054E000A1F1B772A2F5585282421BD31C4A1D4843
:1054F0000A4482422CBF4FF4C0514FF4E051BEE742
:105500004FF47051BBE74FF46051B8E74FF450517E
:10551000B5E74FF44051B2E74FF43051AFE74FF4E5
:105520002051ACE74FF40051A9E700BF405327FFDB
:10553000FF340C00401E1BFF3F420F007F4F120044
:1055400020D6130060B6E5FE5FE3160000D3CEFE62
:1055500040771B00C05BB3FEC0912100207538006E
:10556000E05459FEE09C4100034600209A6842F056
:1055700001029A60704700BF034600209A6822F03B
:1055800001029A60704700BF38B5C368012923F053
:10559000C0430546C36018D0A9B9C36843F080432F
:1055A0000C46C36001E0322C0DD00120FCF7BAFD9F
:1055B0006B69DB0704F10104F5D4A4F13200B0FA01
:1055C00080F0400938BD012038BDC36843F0005366
:1055D0000024C36001E0322CF5D00120FCF7A2FDCD
:1055E0006B69DA0704F10104F5D5A4F13200B0FAD1
:1055F00080F04009E6E700BF84B0F0B583B009ACA5
:10560000139D84E80E000022C0F804210346C0F870
:1056100008210C46C0F80C2100F5006CC0F81021E0
:10562000C0F81421C0F81821C0F81C21C0F82021AE
:10563000C0F82421C0F82821C0F82C21C0F830215E
:10564000C0F83421C0F83821C0F83C21002D40F0CA
:10565000B380DCF8042042F00202CCF80420826B14
:1056600042F400128263826B22F400228263826B16
:1056700022F4802282630022C3F8002ED3F800288F
:10568000C3F800280E9A012A00F0C380D3F800283E
:1056900042F00302C3F8002800226549009203E0AB
:1056A0001A69002AC0F2A280009A01320092009A80
:1056B0008A42F5D9012000225D49019203E01A696E
:1056C000002AC0F28280019A01320192019A8A4234
:1056D000F5D901200021CCF81010CCF81410CCF82A
:1056E0001C10FCB1D3F80069002E03F5106214DB26
:1056F000002616604FF0000E4FF67F3701318C42C6
:10570000C2F810E0976002F1200233D01668002E34
:10571000EEDA4FF090461660F0E74FF00066C3F8FF
:105720000069E7E7DCF8102022F48072CCF8102042
:1057300000210C9A99616FF0804159611AB99A69F8
:1057400042F010029A6199693A4A0A430F999A61A4
:1057500019B19A6942F008029A61012D05D19A693E
:1057600042F0804242F004029A6103B0BDE8F0408A
:1057700004B07047D3F8001B002903F5306215DB35
:105780000021002616604FF0000E4FF67F370131E2
:105790008C42C2F810E0976002F12002C2D0166875
:1057A000002EEEDA4FF090461660F0E74FF0006101
:1057B000C3F8001B0021E6E7826B22F4001282632B
:1057C000826B42F40022826355E70022019210228C
:1057D00017491A6103E01A69D2067FF57BAF019A77
:1057E00001320192019A8A42F5D972E700220092B1
:1057F0004FF484620E491A6104E0186910F0200029
:105800003FF459AF009A01320092009A8A42F4D9CB
:1058100050E70B9A22B9D3F80028C3F800283BE7D9
:10582000D3F8002842F00102C3F8002834E700BF93
:10583000400D030000383C8082B00023124A0193DF
:1058400002E00369002B08DB019B01330193019BFC
:105850009342F6D9032002B070478901002341F03A
:1058600020010193084A016103E0036913F020035A
:1058700006D0019B01330193019B9342F5D9E9E7DF
:10588000184602B0704700BF400D0300D0F808383A
:1058900013F0060004D013F0020F14BF02200F20F3
:1058A000704700BF10B50A78012302F00F0E03FA0B
:1058B0000EF391F801E0BEF1010F00F5006C00EB72
:1058C00042101AD0DCF81C2042EA0343CCF81C300A
:1058D000D0F8003B1B040ED4CB68D0F8004B0A79FB
:1058E000C3F30A03234343EA824343F0805343F460
:1058F0000043C0F8003B002010BDDCF81C402343EF
:10590000CCF81C30D0F800391C04F4D4CB68D0F8A3
:1059100000490979C3F30A03234343EA814343EA75
:10592000825343F0805343F40043C0F80039002011
:1059300010BD00BF10B40A784978012900EB42136A
:105940002CD0D3F8001B00291BDBD0F83C484FF4C7
:10595000803102F00F0201FA02F224EA0204C0F8D8
:105960003C48D0F81C48224924EA0202C0F81C280E
:10597000D3F8002B5DF8044B11400020C3F8001B46
:105980007047D3F8001B41F00061C3F8001BD3F847
:10599000001B41F08041C3F8001BD6E7D3F8001983
:1059A00000290BDAD3F8001941F00061C3F800199F
:1059B000D3F8001941F08041C3F80019D0F83C1821
:1059C00002F00F040122A24021EA0201C0F83C18B3
:1059D000D0F81C48074924EA0202C0F81C28D3F872
:1059E00000295DF8044B11400020C3F800197047EE
:1059F0000078F3EF007833EC2DE9F0474E7891F81A
:105A000000E08C6991F804C0012E00EB4E1358D0D1
:105A1000D3F8105BED0CED04C3F8105BD3F8105B0A
:105A200025F0FF5525F4C015C3F8105B03F5306E63
:105A3000CD688CB3784E2C44013CB4FBF5F4A4B291
:105A400004FB05F506EAC444DEF81060CD6134437A
:105A5000CEF81040DEF81040C5F312052543012AA8
:105A6000CEF8105027D0BCF1010F0CD1D0F8082887
:105A700012F4807FD3F8002B0CBF42F0005242F0AA
:105A80008052C3F8002BD3F8002B42F00442C3F835
:105A9000002B0020BDE8F087DEF81040C5F31205AA
:105AA0002543CEF81050DEF81040012A44F40024BB
:105AB000CEF81040D7D10A69002AD4D0CEF81420ED
:105AC000D1E703F51065002C39D12E6926F0FF5679
:105AD00026F4C0162E612E6946F400262E612E692A
