:020000040800F2
:1000000000000220591700085D1200086112000864
:1000100065120008691200086D1200080000000057
:1000200000000000000000000000000051930008E4
:100030007112000800000000E193000879780008C0
:10004000A9170008A9170008A9170008A917000890
:10005000A9170008A9170008A9170008A917000880
:10006000A9170008A9170008A917000875120008A9
:10007000811200088D120008A9170008A9170008AE
:1000800099120008A9170008A9170008000000002D
:10009000000000000000000000000000A917000898
:1000A000A9170008A5120008A9170008A917000839
:1000B000A9170008A9170008A9170008B11200081D
:1000C000BD120008C9120008D5120008A9170008BF
:1000D000A9170008A9170008A917000800000000C8
:1000E000A9170008A9170008A917000800000000B8
:1000F000000000000000000000000000A917000838
:1001000000000000A9170008A9170008A917000897
:1001100000000000000000000000000000000000DF
:10012000A9170008A9170008A9170008A9170008AF
:10013000A9170008000000000000000000000000F7
:10014000000000000000000000000000E1120008B4
:10015000A9170008A9170008A9170008A91700087F
:10016000ED120008F9120008000000000000000075
:10017000000000000000000000000000000000007F
:1001800000000000A91700080000000000000000A7
:08019000A9170008A9170008D7
:1001A00010B5054C237833B9044B13B10448AFF3B1
:1001B00000800123237010BD08040020000000000F
:1001C00074A1000808B5034B1BB103490348AFF302
:1001D000008008BD000000000C04002074A100088D
:1001E00001F0FF01102A2BDB10F0070F08D010F8E8
:1001F000013B013A8B422DD010F0070F42B3F6D1EC
:10020000F0B441EA012141EA014122F007047FF004
:1002100000070023F0E80256083C85EA010586EA5B
:10022000010685FA47F5A3FA87F586FA47F6A5FA97
:1002300087F68EB9EED1F0BC01F0FF0102F00702A3
:1002400032B110F8013B013A83EA010313B1F8D14E
:100250000020704701387047002D06BF354603382F
:10026000073815F0010F07D1013015F4807F02BF68
:10027000013015F4C03F0130F0BC0138704700BFB9
:1002800053B94AB9002908BF00281CBF4FF0FF31FD
:100290004FF0FF3000F074B9ADF1080C6DE904CEF9
:1002A00000F006F8DDF804E0DDE9022304B0704751
:1002B0002DE9F047089D04468E46002B4DD18A4219
:1002C000944669D9B2FA82F252B101FA02F3C2F14C
:1002D000200120FA01F10CFA02FC41EA030E9440DD
:1002E0004FEA1C48210CBEFBF8F61FFA8CF708FBFE
:1002F00016E341EA034306FB07F199420AD91CEBD6
:10030000030306F1FF3080F01F81994240F21C8107
:10031000023E63445B1AA4B2B3FBF8F008FB10334F
:1003200044EA034400FB07F7A7420AD91CEB040484
:1003300000F1FF3380F00A81A74240F20781644454
:10034000023840EA0640E41B00261DB1D4400023D9
:10035000C5E900433146BDE8F0878B4209D9002D3D
:1003600000F0EF800026C5E9000130463146BDE8C7
:10037000F087B3FA83F6002E4AD18B4202D3824231
:1003800000F2F980841A61EB030301209E46002DE0
:10039000E0D0C5E9004EDDE702B9FFDEB2FA82F235
:1003A000002A40F09280A1EB0C014FEA1C471FFA93
:1003B0008CFE0126200CB1FBF7F307FB131140EA7A
:1003C00001410EFB03F0884208D91CEB010103F147
:1003D000FF3802D2884200F2CB804346091AA4B209
:1003E000B1FBF7F007FB101144EA01440EFB00FEDD
:1003F000A64508D91CEB040400F1FF3102D2A64542
:1004000000F2BB800846A4EB0E0440EA03409CE7E0
:10041000C6F12007B34022FA07FC4CEA030C20FA8D
:1004200007F401FA06F31C43F9404FEA1C4900FAAD
:1004300006F3B1FBF9F8200C1FFA8CFE09FB18112A
:1004400040EA014108FB0EF0884202FA06F20BD99D
:100450001CEB010108F1FF3A80F08880884240F2ED
:100460008580A8F102086144091AA4B2B1FBF9F031
:1004700009FB101144EA014100FB0EFE8E4508D92C
:100480001CEB010100F1FF346CD28E456AD90238B1
:10049000614440EA0840A0FB0294A1EB0E01A14296
:1004A000C846A64656D353D05DB1B3EB080261EB04
:1004B0000E0101FA07F722FA06F3F1401F43C5E9DE
:1004C000007100263146BDE8F087C2F12003D84014
:1004D0000CFA02FC21FA03F3914001434FEA1C4756
:1004E0001FFA8CFEB3FBF7F007FB10360B0C43EA48
:1004F000064300FB0EF69E4204FA02F408D91CEBF8
:10050000030300F1FF382FD29E422DD902386344F5
:100510009B1B89B2B3FBF7F607FB163341EA034195
:1005200006FB0EF38B4208D91CEB010106F1FF38E4
:1005300016D28B4214D9023E6144C91A46EA0046DB
:1005400038E72E46284605E70646E3E61846F8E66D
:100550004B45A9D2B9EB020864EB0C0E0138A3E7B6
:100560004646EAE7204694E74046D1E7D0467BE797
:10057000023B614432E7304609E76444023842E70F
:10058000704700BF704700BF2DE9F04F2A4DDFF8DC
:10059000B4802A4CDFF8B0B085B005F110062F46C4
:1005A0004FF0640A4FF0010917F8012F0094CDE9CC
:1005B000019A01236E21584602F02EF810B92378D3
:1005C00088F80030B74208F10108EDD1DFF87C80EF
:1005D000DFF87CB02F464FF0640A4FF0010917F89E
:1005E000012F0094CDE9019A01236E21584602F0B3
:1005F00013F810B9237888F80030B74208F10108E1
:10060000EDD10F4FDFF84C904FF0640A4FF0010826
:10061000CDE9018A15F8012F009401236E21484687
:1006200001F0FAFF08B923783B70B54207F10107E2
:10063000EED105B0BDE8F08F830000202404002037
:10064000E4000020C40000205C050020D40000204D
:10065000B005002004060020F0B587B0012305AAEC
:1006600064258DE82C00324E00228DF814200322E0
:1006700086F87A206E217A22044601F0CDFF9DF89B
:100680001430032B4DD08027CDE90175009601234E
:1006900000226E21204601F0CBFE0028F4D1254F28
:1006A00064260225CDE90156009701237E226E21A2
:1006B000204601F0BDFE0028F4D18DF815500DF153
:1006C000150764260125CDE90156009701238622EE
:1006D0006E21204601F0ACFE0028F4D1DC2007F0AA
:1006E00051F90DF11603022200938DF81620CDE981
:1006F0000156012388226E21204601F08DFF80B132
:100700009DF816307BB90DF11703FF270093CDE953
:100710000156012386226E2120468DF8177001F0C4
:1007200087FE07B0F0BD2046FFF796FF07B0F0BD8B
:10073000040000200000002030B583B000232A4AC6
:100740000093116B29482A4D41F480011163116B0C
:1007500001F48001009100990193116B436041F411
:1007600000111163126B436102F4001201928022A6
:100770004FF4007482604FF48062C0E90342019933
:10078000056004210322C0E90633C0E90831C0E94D
:100790000A23036301F0A6F810BB002205210B20F9
:1007A00001F054F80B2001F08FF8002205210C20F5
:1007B00001F04CF80C2001F087F8002205210D20F3
:1007C00001F044F80D2001F07FF8102000220521EF
:1007D00001F03CF8102003B0BDE8304001F074B8DF
:1007E00000F0CEFCD9E700BF00380240280400200A
:1007F0001064024008B5012007F0C4F8FBE700BF11
:1008000080B52B4C2B4D2C4FDFF8B090DFF8B0A00B
:100810004FF001080026012007F0B4F82378002BE0
:10082000F9D02B787B2B01D02670F4E76B78483B0E
:100830000B2BF9D801A252F823F000BF8108000861
:100840002908000829080008290800088F0800085E
:1008500029080008290800082908000829080008B4
:10086000290800086D08000887080008EB783E702A
:10087000452B89F80080D7D0722B12D06B2B10D06B
:100880003E702670C7E787F800802670C3E7EB78D4
:100890003E70452B89F80080C6D0722B01D06B2B9F
:1008A000C2D1D5F80130CAF801302670B3E700BFD5
:1008B0001807002058060020990400209804002002
:1008C000F40000202DE9F047082084B007F05AF822
:1008D000B948BA4FBA4DBB4CDFF8F482DFF8F49256
:1008E000DFF8F4A2FFF7B8FEB748FFF7B5FEB74848
:1008F000FFF7B2FE2026052007F044F8FFF744FE7C
:1009000097E8070001AB03C394F800C01A7063783E
:1009100015F80CC0EB5CBCF1800F88BF8DF80B6044
:10092000802B05D99DF80B3043F010038DF80B3068
:10093000A378EB5C802B05D99DF80B3043F00803BE
:100940008DF80B30E378EB5C802B05D99DF80B30EC
:1009500043F004038DF80B302379EB5C802B05D931
:100960009DF80B3043F002038DF80B306379EB5C9C
:10097000802BA37988BF8DF80A60EB5C802B05D9AA
:100980009DF80A3043F010038DF80A30E379EB5CF0
:10099000802B05D99DF80A3043F008038DF80A3002
:1009A000237AEB5C802B05D99DF80A3043F00403D1
:1009B0008DF80A30637AEB5C802B05D99DF80A30FC
:1009C00043F002038DF80A30A37AEB5C802BE37AC4
:1009D00088BF8DF80960EB5C802B05D99DF8093044
:1009E00043F010038DF80930237BEB5C802B05D995
:1009F0009DF8093043F008038DF80930637BEB5C08
:100A0000802B05D99DF8093043F004038DF8093097
:100A1000A37BEB5C802B05D99DF8093043F00203E2
:100A20008DF80930E37BEB5C802B237C88BF8DF84D
:100A30000860EB5C802B05D99DF8083043F010036B
:100A40008DF80830637CEB5C802B05D99DF808306D
:100A500043F008038DF80830A37CEB5C802B05D9AC
:100A60009DF8083043F004038DF80830E37CEB5C1C
:100A7000802B05D99DF8083043F002038DF808302B
:100A8000237DEB5C802B637D88BF8DF80760EB5C7A
:100A9000802B05D99DF8073043F010038DF80730FF
:100AA000A37DEB5C802B05D99DF8073043F008034C
:100AB0008DF80730E37DEB5C802B05D99DF807307E
:100AC00043F004038DF80730237EEB5C802B05D9BF
:100AD0009DF8073043F002038DF80730637EEB5C2E
:100AE000802BA37E88BF8DF80660EB5C802B05D938
:100AF0009DF8063043F010038DF80630E37EEB5C82
:100B0000802B05D99DF8063043F008038DF8063098
:100B1000237FEB5C802B05D99DF8063043F004035E
:100B20008DF80630637FEB5C802B05D99DF806308D
:100B300043F002038DF80630A37FEB5C802BE37F4C
:100B400088BF8DF80560EB5C802B05D99DF80530DA
:100B500043F010038DF8053094F82030EB5C802BC7
:100B600005D99DF8053043F008038DF8053094F859
:100B70002130EB5C802B05D99DF8053043F0040350
:100B80008DF8053094F82230EB5C802B05D99DF868
:100B9000053043F002038DF8053098F80030012B42
:100BA0001CD099F80030012B7FF4A5AE092201A9D1
:100BB000002005F015FB9EE65C0500208CA10008D6
:100BC000C400002094000020B0050020040600208E
:100BD0009804002099040020F400002006225146C9
:100BE000002005F0FDFA002388F8003083E600BFFE
:100BF00008B5012006F0C6FEFBE700BF10B5104A9D
:100C00001048002106F072FE0F4B104A04460021E6
:100C10000F481C6006F06AFE0E4B0F4A0446002186
:100C20000E481C6006F062FE0D4B0E4A0446002181
:100C30000D481C6006F05AFE0C4B186010BD00BF3A
:100C400028A20008C508000894040020BCA10008E0
:100C5000F507000888040020E0A10008010800084A
:100C60008C04002004A20008F10B0008900400206E
:100C70002DE9F04100248AB0CDE90444CDE90644D1
:100C80002D4B009408941A6BDFF8B8802B4842F083
:100C900004021A631A6B02F004020092009A019493
:100CA0001A6B42F080021A631A6B02F08002019202
:100CB000019A02941A6B42F001021A631A6B02F055
:100CC00001020292029A03941A6B42F002021A6322
:100CD0001B6B03F00203039322464FF46041039B16
:100CE000012601F08FF8002704A94FF46042012388
:100CF0001248CDE90423CDE9066700F091FF04A96D
:100D0000404602220023CDE904230125069400F089
:100D100087FFFC220023404604A9CDE90423069561
:100D200000F07EFF0648069504A9CDE9046700F0AF
:100D300077FF0AB0BDE8F0810038024000080240A9
:100D4000000402400000024010B50B480B4C0C4957
:100D500000234FF48042C0E90041C0E90233C0E9FA
:100D60000423C0E90633036201F09AFA00B910BD0A
:100D7000BDE8104000F004BA5C05002000540040BB
:100D8000A086010010B50B480B4C0C4900234FF412
:100D90008042C0E90041C0E90233C0E90423C0E950
:100DA0000633036201F07CFA00B910BDBDE81040C3
:100DB00000F0E6B9B005002000580040A086010010
:100DC00010B50B480B4C0C4900234FF48042C0E98E
:100DD0000041C0E90233C0E90423C0E906330362DD
:100DE00001F05EFA00B910BDBDE8104000F0C8B9CE
:100DF00004060020005C0040A08601002DE9F043BD
:100E000003688D4A8FB000249342CDE90844CDE9B0
:100E10000A4405460C9409D0884A934259D0884A1E
:100E2000934200F099800FB0BDE8F083854F0194A4
:100E30003B6B8548854E43F002033B633B6B03F0FD
:100E400002030193019B4FF440721223CDE9082362
:100E50000423012208A90C930323CDE90A2300F0FF
:100E6000DFFE02943B6CB46043F400133B643B6CC4
:100E7000774AF46003F4001302934FF00073C6E95D
:100E800000234FF48073C6E906434FF480624FF4A9
:100E900040333046C6E90424C6E90834029900F01C
:100EA00021FD002840F0C180AE63002205211F20F3
:100EB000B56300F0CBFC1F2000F006FD00220521E9
:100EC000202000F0C3FC202000F0FEFC0FB0BDE8A5
:100ED000F0835C4D03942B6B5B4843F002032B6360
:100EE0002B6B03F0020303934FF480621223CDE9CE
:100EF00008230126039B032708A904230C93CDE9AB
:100F00000A6700F08DFE092308A90C93082212231A
:100F10004D48CDE90823CDE90A6700F081FE04942D
:100F20002B6C43F480032B642B6C03F48003224668
:100F3000052104932120049B00F088FC212000F06F
:100F4000C3FC22460521222000F080FC222000F074
:100F5000BBFC0FB0BDE8F0833A4F05943B6B3D48B6
:100F60003D4E43F001033B633B6B03F001030593EC
:100F7000059B06943B6B43F002033B633B6B03F022
:100F8000020306934FF48072069B1223CDE90823D7
:100F900008A904234FF001084FF003090C93CDE991
:100FA0000A8900F03DFE0923102227480C9308A966
:100FB0001223CDE90823CDE90A8900F031FE079418
:100FC0003B6CB46043F400033B643B6C234AF46025
:100FD00003F4000307934FF0C063C6E900234FF406
:100FE0008073C6E906434FF480624FF440333046C5
:100FF000C6E90424C6E90834079900F073FCB8B9BF
:1010000000220521AE634820B56300F01FFC482094
:1010100000F05AFC00220521492000F017FC49206D
:1010200000F052FC0FB0BDE8F08300F0A9F83BE7F8
:1010300000F0A6F8E4E700BF00540040005800406C
:10104000005C004000380240000402409C04002084
:101050001060024000000240FC040020406002409A
:1010600010B5002394B0CDE90A33CDE90C33CDE9B6
:101070000233CDE90433264900930693086C254AD0
:1010800040F080500864096C01F080510091009993
:101090000193136843F44043136013689FED167B7C
:1010A00003F44043022101934FF480001923CDE95A
:1010B0000E10C022109308A804238DED087BCDE903
:1010C0001121019C139303F035FB08B172B6FEE7C2
:1010D0009FED0B7B8DED027B9FED0B7B0346032188
:1010E00002A88DED047B069303F03CFD08B172B6B7
:1010F000FEE714B010BD00BF0100000000000100B9
:101100000F000000020000000000000000100000BE
:10111000003802400070004008B500F047FBFFF7C0
:101120009FFF114B1A6F22F001021A671A6F22F00B
:1011300004021A67FFF79CFDFFF7FEFAFFF704FEB3
:10114000FFF73EFE00F09CFA00F00AF900F098F973
:10115000FFF718FE04F086FF06F09CFBFFF74EFD3C
:1011600006F0AAFBFEE700BF00380240034B02680E
:101170009A4200D0704700F033BB00BF000001402E
:1011800072B6FEE782B00E4B00220092596C41F419
:1011900080415964586C00F480400090009801929E
:1011A000186C40F0805018641B6C03F0805301935E
:1011B000019B0F216FF0010002B000F047BB00BFA0
:1011C0000038024070B588B000251F4B02955A6C5C
:1011D0001E4C42F001025A645B6C03F0010301A94A
:1011E0000293064603A8029B03F080FD03F06EFD08
:1011F000174A226003461748256140F2E732E26051
:10120000A0FB03239B0C013B2046C4E90135A561EB
:1012100003F090FD054610B1284608B070BD204689
:1012200003F006FE05460028F6D1192000F04CFB1D
:101230000F2E01D90125EFE72A463146192000F08B
:1012400005FB054B1E60E7E7003802401C07002045
:101250000000014083DE1B4304010020FEE700BFC5
:10126000FEE700BFFEE700BFFEE700BFFEE700BFEE
:10127000704700BF014800F0DFBB00BF9C040020A6
:10128000014800F0D9BB00BFC8070020014800F0AA
:10129000D3BB00BFFC040020014800F0CDBB00BF61
:1012A00068070020014803F081BF00BF1C07002031
:1012B000014801F001BD00BF5C050020014802F0BB
:1012C000B1B900BF5C050020014801F0F5BC00BFCA
:1012D000B0050020014802F0A5B900BFB00500200C
:1012E000014802F015BB00BFB8080020014801F01A
:1012F000E3BC00BF04060020014802F093B900BF20
:101300000406002010B50C4C0C4B0D492268591AEC
:101310002AB11044884207D82060104610BD094AFF
:10132000226010448842F7D908F070FA0C234FF07D
:10133000FF320360104610BD640700200000022049
:101340000004000030720020034AD2F8883043F4D1
:101350007003C2F88830704700ED00E00000000024
:1013600010B5414C92B04FF08042002322602046DD
:101370007722CDE90233CDE90A33CDE90C33CDE94B
:101380000E33C4E901331093E2602361A36103F0DB
:1013900083FD18BB00220023334802A9CDE90223B4
:1013A00003F0AEFF00BB9FED2A7B00222E480C927B
:1013B0000AA98DED0A7B0E9203F0ECFD88B9226834
:1013C0000023B2F1804FCDE90433CDE90633089311
:1013D0000DD026498A4222D012B010BDFFF7D0FEB0
:1013E000D8E7FFF7CDFEEAE7FFF7CAFEDBE702F535
:1013F0000E320093136B1E4843F001031363136B0B
:101400009FED157B03F00103009304A901238DEDEB
:10141000047B009A089300F003FC12B010BD154A3B
:101420000193136B144843F002031363136B9FED96
:101430000C7B03F00203019304A902238DED047BCE
:10144000019A089300F0ECFB12B010BDAFF30080DE
:101450006000000000000000010000000200000029
:1014600040000000020000002808002000080040A2
:10147000000002400038024000040240000000006A
:1014800010B5414C414A226092B000234FF6FF72E2
:101490002046CDE90233CDE90A33CDE90C33CDE95D
:1014A0000E33C4E901331093E2602361A36103F0BA
:1014B000F3FC18BB00220023334802A9CDE9022324
:1014C00003F01EFF00BB9FED2A7B00222E480C92EA
:1014D0000AA98DED0A7B0E9203F05CFD88B92268A3
:1014E0000023B2F1804FCDE90433CDE906330893F0
:1014F0000DD026498A4222D012B010BDFFF740FE1F
:10150000D8E7FFF73DFEEAE7FFF73AFEDBE702F533
:101510000E320093136B1E4843F001031363136BE9
:101520009FED157B03F00103009304A901238DEDCA
:10153000047B009A089300F073FB12B010BD154AAB
:101540000193136B144843F002031363136B9FED75
:101550000C7B03F00203019304A902238DED047BAD
:10156000019A089300F05CFB12B010BDAFF300804D
:101570006000000000000000010000000200000008
:101580004000000002000000700800200008004039
:1015900000000240003802400004024070B50368B9
:1015A000B3F1804F82B012D02F4A934201D002B0E3
:1015B00070BD2E4B002201921A6C42F004021A6494
:1015C0001B6C03F004030193019B02B070BD002368
:1015D000264A0093116C264D41F001011164126CF2
:1015E0002449EB6002F0010200924FF0C062C5E9AD
:1015F000001240214FF480620446A96000982A61DD
:101600004FF480514FF480422846C5E90512C5E9E0
:1016100007336B6200F066F900BB174E174925626D
:101620004FF0C0620023C6E9001240214FF48062EF
:10163000C6E90213E56232614FF480514FF48042F3
:101640003046C6E90512C6E90733AC63736200F0A1
:1016500049F930B96662B46302B070BDFFF790FD1E
:10166000DBE7FFF78DFDF5E700080040003802409A
:10167000C8070020286002406807002088600240F8
:101680009FED0F7B124810B580ED067B9FED0E7B22
:1016900000234FF0A0440421022280ED087BC0E922
:1016A0000041C0E90323C0E90B3302F083F800B91D
:1016B00010BDBDE81040FFF763BD00BFAFF3008071
:1016C0000200000000000000000000000000000018
:1016D000B808002030B5036889B00024B3F1A04FEA
:1016E000CDE90244CDE90444069401D009B030BDEF
:1016F000174D00942B6B174843F001032B632B6BA2
:1017000003F0010300934FF4C0520223CDE90223FA
:10171000032302A905930A23009A069300F080FA96
:101720006B6B43F080036B6301946B6C43F48043F9
:101730006B646B6C03F480432246052101934320C4
:10174000019B00F083F8432000F0BEF809B030BDE3
:101750000038024000000240DFF834D00D480E4946
:101760000E4A002302E0D458C4500433C4188C42FB
:10177000F9D30B4A0B4C002301E013600432A24260
:10178000FBD3FFF7E1FD08F047F8FFF7C5FC704712
:1017900000000220000000200404002024A3000810
:1017A0000804002030720020FEE7000008B50B4B53
:1017B0001A6842F400721A601A6842F480621A6071
:1017C0001A6842F480721A60032000F02DF80F208E
:1017D000FFF7F8FCFFF7D6FC002008BD003C0240F4
:1017E000034A044B11681B780B441360704700BF19
:1017F000C40D002000010020014B1868704700BF95
:10180000C40D002038B50446FFF7F6FF631C0546FB
:1018100002D0044B1B781C44FFF7EEFF431BA3428E
:10182000FAD338BD000100200749CA6803024FF609
:10183000FF0003F4E0630240134343F0BF6343F44B
:101840000033CB60704700BF00ED00E01C4BDB684D
:10185000C3F3022300B5C3F1070EBEF1040F03F179
:10186000040C28BF4FF0040EBCF1060F1BD9033B3C
:101870004FF0FF3C0CFA03FC22EA0C024FF0FF3C55
:101880000CFA0EFC21EA0C019940002841EA020101
:101890000CDB00F16040090100F56140C9B280F83D
:1018A00000135DF804FB00221346E7E7054B00F048
:1018B0000F0009010344C9B219765DF804FB00BFAB
:1018C00000ED00E0FCEC00E0002808DB4109044AE0
:1018D00000F01F00012303FA00F042F821007047D6
:1018E00000E100E038B50446FFF786FF002C52D037
:1018F00023680022022184F8351084F834201A6805
:1019000022F0010205461A6005E0FFF775FF431B50
:10191000052B39D823681A68D107F6D4D4E90120F9
:10192000E16802430A43D4E90451A0692A430A4307
:10193000E1691D6802430A4333492940256A2A4365
:101940000A43616A042928D01A605A6922F0070202
:101950001143D8B22D4A59611038A2FB0052120926
:101960002B4923F47F73895CE16523F003035F282F
:1019700088BF04333F228A40A36500209A60012378
:10198000606584F8353038BD03232022626584F811
:101990003530184638BD012038BDD4E90B512943F4
:1019A0000A431A605969A26A21F00701114341F004
:1019B0000401002DCDD078B1B0F5005F16D0022A19
:1019C00003D9032AC5D1EA01C3D5012340226265A8
:1019D00084F83530184638BD012A03D032F00202AF
:1019E000B7D1F0E7B5F1C07FB3D1EEE7032AB0D8A5
:1019F00001A050F822F000BFCB190008C719000859
:101A0000CB190008E51900083F8010F0ABAAAAAA7C
:101A100064A2000890F83530022B03D08023436580
:101A2000012070470268052380F83530136823F0E1
:101A300001030020136070472DE9F04182B0744A21
:101A4000866D156800230193C36D346808229A409F
:101A50002242804604D001680F68780700F18A802E
:101A600001229A40224204D0D8F8001049690906A0
:101A700078D404229A40224204D0D8F80010096891
:101A80008F0767D410229A40224204D0D8F8001061
:101A90000F68380749D420229A40224217D0D8F83C
:101AA00000100C68E00612D5B26098F83520052ABF
:101AB00073D00B6813F4802F0B6800F0908019032B
:101AC00040F19B80D8F83C300BB140469847D8F89D
:101AD00054303BB3D8F85430DA071BD5D8F800207F
:101AE0004C49052388F835301368A1FB051523F010
:101AF0000103AD0A136002E01368DB0704D5019B04
:101B00000133AB420193F7D90122002388F8352035
:101B100088F83430D8F84C3023B1404602B0BDE8E4
:101B2000F041184702B0BDE8F081B2600A6812F4D3
:101B3000802F0A682AD1D70503D40A6822F0080248
:101B40000A60D8F84020002AA5D040469047D8F82F
:101B50005C30A0E7B260D8F8542042F00402C8F824
:101B600054208FE7B260D8F8542042F00202C8F83F
:101B700054207EE70F6827F004070F60B260D8F8A2
:101B8000542042F00102C8F8542069E71203D8D566
:101B9000D8F84820002AD8D17DE70A6822F016023A
:101BA0000A604A6922F080024A61D8F8402052B3A4
:101BB0000A6822F008020A603F2202FA03F3D8F80A
:101BC0005010B3600122002388F8352088F83430A3
:101BD0000029A7D0404602B0BDE8F041084713F401
:101BE00080737FF46FAF0A6822F010020A6001224E
:101BF00088F8352088F8343064E7D8F84430002B72
:101C00007FF463AF63E7D8F84820002AD0D1D3E748
:101C1000FC000020B5814E1B90F83500704700BFD6
:101C20002DE9F04F00220C68704E85B013464FF03E
:101C3000010A894604E00133102B02F1020278D038
:101C40000AFA03F101EA040BA143F4D1D9F804C064
:101C50000CF003014D1E012D6ED9032940F0AE801A
:101C60009140CD4307683D4029431CF4403F01604B
:101C7000E1D05F4D00210391696C41F480416964BA
:101C8000696C01F480410391039923F0030101F190
:101C9000804101F59C3103F00307D1F808E0BF0053
:101CA0000F25BD402EEA0508524DA84217D005F574
:101CB0008065A84200F086804F4DA84200F08780E2
:101CC0004E4DA84200F08A804D4DA8420CBF4FF007
:101CD000040E4FF0070E0EFA07F748EA0708C1F89E
:101CE0000880B1686FEA0B071CF4801F0CBF3940F5
:101CF0004BEA0101B160F5681CF4001F0CBF3D40C8
:101D00004BEA0505F56075681CF4003F0CBF3D40CB
:101D10004BEA0505756031681CF4803F03F101034F
:101D20000CBF39404BEA0101102B316002F1020275
:101D300086D105B0BDE8F08FD9F80C50876805FA58
:101D400002F8032505FA02FE27EA0E0748EA07070C
:101D5000876047686FEA0E0527EA0B0ECCF3001781
:101D60009F4047EA0E074760C76807EA050ED9F8A3
:101D70000870974047EA0E070229C76001FA02F18E
:101D80007FF470AF4FEAD30E00EB8E0E03F007081E
:101D9000DEF820700097D9F810704FEA880807FA2B
:101DA00008F701970F2707FA08F8009F27EA0808A5
:101DB000019F47EA0807CEF8207053E703259540B6
:101DC000ED43D1E70AFA07F748EA070887E74FF03B
:101DD000020E0EFA07F748EA070880E74FF0030EF5
:101DE0000EFA07F748EA070879E700BF003C014010
:101DF000003802400000024000080240000C02408F
:101E00000010024002B90904816170472DE9F04FCA
:101E1000046883B098462368DDF83090DDF834B06C
:101E200043F4807306468A4617462360B9F1FF3FA4
:101E300035D16569E807FCD50AF0FE012161B9F1E9
:101E4000FF3F03D04EE061694D055CD461698B07AB
:101E5000F9D50023019363690193A3690193019B61
:101E6000B9F1FF3F40F0878063691A0663D4636964
:101E70005B05F9D5002220236FF480616161326334
:101E800086F83D3086F83E20336C86F83C2043F0DF
:101E900004033364336C042B66D001201FE06369B4
:101EA000D907C9D4FFF7A8FCA0EB0B00814504D3E8
:101EB000B9F1000F01D03468B8E700232022336362
:101EC00086F83D2086F83E30326C316886F83C302A
:101ED00042F0200232640B68DC0535D4032003B0E5
:101EE000BDE8F08F63699807B3D463695A050AD4D3
:101EF000FFF782FCA0EB0B0081454ED3B9F1000F38
:101F00004BD034689BE7236843F4007323600022BE
:101F10006FF4806120236161326386F83D3086F87A
:101F20003E20336C86F83C2043F0040301203364E8
:101F300003B0BDE8F08FB8F1010F09D1FFB2002066
:101F4000276103B0BDE8F08F4FF400733364C5E739
:101F50003B0A2361B9F1FF3F2ED163691906EDD425
:101F600063695A05F9D585E73268136843F400734D
:101F700001201360B3E763691D06DCD4636959056A
:101F80003FF578AFFFF738FCA0EB0B00814525D378
:101F9000B9F1000F22D0346862E7002220233263B7
:101FA00086F83D3086F83E20336C86F83C2043F0BE
:101FB00020033364012092E763691B06BED4636982
:101FC00058053FF557AFFFF717FCA0EB0B00814515
:101FD00004D3B9F1000F01D03468BBE700222023FD
:101FE000326386F83D3086F83E20336C86F83C201C
:101FF00043F0200333644DE72DE9F04F0468984621
:10200000236843F480632360236883B043F48073C0
:10201000DDF830A0DDF83490236006468B46174685
:10202000BAF1FF3F39D16569EB07FCD50BF0FE0330
:1020300023615FFA8BFBBAF1FF3F03D068E061696F
:102040004A0550D461698907F9D500230193636972
:102050000193A3690193019BBAF1FF3F40F0B8805F
:102060006369180667D463695905F9D500222023EE
:102070006FF480616161326386F83D3086F83E20FE
:10208000336C86F83C2043F004033364336C042B38
:102090006CD0012003B0BDE8F08F6369DD07C5D4C3
:1020A000FFF7AAFBA0EB0900824504D3BAF1000FA9
:1020B00001D03468B4E700232022336386F83D2042
:1020C00086F83E30326C316886F83C3042F02002AF
:1020D00032640B68DC0502D54FF4007333640320CF
:1020E00003B0BDE8F08F236843F40073236000223F
:1020F00020236FF480616161326386F83D3086F899
:102100003E20336C86F83C2043F004033364C0E780
:1021100063699B0799D463695805E4D4FFF76CFBA6
:10212000A0EB09008245C0F08B80BAF1000F00F0EF
:10213000878034687FE7B8F1010F0BD1FFB22761C8
:10214000BAF1FF3F6AD163691B0616D463695F0564
:10215000F9D58BE73B0A2361BAF1FF3F7FD1636971
:102160001D06EBD463695805F9D57FE7326813681B
:1021700043F40073012013608CE7236843F48073F9
:102180002360BAF1FF3F13D16369D807FCD54BF048
:1021900001032361BAF1FF3F03D02BE063695B05C4
:1021A000A1D46369DB4313F00203F7D1184671E74A
:1021B0006369D907EBD4FFF71FFBA0EB0900824549
:1021C000FFF479AFBAF1000F3FF475AF3468D8E788
:1021D00063691A06AFD463695D053FF547AFFFF742
:1021E0000BFBA0EB090082454CD3BAF1000F49D09C
:1021F000346831E76369DB4313F00203D6D06369C7
:102200005A053FF570AFFFF7F7FAA0EB09008245DA
:1022100016D3BAF1000F13D03468BBE763691D060B
:10222000ABD463695A053FF521AFFFF7E5FAA0EBA0
:102230000900824526D3BAF1000F23D034687FE726
:1022400000222023326386F83D3086F83E20336C2E
:1022500086F83C2043F02003336401201AE76369C9
:1022600019063FF56BAF63695B053FF5FFAEFFF7FE
:10227000C3FAA0EB0900824504D3BAF1000F01D0E4
:10228000346869E700222023326386F83D3086F8FF
:102290003E20336C86F83C2043F020033364F5E69F
:1022A000002800F0B98070B590F83D30044603F086
:1022B000FF02002B00F098802368242284F83D2040
:1022C0001A6822F001021A601A6842F400421A6089
:1022D0001A6822F400421A6002F0E8FC63684F4971
:1022E0008B424FD84E4A90427CD94E4D5A00A5FBA6
:1022F0000035431EB3FBF2F32268506820F03F0024
:1023000040EA95405060A90C01F1010C116A21F0DE
:102310003F0141EA0C011162D16940F6FC7E0133B4
:1023200021F44F4113EA0E0F21F0FF0161D1042384
:102330000B43D361D4E907301168034321F0C00196
:102340000B4313609168D4E9030321F40341034371
:1023500021F0FF010B439360D4E90530D1680343BA
:1023600021F0FF010B43D3601168002341F001010C
:1023700020201160236484F83D00236384F83E30FC
:10238000184670BD284A90422CD9264D274EA5FBF1
:10239000002C2268556825F03F0545EA9C455560AC
:1023A0004FEA9C414FF4967505FB01F1A6FB0151E4
:1023B000156A890925F03F05013129431162D16968
:1023C000A56821F44F4121F0FF01ADB9013803EBBD
:1023D0004303B0FBF3F30133C3F30B03D3B143F473
:1023E0000043A5E7012070BD80F83C20FEF706FD04
:1023F00062E7C3F30B039BE703EB8303013803EBB3
:102400008303B0FBF3F30133C3F30B0313B143F4C2
:1024100040438DE701238BE701207047A086010030
:102420007F841E0083DE1B43FF083D00D34D6210F6
:102430002DE9F04F044683B09946BDF834A00E9EB6
:102440000F469046FFF7D8F994F83D30202B04D082
:102450000227384603B0BDE8F08F054605E0FFF7D8
:10246000CBF9401B192800F2AA80206883696FEA23
:10247000030C1CF0020BF2D094F83C30012BE7D097
:10248000012384F83C300368DB0771D539460768BF
:1024900027F4006707600C9860622120CDE9006591
:1024A00084F83D00402084F83E0000202064A4F819
:1024B0002AA0608D20855748E0624B464246204660
:1024C000FFF7A4FC0746F8B9238D002B00F0A0808D
:1024D0002368721C58D15A6910061AD45A695105DA
:1024E000F9D500226FF4806020215861226384F8BE
:1024F0003D1084F83E20236C84F83C2043F0040314
:102500002364236C042B38D00127384603B0BDE880
:10251000F08FD4F824C0B4F828E061460EF1FF3003
:1025200011F8012B1A61628D6162013A92B26285E3
:1025300082B258692285400717D542B9721C59D119
:102540005A69500749D45A695105F9D5C9E79CF829
:10255000011019610CF102016162618DAEF102029C
:10256000013992B289B222856185002AB1D1E5E7AD
:10257000036843F00103036088E72268136843F4AB
:1025800000730127136064E75A691206C1D45A69BF
:102590005105A6D4FFF730F9401B864201D3002E27
:1025A00096D100222023226384F83D3084F83E2017
:1025B000236C84F83C2043F020032364A1E720230C
:1025C000C4F830B084F83D3084F83EB0236C84F811
:1025D0003CB043F0200323643AE71A68002142F438
:1025E000007220201A6084F83D0084F83C1084F8C2
:1025F0003E102EE75A695207EFD45A6951053FF54C
:1026000070AFFFF7F9F8401B8642CAD3002EC8D03E
:10261000236893E70000FFFF2DE9F04F044687B0E1
:102620009946BDF844A0129D0F469046FFF7E4F886
:1026300094F83D30202B04D00227384607B0BDE87F
:10264000F08F064605E0FFF7D7F8801B192800F247
:10265000D280D4F800C0DCF81800C04310F0020BA0
:10266000F1D094F83C30012BE6D0012384F83C30C3
:10267000DCF80030D90737D5DCF8000020F4006022
:10268000CCF80000109860622220CDE9005684F852
:102690003D00402084F83E0000202064A4F82AA0D9
:1026A000608D20859348E06239464B46424620467D
:1026B000FFF7A2FC0746002840F0AB80228DD2B97C
:1026C000236802905A6902929A690292029A1A68E1
:1026D00042F400721A600023202284F83D2084F81E
:1026E0003C3084F83E30A8E7DCF8003043F00103CA
:1026F000CCF80030C0E7012A00F02C81022A00F05B
:10270000BD802368059059690591996905910599DE
:10271000032A49D8012A00F0EB80022A00F08980C0
:10272000691C40F0BB805A695207FCD51A68616A7F
:1027300022F480621A601B690B70638D616A228DBE
:10274000013B0131013A9BB2616222856385691CBC
:10275000226840F0AF8053695B07FCD51368616A5B
:1027600043F40073136013690B70638D228D606AEC
:102770002168013B9BB263850969531E00F1010C7E
:102780002385C4F824C04170228D638D616A013AAB
:10279000013B013192B29BB2616222856385002ABE
:1027A00099D0032A2368B5D95DB9C5E05A69D00626
:1027B00000F1B280FFF720F8801B8542C0F08680D0
:1027C00023685A695206F1D5626A1B691370638DDA
:1027D0002068228D616A013B9BB263854369013A9F
:1027E00092B201F1010C5B072285C4F824C0D6D552
:1027F00003694B7036E02023C4F830B084F83D30D4
:1028000084F83EB0236C84F83CB043F0200323648A
:1028100012E70127384607B0BDE8F08F5A69500724
:102820000CD4FEF7E9FF801B85424FD3002D4DD01D
:102830002368691CF2D15A695207FCD51A6842F420
:1028400000721A601A69636A1A70638D626A013BCA
:102850009BB26385238D013B23852368511C1B6933
:1028600061625370636A228D01336362638D013A42
:10287000013B92B29BB22285638590E72368196879
:1028800021F480611960196841F4006119600490B5
:102890005969049199690491049939E75A69500773
:1028A0003FF544AFFEF7A8FF801B85420ED36DB104
:1028B000236835E7536958073FF550AFFEF79CFF93
:1028C000801B854202D3002D7FF441AF00222023DC
:1028D000226384F83D3084F83E20236C84F83C2049
:1028E000012743F020033846236407B0BDE8F08F8A
:1028F0005DB92BE00000FFFF5A69D2060CD4FEF749
:102900007BFF801B8542E1D323685A695106F3D5CA
:102910001A69636A1A70A5E700226FF0100020217F
:102920005861226384F83D1084F83E20236C2364B0
:1029300084F83C20012780E65A6952063FF544AFEF
:102940005A69D106E8D4FEF757FFBFE75A69500627
:10295000F6D5DDE72368196821F4806119600390DA
:1029600059690391996903910399196841F40071B8
:102970001960CDE6704700BF704700BF704700BFC9
:10298000704700BF704700BF704700BF704700BF6F
:1029900090F83D20016D034659B9C26C0168012AC7
:1029A000826C0DD0C2F307220A61026D013202650A
:1029B0007047016D012909D0016D02290ED07047C1
:1029C000D2B20A61026D023202657047826C016800
:1029D000D2B20A61026D013202657047D2B2222A78
:1029E0001FD0418D89B2C1B9418D89B20029E6D18C
:1029F000212AE4D1026810B5546824F4E0645460DC
:102A0000146844F4007414602022016380F83D20AF
:102A100080F83E10FFF7BAFF10BD212A0AD05B8D67
:102A2000704701680A6842F480720A60026D0132E0
:102A300002657047416A026811F8010B10615A8DF6
:102A40005962013A92B25A85704700BF704700BF81
:102A5000704700BF704700BF70B53A4B3A491B68DA
:102A6000806B82B0DB080022A1FB031301921B0ADA
:102A700090F83D10026803EB8303C3EBC303C9B2B4
:102A8000019305E0019B013B019313689B0506D56B
:102A9000019B002BF6D1036C43F020030364446BCD
:102AA0004CB3836B0025E563F3B11668DD6326F450
:102AB000806616604585256500241C65136823F033
:102AC0000103136090F83D30602B2AD001F02801FB
:102AD000282919D02022002380F83D2080F83E309C
:102AE000FFF7B6FF02B070BD156825F4806515606C
:102AF00043852365E2E7836BF3B11568DC6325F456
:102B0000806515604485D7E7136843F001031360BF
:102B10001368002443F480631360046380F83D105D
:102B2000DEE70023202280F83D2080F83E30036459
:102B3000FFF790FF02B070BD146824F48064146045
:102B40004385BBE7FC00002089B5F81410B590F868
:102B50003D2090F83E30102B0446D2B239D0D9B285
:102B6000402936D002F0280128293DD02368596831
:102B7000080507D4602A05D02021002284F83D10E2
:102B800084F83E20002222635A6812F4006234D195
:102B900094F83D10602975D05A69500605D5626ACF
:102BA0001B691370636A013363622046FFF750FFAD
:102BB000236C190704D02268536823F4E063536040
:102BC00094F83D30226C5207DBB201D5282B2FD070
:102BD00010BD222AC6D123681A6822F400621A6046
:102BE0005A681205C8D5CDE700232363236884F80B
:102BF0003D105A6812F40062CAD05A68606B22F421
:102C000000625A6090F83530012B1ED0284B0365C6
:102C1000FEF700FF0028CBD02268606B13682021EC
:102C200023F00103136084F83D10036D9847BFE75C
:102C300000232049E16220222363204684F83D20BE
:102C400084F83E30FFF7A0FE10BDA06B184B036563
:102C5000FEF7E0FE0028ABD023685A69510606D57E
:102C6000626A1B691370626A2368013262621A68C1
:102C7000A06B22F0010220211A6084F83D10036D40
:102C8000984795E7202184F83D1022645A6952063E
:102C900006D5626A1B691370626A23680132626238
:102CA0001A6822F0010220461A60FFF7D3FE7FE780
:102CB000592A00080000FFFF70B5036804465868F1
:102CC000E56A94F83E1094F83D2010298EB0D2B2F7
:102CD0005FFA81FC24D0BCF1400F21D0216C002987
:102CE00000F096805969002511F0020FC1F34006EB
:102CF00059D0860559D5226C02B19D6994F83D20C2
:102D000002F02802282A00F01F8200220C92596942
:102D10000C919B690C930C9B84F83C200EB070BD09
:102D20009E69596911F0010F1AD1B5F52A0FF5D036
:102D3000B5F12A4FF2D00D076DD5850540F183809E
:102D4000626C616BD2B21A61002900F0E481CA6B37
:102D5000002A00F0E0815A6842F400625A60DDE720
:102D600085056ED5E26AB2F52A0F00F0EA81E26AC3
:102D7000B2F12A4F04BF0822E26294F83E20402AB2
:102D800000F0D8812269B2F5804F00F0B381226D46
:102D9000002A40F0EF81626CD21102F0060242F08C
:102DA000F0021A61BAE7CD067CD402F0F702212ABC
:102DB00000F0F5804E0640F13281450540F12F814B
:102DC000490700F12F8194F83D10628D92B2C9B28B
:102DD000002AA3D0626A1B691370638D626A013B8B
:102DE0009BB26385638D01329BB26262002B95D1E9
:102DF0002A2993D1226853682225282123F480634D
:102E000053602046256384F83D10FFF7B9FD85E740
:102E10009D69596968E78D0715D5850513D594F81F
:102E20003E20E06A256B94F83D102229D2B200F0D2
:102E3000B38100220A925A690A929B690A930A9BFB
:102E40006CE70D07E7D5750740F1F5805D682E0545
:102E50003FF564AF0D0640F11581460540F1128142
:102E60004D0700F1128194F83D20208D94F83E101A
:102E7000E56AD2B2C9B2002840F03B82212A00F0B4
:102E8000418340297FF44AAF222A7FF447AF628D05
:102E900092B2002A00F0708294F83E20402A40F05E
:102EA000B480FCE0850580D594F83D505A6822F442
:102EB000E0625A600D965A690D921A6842F001025A
:102EC0001A600D9A1A6822F480621A605A68110515
:102ED000EDB221D505F0F702222A00F07A81606B6D
:102EE0000268526892B26285628D92B21AB1226C07
:102EF00042F0040222645A6822F400625A60FEF72B
:102F00008BFE012808D0606B994B0365FEF782FDAC
:102F100010B1606B036D9847638D9BB213B3236848
:102F20005A6952070AD5626A1B691370628D636A17
:102F3000013A591C92B22368616262855A69560649
:102F400009D5626A1B691370638D626A013B0132A5
:102F50009BB262626385638D9BB21BB1236C43F0AD
:102F600004032364236C002B40F0DE802A2D00F044
:102F7000518194F83D30282B00F05481236B222B93
:102F800002D0222D7FF4CAAE0023202223632046E4
:102F900084F83D2084F83E30FFF7F2FCBEE60D06D3
:102FA00028D5460526D54D0727D494F83D00618DD8
:102FB00089B2C0B200293FF4B1AE616A11F8015B79
:102FC0001D616162618D013989B26185618D89B24E
:102FD00000297FF4A3AE29287FF4A0AE59682825E4
:102FE00021F4806159602046226384F83D50FFF748
:102FF000C5FC93E649077FF591AE82057FF58EAE5D
:10300000628D92B2002A3FF489AE626A12F8011B07
:103010001961638D6262013B9BB263857EE64A075C
:103020007FF57CAE86057FF579AE628D92B2002A7F
:103030003FF474AE1BE05A6815053FF56FAE4A06C3
:1030400033D449077FF56AAE82057FF567AEE16A42
:10305000628D92B2042A00F01981628D92B2032A25
:1030600000F05981628D92B2022A00F08A81626A70
:103070001B691370638D626A013B01329BB262620D
:1030800063854BE649077FF549AE86057FF546AE79
:10309000212A00F00381BCF1400F7FF43FAE2046AF
:1030A0000EB0BDE87040FFF773BC4605C9D54D07AB
:1030B000C1F38002C8D494F83D1022297FF42EAECB
:1030C000618D89B2032940F2CC81626A1B69137059
:1030D000638D626A013B9BB26385638D9BB2013253
:1030E000032B62627FF41AAE2268536823F4806374
:1030F000536013E694F83D20212A626C16BF42F01B
:10310000010202F0FE02D2B21A61626B1AB1D26BF6
:10311000002A7FF420AEA26B002A3FF4FFADD26BF1
:10312000002A7FF418AEF9E520460EB0BDE87040E5
:10313000FFF70CBD226D4ABB626C02F0FE021A6101
:10314000ECE50122E26218E65A6822F480625A60D5
:103150002E066FEA95014FF0000354BFA289228B1F
:1031600084F83C3001F001012046FFF70BFCD5E567
:10317000592A0008226D012A7FF4D0AD626CD21169
:1031800002F0060242F0F1021A61C7E5626C42F0F9
:103190000102D2B21A61C1E5216D11B9402A00F0D5
:1031A000A180226D22B92169B1F5404F00F0A580C0
:1031B000628D92B2002A42D103925A6903929A69AF
:1031C0000392039A1A6842F400721A60002323657E
:1031D000A4E5A06B0268526892B26285628D92B2D9
:1031E0001AB1226C42F0040222645A6822F400628E
:1031F0005A60FEF711FD01283FF48EAEA06BA14B83
:103200000365FEF707FC00283FF486AEA06B036D54
:10321000984781E628222363204684F83D20FFF763
:10322000AFFBA6E600239849E162202223632046F3
:1032300084F83D2084F83E30FFF7A6FB6EE5628DF2
:1032400092B2012A76D0628D92B2022A00F0EB800F
:103250001A6842F480621A605A6812050ED510F599
:10326000803F07D001381F2808D8884A22FA00F08A
:10327000C60703D55A6842F480525A600022099268
:103280005A6909929B690993099B9FE75A68616A89
:1032900022F480625A601B690B70EBE6E16A94F8D5
:1032A0003D20212A7FF43AAD628D92B2002A7FF44C
:1032B000ACAE082900F09F80202900F09C8011F519
:1032C000803F00F09880596821F4E0615960112036
:1032D0002023206384F83E20204684F83D30FFF709
:1032E00049FB1BE501915A6901929B690193019B7E
:1032F00014E5212A3FF4CBADC3E502925A6902924C
:103300009A690292029A1A6842F480721A60236DD6
:103310000133236502E55A68042922F480625A6069
:103320003FF4A5AE02293FF4A2AE1A6822F48062EF
:103330001A609CE610F5803F00F00381082800F039
:10334000D180202800F0CE80122D00F03D81102881
:1033500000F23C814E4A22FA00F0C10740F136816A
:103360001A6842F480621A60002206925A69069234
:103370009B690693069B29E75A6822F480625A608B
:10338000CCE401291A6800F0D880102900F0D5801B
:10339000042900F00A81022900F0078142F400723A
:1033A0001A60626A1B691370638D626A2168013B4F
:1033B0009BB263850B69511C61625370638D2168F8
:1033C000626A013B9BB263854B68013223F4407310
:1033D000202062624B6084F83D0094F83E30402B20
:1033E00000F0C3800022122384F83E20204623638D
:1033F000FFF7C2FA92E4596821F4E0615960196854
:103400000022202041F400711960226384F83D00FD
:1034100094F83E3084F83E20402B20467FF45FAF86
:10342000FFF7B4FA7AE4102840F2A8801A6822F470
:1034300080621A601A6842F400621A605A681605BF
:1034400007D510F5803F40F0A6805A6842F48052BC
:103450005A60002208925A6908929B690893089B57
:10346000B4E6E06A022887D0012985D809490B9281
:10347000096846F2A810B1FBF0F101EB81010B9154
:103480000FE000BF592A00080000FFFF8180008084
:1034900014000100FC0000201A6812F4007200F011
:1034A0009A800B9A013A0B920B990029F4D1226C65
:1034B000606A42F0200222645A6822F4E0625A6094
:1034C0001B690370638D626A013B01329BB220204D
:1034D0006385626284F83D00204684F83E10FFF761
:1034E000B7FA1BE41A68002122F480621A6007917F
:1034F0005A6907929A690792079A1A6842F4007209
:103500001A6063E6082D3FF476AF202D3FF473AFC9
:1035100015F5803F3FF46FAF5A6822F4E0625A60BD
:10352000112000212023206384F83E10204684F8D7
:103530003D30FFF71FFAFFF7F1BB22F480621A60FB
:103540002FE71A6822F480621A605A6812F4006247
:103550002FD01A68002122F480621A6004915A69FF
:1035600004929B690493049B30E6002384F83E3068
:1035700020462363FFF76AFAFFF7D0BB274AC24011
:10358000D2077FF553AF1A6842F480621A605A6816
:1035900015057FF55EAF01381F283FF65AAF204A68
:1035A000C240D1077FF555AF4FE742F480621A6001
:1035B000F7E605925A6905929A690592059A1A6882
:1035C00042F400721A6001E601288BD11A6822F4D5
:1035D00080621A60C8E61968606A21F48061196027
:1035E000596821F4E06159601B690370638D013BE8
:1035F00020219BB2638584F83D10636A94F83E10E5
:103600000133402963627FF4EEAE84F83E20204609
:103610002263FFF71BFAFFF781BB00BF1400010014
:103620008180008030B503685C695A6890F83E106C
:10363000E50583B05FFA81FC33D5D1054FEA122E40
:103640002FD56FF480725A61A2053CD4620572D501
:103650000121428D90F83DE0056BBCF1200F92B244
:103660005FFA8EFE3DD06FF48062BCF1100F41F026
:1036700004015A6102D0BCF1400F03D11A6842F430
:1036800000721A60220504D56FF4006241F008014F
:103690005A61036C1943016403B0BDE83040FFF781
:1036A00055BAA50503D5D1054FEA122E17D46505E5
:1036B000C4F3802103D4240534D403B030BDD10534
:1036C000FBD50021C5E703216FF400725A61620542
:1036D000BFD42405DDD51EF0010FD5D1D9E70221D5
:1036E000F2E7CAB90EF0F702212A04D0BEF1280F82
:1036F00012D1212D10D190F83D20C56A082DD2B2EB
:103700001ED0202D1CD0212A37D06FF480625A6140
:1037100025050CD50368B7E76FF480625A6141F064
:103720000401AFE74FEA122E1EF0010FACD10029C1
:10373000AFD103B030BD25054FF00101F4D4A8E7A7
:10374000282AE0D11A4AC2625A68019122F4E06242
:103750005A606FF480625A611A68009022F48062A5
:103760001A6000232022036380F83D2080F83E3059
:10377000FFF70AF9DDE90001CAE70D4DC5620263F2
:10378000202280F83D20002280F83E205A680191D6
:1037900022F4E0625A606FF480625A611A68009005
:1037A00022F480621A60FFF7E9F8DDE90001AFE773
:1037B0000000FFFFF0B58BB0002800F0858090F886
:1037C000BD340468054603F0FF02002B76D0204686
:1037D000032385F8BD34E36B2E4613F4807308BFD2
:1037E0002B6101F0CDFE56F810EBB446BCE80F009B
:1037F0006C460FC4BCE80F000FC49CE8030084E8CB
:1038000003002F1D97E80E00704601F0B5FD044639
:1038100030B101240223204685F8BD340BB0F0BD41
:103820000146286801F0B4FE686858B322464FF09C
:10383000010E214602EBC20305EB830302F1010CEA
:1038400083F83C20A3F844205FFA8CF28242C3E95B
:10385000121183F83DE083F840105965EAD3002245
:1038600004EBC40305EB8303611C83F87C42CCB2F8
:103870008442C3E9A22283F87D2283F88022C3F820
:103880009422EDD30FCE6C460FC40FCE0FC496E832
:10389000030084E8030097E80E00286801F0B0FEFA
:1038A00004460028B5D1012385F83800286885F83A
:1038B000BD3402F057FB20460BB0F0BD80F8BC24AD
:1038C000FDF708FF286883E7012420460BB0F0BD10
:1038D00010B590F8BC34012B0446006816D0A36ADA
:1038E0000122934284F8BC2408D001F041FE2068F4
:1038F00002F028FB002084F8BC0410BDA3699342A9
:10390000F3D0836B43F480338363EEE7022010BD72
:103910002DE9F04F056889B00446284602F060FBA7
:1039200010B109B0BDE8F08F8346206802F02AFB91
:103930000028F6D0D5F808382068C3F30D23C4F862
:10394000FC3402F01FFB10F0020F206805F5006345
:1039500003931EBF436903F00203436102F012FBAD
:1039600010F0100F206812D0836923F010038361D8
:103970002E6AC6F34343022B06F00F0700F0CB83F9
:10398000062B00F00783836943F01003836102F084
:10399000F9FA070300F16982206802F0F3FA46039E
:1039A00000F11182206802F0EDFA0028C0F2828155
:1039B000206802F0E7FA070500F13D81206802F077
:1039C000E1FAC00400F1A081206802F0DBFA10F4F3
:1039D000005F206840F0818102F0D4FA010700F115
:1039E000E981206802F0CEFA020671D5AA696368FF
:1039F00022F08002012BAA616AD994F8A322012A3D
:103A000000F0EA83022B63D994F8C722012A00F060
:103A1000FE83032B5CD994F8EB22012A00F0B382D9
:103A2000042B55D994F80F23012A00F0C682052BE8
:103A30004ED994F83323012A00F02684062B47D967
:103A400094F85723012A00F03384072B40D994F8C7
:103A50007B23012A00F04A84082B39D994F89F234C
:103A6000012A00F05784092B32D994F8C323012A84
:103A700000F064840A2B2BD994F8E723012A00F084
:103A800071840B2B24D994F80B24012A00F07E8436
:103A90000C2B1DD994F82F24012A00F07F840D2BC4
:103AA00016D994F85324012A00F09F840E2B0FD9C5
:103AB00094F87724012A00F0A6840F2B08D994F8F3
:103AC0009B34012B04D1206804F5936102F04EF978
:103AD000206802F057FAC30240F1AB806368012B03
:103AE00040F2898094F86420D5F82019012A00F06A
:103AF0001382022B7FD994F88820D5F84019012A27
:103B000000F01D82032B76D994F8AC20D5F860190B
:103B1000012A00F02082042B6DD994F8D020D5F82A
:103B20008019012A00F02382052B64D994F8F4202F
:103B3000D5F8A019012A00F04383062B5BD994F82D
:103B40001821D5F8C019012A00F05583072B52D946
:103B500094F83C21D5F8E019012A00F06083082B85
:103B600049D994F86021D5F8001A012A00F063833E
:103B7000092B40D994F88421D5F8201A012A00F0A5
:103B80006E830A2B37D994F8A821D5F8401A012A58
:103B900000F082830B2B2ED994F8CC21D5F8601A33
:103BA000012A00F097830C2B25D994F8F021D5F841
:103BB000801A012A00F0A2830D2B1CD994F814223C
:103BC000D5F8A01A012A00F0AD830E2B13D994F872
:103BD0003822D5F8C01A012A00F0B8830F2B0AD971
:103BE00094F85C22D5F8E01A012A00F0C383102B68
:103BF00001D9D5F8003B2068436903F48013436181
:103C000002F0C0F9870221D4206802F0BBF940001D
:103C100000F1C780206802F0B5F941077FF581AE59
:103C200023685D686A0700F197825A682A435A60E0
:103C300077E62068E4E7039B9B68DE0700F1888253
:103C40002068436903F400634361B8E6D4F804C014
:103C5000BCF1010F28D905F532622346012106E0A7
:103C60000131614502F1200203F124031CD093F8D5
:103C7000A40216680128F3D1002EF1DAD4F8FC74FE
:103C800006F4803607F00107BE42E9D183F8A302AB
:103C9000A86940F08000A86168690606E0D4039A2C
:103CA000536843F4007353602068436903F40013BE
:103CB0004361AAE7039A536823F00103536094F821
:103CC000F434012B00F03481204603F003FD20681A
:103CD000436903F0004343616BE602F085F9206815
:103CE00001F0D2FDE060266800F0DAFF227B014699
:103CF000304601F0C3FB204603F0BEFC2068436958
:103D000003F40053436167E6039A2068536823F085
:103D100001035360102101F08DFD6068E0B105F5ED
:103D200010634FF67F3199601A6822F400121A600E
:103D3000C3F80812D3F8002222F40012C3F80022BC
:103D4000D3F800220BF1010B42F000628345C3F867
:103D5000002203F12003E6D10399226BCB6943F0E3
:103D60000113CB61002A40F0CC804B6943F400532F
:103D700043F02B034B610B6943F00B030B61D5F848
:103D80000038217C206823F4FE63C5F8003804F273
:103D9000C44202F03BF92068436903F48053436155
:103DA00013E6204603F0A2FC2068436903F0804339
:103DB000436130E7204603F05BFC2068436903F071
:103DC000080343610EE6206802F0E8F88046002808
:103DD0003FF4E8AD4FF0000A20680495274605F54A
:103DE00010695646CDF814B009E05FEA580806F1AC
:103DF000010607F1240709F1200900F0E58018F019
:103E0000010FF2D05FFA86FA514602F0D9F8C207E4
:103E1000054613D5039901204B6B06F00F0200FAFB
:103E200002F223EA02034B632169C9F808008142C8
:103E300000F097815146204603F010FC2B0744BF49
:103E40000823C9F80830E80644BF1023C9F8083031
:103E5000690644BF4023C9F80830AA0700F14E8123
:103E60002B0600F1F5802068BFE7206802F08EF88D
:103E7000064600283FF490AD05F53067A2464FF0A6
:103E80000009CDF810B008E0760809F1010907F142
:103E900020070AF1240A00F09A80F007F4D55FFAAF
:103EA00089FB2068594602F081F810F0010F804626
:103EB00040F0AF8018F0080F40F08C8018F0100F21
:103EC0001CBF1022BA6018F0020F0ED06A691106EA
:103ED00004D5039B5A6842F480625A609AF87F22A4
:103EE000012A00F080810223BB6018F0200F1CBF64
:103EF0002023BB6018F4005F1CBF4FF40053BB606D
:103F0000C2E7D1F8843043F00B03C1F884304B6C26
:103F100043F00B034B6432E70029BFF6EAAD2146BC
:103F200084F8632051F8600B01F020FF6368E0E53E
:103F3000002184F8F414204600F0FAFBC7E60029BB
:103F4000BFF6E0AD214684F8872051F8840B01F0DC
:103F50000DFF6368D6E50029BFF6DDAD214684F884
:103F6000AB2051F8A80B01F001FF6368D3E50029ED
:103F7000BFF6DAAD214684F8CF2051F8CC0B01F022
:103F8000F5FE6368D0E5206804F53A7101F0EEFEB5
:103F9000636845E5082204F2C441284607EBC707D9
:103FA00001F03EFF04EB8702C6F30A13D2F89C121D
:103FB00020680B44C2F89C32E5E4206804F54371A4
:103FC00001F0D4FE636832E5DDE9045BEBE4DDF883
:103FD00010B0E1E42168BD4B0822BA6001F53062FF
:103FE000096C02EB49129942906840F2CB800004C0
:103FF00002D54FF400419160204603F01FFB216978
:1040000001297FF45BAF206804F2C44201F0FEFF97
:1040100054E7206821690122BA6000F5306202EBA2
:1040200049120129D0F840C0936800F0AF80A84938
:104030008C4500F00C81B9F1000F04D1D4F8942222
:10404000002A00F0DA815946204603F0FDFA31E7F4
:10405000FB6D7D6DD4F800B0AB4258463FF6C5AE5F
:104060000BF5106202EB461211469646BA6C89694E
:10407000CDF81CB0A5EB030C624528BF624689B29F
:104080000332B1EB920FC0F0978052460696CA46B3
:104090002646C1467446904619E0ED1ABB6CF96C91
:1040A0009D4228BF1D46337C00934246ABB2584622
:1040B00001F0A0FEFB6CA1692B44FB64FB6D89B28F
:1040C0002B440335B1EB950FFB656DD37D6D9D42A0
:1040D000E3D83446069ED4F800B0C846D146079BC4
:1040E00006F00F0203F500610125D3F8343805FA14
:1040F00002F223EA020358464B6376E604983146FF
:1041000001F098FB97F83F30012B00F0B4800223B8
:10411000C9F80830A4E647F6F0731E423FF433AC0A
:1041200007EBC70704EB8707C6F30A12D7F88C1210
:104130002846164601F074FED7F88C3220683344C6
:10414000C7F88C32D7F89C323344C7F89C321AE453
:10415000204603F0A7FA73E5204603F0CBFA236864
:1041600063E5D7E912231344FB64002E7FF462AEAB
:10417000636D002B7FF45EAE206804F2C44201F050
:1041800045FF57E6204603F059FA97E6190740F134
:1041900097804E498C457FF68DAE18047FF58AAE28
:1041A0004FF40041916085E634467D6DD4F800B04F
:1041B000069EC8465846D146AB42FFF416AE8EE77F
:1041C0000029BFF6BAAC214684F8F32051F8F00B71
:1041D00001F0CCFD6368B0E4206804F5287101F0BB
:1041E000C5FD63680EE4002359468AF87F322046F5
:1041F00003F074FA77E60029BFF6A8AC206884F8CB
:10420000172104F58A7101F0B1FD63689EE420680E
:1042100004F5317101F0AAFD6368FFF7FABB0029CC
:10422000BFF69DAC206884F83B2104F59C7101F039
:104230009DFD636893E40029BFF69AAC206884F87A
:104240005F2104F5AE7101F091FD636890E41904FB
:10425000A6D49B067FF5F7AE20219160F3E60029F6
:10426000BFF68FAC206884F8832104F5C07101F09B
:104270007DFD636885E44FF0000387F83F305146C9
:10428000204603F02FFA42E7206804F54C7101F054
:104290006DFD6368FFF7D2BB0029BFF67BAC2068D9
:1042A00084F8A72104F5D27101F060FD636871E420
:1042B000206804F5557101F059FD6368FFF7C5BB2F
:1042C000990673D520219160F4E500BF0A30544F60
:1042D0000A31544F0029BFF666AC206884F8CB2120
:1042E00004F5E47101F042FD63685CE4206804F5C4
:1042F0005E7101F03BFD6368FFF7AEBB0029BFF6BE
:104300005BAC206884F8EF2104F5F67101F02EFD16
:10431000636851E4206804F5677101F027FD636864
:10432000FFF7A1BB0029BFF650AC206884F8132228
:1043300004F5047101F01AFD636846E4206804F591
:10434000707101F013FD6368FFF794BB0029BFF69D
:1043500045AC206884F8372204F50D7101F006FDA4
:1043600063683BE4206804F5797101F0FFFC636841
:10437000FFF787BB0029BFF63AAC206884F85B22C0
:1043800004F5167101F0F2FC636830E4206804F56E
:10439000816101F0EBFC6368FFF77ABB206804F2EF
:1043A0002C4101F0E3FC6368FFF779BB13F0280FA1
:1043B0007FF480AD1B498C4502D91B043FF5F0AE5C
:1043C0001169DAF89822C1F31201521ACAF89C2234
:1043D000B9F1000F7FF437AED4F89412D9B1D4F804
:1043E0008C120A44C4F88C222DE6206804F58A61F8
:1043F00001F0BCFC6368FFF759BB04F2C4424946B4
:1044000001F004FE1FE6206804F2744101F0AEFCE6
:104410006368FFF752BB04F2C442012101F0F6FDCC
:1044200011E600BF0A30544F90F8BC24012A0DD089
:1044300010B504460122006884F8BC2484F83810C2
:1044400001F070FD002084F8BC0410BD022070470C
:1044500010B501F00F0E0906044627D44FF0240CC6
:104460000CFB0E0C0CF51F710EEBCE0C00EB8C0C44
:1044700000208CF87D02CA604A7881F800E00B7158
:104480000AB1A1F808E0022B04BF00234B7194F895
:10449000BC34012B18D0012384F8BC34206801F00F
:1044A000FFF9002384F8BC34184610BD242000FB1B
:1044B0000E4000F13C010EEBCE0004EB80004FF00B
:1044C000010C80F83DC0D6E7022010BD01F00F03BB
:1044D00003EBC30211F0800F4FF0240110B500EB85
:1044E0008202044601FB030113D101F51F71002074
:1044F00082F87D020B7094F8BC34012B12D001239A
:10450000206884F8BC3401F017FA002084F8BC0459
:1045100010BD3C31012082F83D000B7094F8BC3492
:10452000012BECD1022010BD10B501F00F0404EBFB
:10453000C40C00EB8C0C2421CCF894320023CCF872
:104540008C228CF87C42CCF89C328CF87D3203694A
:1045500001FB0401012B08BFCCF89022006801F593
:104560001F71DAB21CB901F055FB002010BD01F03B
:1045700045FA002010BD00BF01F00F0101EBC101A1
:1045800000EB8101D1F89C02704700BF10B501F02B
:104590000F0404EBC40C00EB8C0C2421CCF8543039
:1045A0000023CCF85C300123CCF84C208CF83C4044
:1045B0008CF83D30036901FB0401012B08BFCCF8E6
:1045C000502000683C31DAB21CB901F023FB002016
:1045D00010BD01F013FA002010BD00BF38B54368CC
:1045E00001F00F059D4233D80B0604461CD401EBA5
:1045F000C103242202FB010100EB830301F51F71BB
:10460000002283F87D2201238B700D7094F8BC2466
:104610009A421BD0206884F8BC3401F029FCCDB14B
:10462000002084F8BC0438BD05EBC503242101FB40
:10463000050100EB830301223C3183F83D20012377
:104640008B700D7094F8BC249A42E3D1022038BDDF
:10465000012038BD217C206804F2C44201F0D6FC60
:10466000DEE700BF426838B501F00F0393422ED851
:1046700003EBC30211F0800F4FF02401044600EB5E
:10468000820201FB030115D101F51F7100200025F5
:1046900082F87D028D700B7094F8BC34012B14D01D
:1046A0000123206884F8BC3401F010FC84F8BC5469
:1046B000284638BD3C310120002582F83D008D7030
:1046C0000B7094F8BC34012BEAD1022038BD0120D4
:1046D00038BD00BF10B40468606A31B940EA0240D6
:1046E000A06200205DF8044B7047A36AB1F1010C91
:1046F00000EB13400BD0002303F1400104EB8101D8
:1047000001334968DBB2634500EB1140F4D30CF18F
:10471000400C04EB8C0C40EA0240CCF804005DF83D
:10472000044B0020704700BF0368002059627047A7
:10473000704700BF002800F0A2812DE9F041036816
:10474000DD0782B004462FD59E498A6802F00C022C
:10475000042A00F0ED808A6802F00C02082A00F0BA
:10476000E3806368B3F5803F00F0EC80B3F5A02FE1
:1047700000F07581934D2A6822F480322A602A68FD
:1047800022F480222A60002B40F0E180FDF734F80B
:10479000064605E0FDF730F8801B642800F2018131
:1047A0002B689B03F6D423689F0728D5854A916818
:1047B00011F00C0F00F09080916801F00C010829B5
:1047C00000F08680E368002B00F00E817E4B7D4E6A
:1047D00001221A60FDF710F8054605E0FDF70CF818
:1047E000401B022800F2DD8033689807F6D5336855
:1047F000226923F0F80343EAC203336023681A07EF
:1048000051D458072FD56F4A136C13F080537FD0C3
:1048100000256E4E3368D90540F1B380A368012BA3
:1048200000F0C380052B00F02C81664E326F22F021
:1048300001023267326F22F004023267002B40F02F
:10484000B980FCF7D9FF41F28838074605E0FCF74C
:10485000D3FFC01B404500F2A480336F9807F6D405
:10486000002D40F00681A069C8B1564DAB6803F039
:104870000C03082B00F0C980534B002202281A6653
:1048800000F00981FCF7B8FF044605E0FCF7B4FF2F
:10489000001B022800F285802B689B01F6D40020C3
:1048A00002B0BDE8F08163690BB3474B454E01226E
:1048B000C3F8802EFCF7A0FF054604E0FCF79CFF40
:1048C000401B02286DD8736F9B07F7D5236898E7C4
:1048D000526856023FF576AF3A4A1268950744D5BA
:1048E000E268012A41D0012002B0BDE8F081364AD9
:1048F000344EC2F8803EFCF77FFF054604E0FCF72B
:104900007BFF401B02284CD8736F9F07F7D4DDE76D
:104910000193136C43F080531364136C03F08053C2
:104920000193019B012574E74A6850027FF519AF96
:10493000244A126891037FF537AF6268002A7FF43A
:1049400033AFD0E71F4A136843F480331360FCF79A
:1049500053FF1C4E054604E0FCF74EFF401B642845
:104960001FD833689A03F7D51DE7164920690A68EE
:1049700022F0F80242EAC0020A601A077FF541AF4E
:1049800091E7336843F480733360FCF735FF0746E3
:104990003368DA053FF542AFFCF72EFFC01B022853
:1049A000F6D9032002B0BDE8F081064A136F43F048
:1049B00001031367FCF720FF024F064641F28838D7
:1049C0000BE000BF0038024000004742007000408A
:1049D000FCF712FF801B4045E3D83B6F9B07F7D5E0
:1049E000002D3FF440AF44E0424A434E1360FCF7D1
:1049F00003FF054604E0FCF7FFFE401B0228D0D869
:104A000033689907F7D42368F9E601283FF448AFE3
:104A10006B68E26903F4800191427FF464AF226A1B
:104A200003F03F0191427FF45EAF616A47F6C072C6
:104A30001A40B2EB811F7FF456AFA26A520803F40A
:104A40004031013AB1EB024F7FF44DAFE26A03F01F
:104A50007063B3EB026F14BF0120002020E7264BE8
:104A60001A6842F480221A601A6842F480321A608E
:104A70006DE7214A136C23F080531364F3E60120A1
:104A800070471D4B1A6F42F004021A671A6F42F00A
:104A900001021A678EE7FCF7AFFE064605E0FCF759
:104AA000ABFE801B02283FF67CAF2B689901F6D441
:104AB000D4E90731626A0B4343EA8213D4E90A213D
:104AC000520843EA0163013A0A4943EA02430122D8
:104AD0006B600A66FCF790FE074D044605E0FCF7A4
:104AE0008BFE001B02283FF65CAF2B689A01F6D5BF
:104AF000D5E600BF0000474200380240164908B51D
:104B00008B6803F00C03042B1BD0082B17D14A68C9
:104B10004B68496813F4800302F03F0213D10F4839
:104B2000C1F38811A1FB0001FBF7AAFB0A4B5B68EC
:104B3000C3F3014301335B00B0FBF3F008BD07484A
:104B400008BD074808BD0648C1F388110023A1FB32
:104B50000001FBF795FBE9E7003802400024F40070
:104B600040787D01002800F08780484A136803F0F0
:104B700007038B422DE9F0410D46044609D2CBB222
:104B80001370136803F007038B4202D00120BDE8C5
:104B9000F0812368980714D5590704D53C498A68E1
:104BA00042F4E0528A601A0704D539498A6842F40F
:104BB00060428A603649A0688A6822F0F0020243A7
:104BC0008A60DF0721D56268012A57D0931E012B26
:104BD0002F4B1B684DD99907D8D52D4EB36823F0BC
:104BE00003031343B360FCF707FE41F2883807461E
:104BF00004E0FCF701FEC01B404544D8B36862687E
:104C000003F00C03B3EB820FF3D1204A136803F0D7
:104C10000703AB4206D9EBB21370136803F0070326
:104C2000AB42B3D123685A0706D51949E0688A68B0
:104C300022F4E05202438A601B0707D5144A216917
:104C4000936823F4604343EAC1039360FFF756FF80
:104C50000F4A104C92681049C2F303120346A25C3B
:104C60000E48D34000680B60FCF7ACFA0020BDE8AA
:104C7000F0819801B1D489E701207047044B1B688B
:104C80009E03AAD482E7032081E700BF003C0240D4
:104C9000003802404CA20008FC0000200401002063
:104CA000014B1868704700BFFC000020044B054909
:104CB0009B68054A0868C3F38223D35CD8407047D9
:104CC00000380240FC0000205CA20008044B0549AB
:104CD0009B68054A0868C3F34233D35CD8407047E9
:104CE00000380240FC0000205CA200080E4B0F229E
:104CF00002609A6802F0030242609A6802F0F002D1
:104D000082609A6802F4E052C2609B68DB0810B4CB
:104D100003F4E053054C036123685DF8044B03F092
:104D200007030B60704700BF00380240003C0240A0
:104D3000704700BF002876D010B590F83D3004468B
:104D400003F0FF02002B55D022683849022384F873
:104D50003D308A42136852D0B2F1804F21D0A1F584
:104D60007C418A421DD001F580618A4219D001F54B
:104D700080618A4215D001F59A318A4215D001F539
:104D800080618A4211D001F580618A420DD0A0690C
:104D9000E16823F08003034313606368D162936288
:104DA00010E0A16823F070030B432069A16923F48C
:104DB0004073034323F08003E0680B436168136092
:104DC000D06291620123536184F8463084F83E300A
:104DD00084F83F3084F8403084F8413084F8423021
:104DE00084F8433084F8443084F8453084F83D300A
:104DF000002010BD80F83C20FFF79AFFA4E7A068D0
:104E0000216923F07003034323F440730B43A1692A
:104E100023F080030B431360E368D36263689362FB
:104E200063691363CEE70120704700BF00000140B3
:104E300090F83D30012B27D103681549022280F8F4
:104E40003D20DA688B4242F00102DA6011D0B3F102
:104E5000804F0ED00F4A93420BD002F580629342EE
:104E600007D002F58062934203D002F59A32934252
:104E700004D19A6802F00702062A07D01A6842F0A5
:104E8000010200201A60704701207047002070471F
:104E90000000014000040040002876D010B590F8D2
:104EA0003D30044603F0FF02002B55D022683849FC
:104EB000022384F83D308A42136852D0B2F1804F09
:104EC00021D0A1F57C418A421DD001F580618A4242
:104ED00019D001F580618A4215D001F59A318A42D4
:104EE00015D001F580618A4211D001F580618A42B6
:104EF0000DD0A069E16823F0800303431360636869
:104F0000D162936210E0A16823F070030B43206923
:104F1000A16923F44073034323F08003E0680B434B
:104F200061681360D06291620123536184F8463056
:104F300084F83E3084F83F3084F8403084F84130C3
:104F400084F8423084F8433084F8443084F84530A3
:104F500084F83D30002010BD80F83C20FCF71EFB9B
:104F6000A4E7A068216923F07003034323F440738E
:104F70000B43A16923F080030B431360E368D36202
:104F80006368936263691363CEE70120704700BFD3
:104F90000000014090F83C30012B00F0CA80012352
:104FA000F0B480F83C300C2A08D8DFE802F03D0766
:104FB000070768070707960707070E00002380F812
:104FC0003C3001221046F0BC704703680E681A6A34
:104FD00022F480521A621A6A5D68DC6924F4E6449D
:104FE00044EA06248E6822F4005242EA06326B4EEE
:104FF000B34200F0BD805D60DC614C681C641A62E5
:10500000DA690D6942F40062DA61DC6924F48064D3
:10501000DC61D96941EA0521D961002380F83C307F
:1050200000221046F0BC704703680E681A6A22F02E
:1050300001021A621A6A5D689C6924F073043443A1
:105040008E6822F002023243544EB34274D05D6047
:105050009C614C685C631A629A690D6942F00802AF
:105060009A619C6924F004049C61996929439961BF
:10507000002380F83C3000221046F0BC70470368E3
:105080000E681A6A22F010021A621A6A5D689C6938
:1050900024F4E64444EA06248E6822F0200242EA20
:1050A00006123E4EB34254D05D609C614C689C63D6
:1050B0001A629A690D6942F400629A619C6924F44B
:1050C00080649C61996941EA05219961002380F817
:1050D0003C3000221046F0BC704703680E681A6A24
:1050E00022F480721A621A6A5D68DC6924F0730423
:1050F00034438E6822F4007242EA0622274EB342FD
:105100003CD05D60DC614C68DC631A62DA690D6971
:1051100042F00802DA61DC6924F00404DC61D96938
:105120002943D961002380F83C3000221046F0BCAE
:105130007047022210467047CE6822F008023243C0
:10514000D1E9056725F440753E4322F0040235435A
:105150007DE7CE6822F0800242EA0612D1E90567B7
:1051600025F440653E4322F0400245EA86059BE770
:105170004E6925F4804545EA86153CE7CE6822F461
:10518000006242EA0622D1E9056725F440553E4314
:1051900022F4806245EA0615B3E700BF0000014033
:1051A000704700BF704700BF704700BF03681A69AF
:1051B000910710B5044602D5DA6892075FD41A69E0
:1051C000500702D5DA68510746D41A69120702D58A
:1051D000DA6810072ED41A69D20602D5DA68D0062A
:1051E00018D41A69D10702D5DA68D2075DD41A69D2
:1051F000100602D5DA6811065FD41A69520602D584
:10520000DA68500661D41A69910602D5DA68920606
:1052100043D410BD6FF01001082219612277DB69B9
:1052200013F4407F204664D0FFF7BCFF00222368C0
:105230002277D6E76FF00801042219612277DB6933
:105240009907204652D1FFF7ABFF2046FBF79AF9AA
:10525000002223682277BEE76FF004010222196161
:1052600022779B6913F4407F20463CD1FFF798FFDB
:105270002046FBF787F9002223682277A5E76FF025
:1052800002010122196102779B699B0725D0FFF774
:1052900089FF00222368227791E76FF020022046E1
:1052A0001A61BDE8104000F063B86FF001021A61A6
:1052B0002046FBF75BFF236899E76FF080021A61D5
:1052C000204600F057F8236897E76FF040021A6114
:1052D0002046FFF769FF236895E7FFF761FF204647
:1052E000FBF750F9D5E7FFF75DFFC4E7FFF75AFF7B
:1052F000AEE7FFF755FF2046FBF744F996E700BFFE
:1053000090F83C30012B2FD00368022230B480F893
:105310003D205A680D689C6822F070022A435A604A
:10532000124A934212D0B3F1804F0FD0A2F57C42C3
:1053300093420BD002F58062934207D002F580625F
:10534000934203D002F59A32934204D14A6824F082
:10535000800414439C600023012280F83D2080F8E3
:105360003C3030BC184670470220704700000140B6
:10537000704700BF704700BF84B082B00DF10C0CC5
:105380008CE80E00089A012A03462CD1826B0F99F3
:1053900022F480328263C26822F4840222F0400246
:1053A000C260C268012922F44012C2605FD00022AC
:1053B0003149009202E01A69002A2DDB009A01327D
:1053C0000092009A8A42F6D90320069A012A07D150
:1053D0009A6842F006029A609A6842F020029A6047
:1053E00002B004B07047C2682349002042F0400276
:1053F000DA60019002E01A69002A25DB019A013285
:105400000192019A8A42F6D903200C9ABAB99A6B92
:1054100042F480329A63D8E7002200921A69164952
:1054200042F001021A6103E0186910F00100CCD0CB
:10543000009A01320092009A8A42F5D9C4E79A6B29
:1054400022F480329A63C0E7002201921A690A4965
:1054500042F001021A6103E0186910F00100D4D093
:10546000019A01320192019A8A42F5D9CCE7C268C9
:1054700042F48012C2609AE7400D0300022A0346FC
:105480000BD04FF4105CD96821F47051D960DA6800
:1054900042EA0C020020DA607047264A26480A4495
:1054A000824232D9254A26480A44824230D92548C8
:1054B000A1F57402A2F5105282422CD92248A1F122
:1054C0008372A2F5E742824228D3204A20480A4448
:1054D000824226D91F4A20480A44824224D31F4AC6
:1054E0001F480A448242CCD31E48A1F1B772A2F5EC
:1054F000585282421BD31C4A1C480A44824234BF81
:105500004FF4E05C4FF4C05CBDE74FF4705CBAE769
:105510004FF4605CB7E74FF4505CB4E74FF4405C85
:10552000B1E74FF4305CAEE74FF4205CABE74FF4EB
:10553000005CA8E7405327FFFF340C00401E1BFF10
:105540003F420F007F4F120020D6130060B6E5FEE9
:105550005FE3160000D3CEFE40771B00C05BB3FEB6
:10556000C091210020753800E05459FEE09C4100B4
:10557000034600209A6842F001029A60704700BF1B
:10558000034600209A6822F001029A60704700BF2B
:1055900038B5C368012923F0C0430546C36018D05D
:1055A000A9B9C36843F080430C46C36001E0322CC4
:1055B0000DD00120FCF726F96B69DB0704F101042B
:1055C000F5D4A4F13200B0FA80F0400938BD0120D2
:1055D00038BDC36843F000530024C36001E0322C9F
:1055E000F5D00120FCF70EF96B69DA0704F101042C
:1055F000F5D5A4F13200B0FA80F04009E6E700BF2B
:1056000084B02DE9F04383B00BAC159D84E80E0007
:105610000023C0F804310C46C0F80831C0F80C3142
:10562000C0F81031C0F81431C0F81831C0F81C317E
:10563000C0F82031C0F82431C0F82831C0F82C312E
:10564000C0F83031C0F83431C0F83831C0F83C31DE
:10565000002D40F0AE80D0F8043800F5006C43F027
:105660000203CCF80430836B43F400138363836B31
:1056700023F400238363836B23F480238363002359
:10568000C0F8003EDCF80030CCF80030109B012B55
:1056900000F0BE80DCF8003043F00303CCF80030AB
:1056A0000023624A009303E00369002BC0F29D804F
:1056B000009B01330093009B9342F5D90121002305
:1056C0005A4A019302E00369002B7DDB019B013301
:1056D0000193019B9342F6D901210022CCF81020BE
:1056E000CCF81420CCF81C20E4B100F51063174668
:1056F0004FF090484FF000694FF67F3E08E01F6082
:10570000013294421F61C3F808E003F1200332D054
:105710001E68002EF3DA12B1C3F80080F0E7C3F878
:105720000090EDE7DCF8103023F48073CCF81030F3
:1057300000220E9B82616FF0804242611BB9836937
:1057400043F0100383618269394B1343119A8361DB
:105750001AB1836943F008038361012D05D1836980
:1057600043F0804343F004038361084603B0BDE87F
:10577000F04304B07047002200F5306317464FF045
:1057800090484FF000694FF67F3E08E01F600132FD
:1057900094421F61C3F808E003F12003C2D01E68E1
:1057A000002EF3DA12B1C3F80080F0E7C3F80090DE
:1057B000EDE7836B23F400138363836B43F40023CF
:1057C00000F5006C83635AE7002301931023174A06
:1057D000036103E00369DB067FF57FAF019B0133C3
:1057E0000193019B9342F5D976E7002300934FF490
:1057F00084630E4A036104E0016911F020013FF463
:105800005EAF009B01330093009B9342F4D955E7B0
:105810000D9B23B9DCF80030CCF8003040E7DCF811
:10582000003043F00103CCF8003039E7400D0300AD
:1058300000383C8082B00023124A019302E00369E1
:10584000002B08DB019B01330193019B9342F6D9A6
:10585000032002B070478901002341F02001019329
:10586000084A016103E0036913F0200306D0019B9D
:1058700001330193019B9342F5D9E9E7184602B041
:10588000704700BF400D0300D0F8083813F0060041
:1058900004D013F0020F14BF02200F20704700BF86
:1058A00030B44B780A78012B22D0D0F81C4802F093
:1058B0000F0C4FF4803303FA0CF3234300EB421236
:1058C000C0F81C38D2F8003B1B040ED4CB68D2F8C9
:1058D000000B0979C3F30A03034343EA814343F00E
:1058E000805343F40043C2F8003B002030BC7047B3
:1058F000D0F81C5802F00F0C03FA0CF300F500640A
:105900002B4300EB4210E361D0F800391C04ECD4C7
:10591000CB68D0F800490979C3F30A03234343EA6B
:10592000814343EA825242F0805242F40042C0F87E
:10593000002930BC0020704710B44A780B78012A47
:1059400000EB43122CD0D2F8001B00291BDBD0F84F
:105950003C484FF4803103F00F0301FA03F324EACB
:105960000304C0F83C48D0F81C48224924EA030349
:10597000C0F81C38D2F8003B5DF8044B19400020F9
:10598000C2F8001B7047D2F8001B41F00061C2F85A
:10599000001BD2F8001B41F08041C2F8001BD6E783
:1059A000D2F8001900290BDAD2F8001941F0006191
:1059B000C2F80019D2F8001941F08041C2F800196C
:1059C000D0F83C1803F00F040123A34021EA03019F
:1059D000C0F83C18D0F81C48074924EA0303C0F873
:1059E0001C38D2F800395DF8044B19400020C2F889
:1059F000001970470078F3EF007833EC2DE9F0419F
:105A00004C7891F800C0012C4FD000EB4C1C0CF5E9
:105A100030631C69E40CE4041C611C6924F0FF542D
:105A200024F4C0141C618C6974B3CD68784E2C4486
:105A3000013CB4FBF5F4A4B204FB05F506EAC4444A
:105A40001E69CD6134431C611C69C5F312052543F1
:105A5000012A1D6124D00B79012B0CD1D0F8083814
:105A600013F4807FDCF8003B0CBF43F0005343F09D
:105A70008053CCF8003BDCF8003B43F00443CCF807
:105A8000003B0020BDE8F081CC681D69C4F312041E
:105A90002C431C611C69012A44F400241C61DAD1E6
:105AA0000A69002AD7D05A61D5E78E6900EB4C15F8
:105AB000DEB3D5F81039CF68DB0CDB04C5F810393C
:105AC000D5F8103923F0FF5323F4C013C5F810396B
:105AD0004F4BD5F8108906EB070E0EF1FF3EBEFBCB
